{
	"contracts/FriendTechV2.sol": {
		"FriendtechSharesV2": {
			"abi": [
				{
					"anonymous": false,
					"inputs": [
						{
							"indexed": true,
							"internalType": "address",
							"name": "previousOwner",
							"type": "address"
						},
						{
							"indexed": true,
							"internalType": "address",
							"name": "newOwner",
							"type": "address"
						}
					],
					"name": "OwnershipTransferred",
					"type": "event"
				},
				{
					"anonymous": false,
					"inputs": [
						{
							"indexed": false,
							"internalType": "address",
							"name": "trader",
							"type": "address"
						},
						{
							"indexed": false,
							"internalType": "address",
							"name": "subject",
							"type": "address"
						},
						{
							"indexed": false,
							"internalType": "bool",
							"name": "isBuy",
							"type": "bool"
						},
						{
							"indexed": false,
							"internalType": "uint256",
							"name": "shareAmount",
							"type": "uint256"
						},
						{
							"indexed": false,
							"internalType": "uint256",
							"name": "ethAmount",
							"type": "uint256"
						},
						{
							"indexed": false,
							"internalType": "uint256",
							"name": "protocolEthAmount",
							"type": "uint256"
						},
						{
							"indexed": false,
							"internalType": "uint256",
							"name": "subjectEthAmount",
							"type": "uint256"
						},
						{
							"indexed": false,
							"internalType": "uint256",
							"name": "supply",
							"type": "uint256"
						}
					],
					"name": "Trade",
					"type": "event"
				},
				{
					"inputs": [
						{
							"internalType": "address",
							"name": "sharesSubject",
							"type": "address"
						},
						{
							"internalType": "uint256",
							"name": "amount",
							"type": "uint256"
						}
					],
					"name": "buySharesWithToken",
					"outputs": [],
					"stateMutability": "nonpayable",
					"type": "function"
				},
				{
					"inputs": [
						{
							"internalType": "address",
							"name": "sharesSubject",
							"type": "address"
						},
						{
							"internalType": "uint256",
							"name": "amount",
							"type": "uint256"
						}
					],
					"name": "getBuyPrice",
					"outputs": [
						{
							"internalType": "uint256",
							"name": "",
							"type": "uint256"
						}
					],
					"stateMutability": "view",
					"type": "function"
				},
				{
					"inputs": [
						{
							"internalType": "address",
							"name": "sharesSubject",
							"type": "address"
						},
						{
							"internalType": "uint256",
							"name": "amount",
							"type": "uint256"
						}
					],
					"name": "getBuyPriceAfterFee",
					"outputs": [
						{
							"internalType": "uint256",
							"name": "",
							"type": "uint256"
						}
					],
					"stateMutability": "view",
					"type": "function"
				},
				{
					"inputs": [
						{
							"internalType": "uint256",
							"name": "supply",
							"type": "uint256"
						},
						{
							"internalType": "uint256",
							"name": "amount",
							"type": "uint256"
						}
					],
					"name": "getPrice",
					"outputs": [
						{
							"internalType": "uint256",
							"name": "",
							"type": "uint256"
						}
					],
					"stateMutability": "pure",
					"type": "function"
				},
				{
					"inputs": [
						{
							"internalType": "address",
							"name": "sharesSubject",
							"type": "address"
						},
						{
							"internalType": "uint256",
							"name": "amount",
							"type": "uint256"
						}
					],
					"name": "getSellPrice",
					"outputs": [
						{
							"internalType": "uint256",
							"name": "",
							"type": "uint256"
						}
					],
					"stateMutability": "view",
					"type": "function"
				},
				{
					"inputs": [
						{
							"internalType": "address",
							"name": "sharesSubject",
							"type": "address"
						},
						{
							"internalType": "uint256",
							"name": "amount",
							"type": "uint256"
						}
					],
					"name": "getSellPriceAfterFee",
					"outputs": [
						{
							"internalType": "uint256",
							"name": "",
							"type": "uint256"
						}
					],
					"stateMutability": "view",
					"type": "function"
				},
				{
					"inputs": [],
					"name": "owner",
					"outputs": [
						{
							"internalType": "address",
							"name": "",
							"type": "address"
						}
					],
					"stateMutability": "view",
					"type": "function"
				},
				{
					"inputs": [],
					"name": "partyA",
					"outputs": [
						{
							"internalType": "address",
							"name": "",
							"type": "address"
						}
					],
					"stateMutability": "view",
					"type": "function"
				},
				{
					"inputs": [],
					"name": "partyAFeePercent",
					"outputs": [
						{
							"internalType": "uint256",
							"name": "",
							"type": "uint256"
						}
					],
					"stateMutability": "view",
					"type": "function"
				},
				{
					"inputs": [],
					"name": "partyB",
					"outputs": [
						{
							"internalType": "address",
							"name": "",
							"type": "address"
						}
					],
					"stateMutability": "view",
					"type": "function"
				},
				{
					"inputs": [],
					"name": "partyBFeePercent",
					"outputs": [
						{
							"internalType": "uint256",
							"name": "",
							"type": "uint256"
						}
					],
					"stateMutability": "view",
					"type": "function"
				},
				{
					"inputs": [],
					"name": "partyC",
					"outputs": [
						{
							"internalType": "address",
							"name": "",
							"type": "address"
						}
					],
					"stateMutability": "view",
					"type": "function"
				},
				{
					"inputs": [],
					"name": "partyCFeePercent",
					"outputs": [
						{
							"internalType": "uint256",
							"name": "",
							"type": "uint256"
						}
					],
					"stateMutability": "view",
					"type": "function"
				},
				{
					"inputs": [],
					"name": "protocolFeeDestination",
					"outputs": [
						{
							"internalType": "address",
							"name": "",
							"type": "address"
						}
					],
					"stateMutability": "view",
					"type": "function"
				},
				{
					"inputs": [],
					"name": "protocolFeePercent",
					"outputs": [
						{
							"internalType": "uint256",
							"name": "",
							"type": "uint256"
						}
					],
					"stateMutability": "view",
					"type": "function"
				},
				{
					"inputs": [],
					"name": "renounceOwnership",
					"outputs": [],
					"stateMutability": "nonpayable",
					"type": "function"
				},
				{
					"inputs": [
						{
							"internalType": "address",
							"name": "sharesSubject",
							"type": "address"
						},
						{
							"internalType": "uint256",
							"name": "amount",
							"type": "uint256"
						}
					],
					"name": "sellSharesForToken",
					"outputs": [],
					"stateMutability": "nonpayable",
					"type": "function"
				},
				{
					"inputs": [
						{
							"internalType": "address",
							"name": "_partyA",
							"type": "address"
						},
						{
							"internalType": "address",
							"name": "_partyB",
							"type": "address"
						},
						{
							"internalType": "address",
							"name": "_partyC",
							"type": "address"
						}
					],
					"name": "setFeeDestinations",
					"outputs": [],
					"stateMutability": "nonpayable",
					"type": "function"
				},
				{
					"inputs": [
						{
							"internalType": "uint256",
							"name": "_feePercent",
							"type": "uint256"
						}
					],
					"name": "setProtocolFeePercent",
					"outputs": [],
					"stateMutability": "nonpayable",
					"type": "function"
				},
				{
					"inputs": [
						{
							"internalType": "uint256",
							"name": "_feePercent",
							"type": "uint256"
						}
					],
					"name": "setSubjectFeePercent",
					"outputs": [],
					"stateMutability": "nonpayable",
					"type": "function"
				},
				{
					"inputs": [
						{
							"internalType": "address",
							"name": "_token",
							"type": "address"
						}
					],
					"name": "setToken",
					"outputs": [],
					"stateMutability": "nonpayable",
					"type": "function"
				},
				{
					"inputs": [
						{
							"internalType": "address",
							"name": "",
							"type": "address"
						},
						{
							"internalType": "address",
							"name": "",
							"type": "address"
						}
					],
					"name": "sharesBalance",
					"outputs": [
						{
							"internalType": "uint256",
							"name": "",
							"type": "uint256"
						}
					],
					"stateMutability": "view",
					"type": "function"
				},
				{
					"inputs": [
						{
							"internalType": "address",
							"name": "",
							"type": "address"
						}
					],
					"name": "sharesSupply",
					"outputs": [
						{
							"internalType": "uint256",
							"name": "",
							"type": "uint256"
						}
					],
					"stateMutability": "view",
					"type": "function"
				},
				{
					"inputs": [],
					"name": "subjectFeePercent",
					"outputs": [
						{
							"internalType": "uint256",
							"name": "",
							"type": "uint256"
						}
					],
					"stateMutability": "view",
					"type": "function"
				},
				{
					"inputs": [],
					"name": "token",
					"outputs": [
						{
							"internalType": "address",
							"name": "",
							"type": "address"
						}
					],
					"stateMutability": "view",
					"type": "function"
				},
				{
					"inputs": [
						{
							"internalType": "address",
							"name": "newOwner",
							"type": "address"
						}
					],
					"name": "transferOwnership",
					"outputs": [],
					"stateMutability": "nonpayable",
					"type": "function"
				}
			],
			"devdoc": {
				"kind": "dev",
				"methods": {
					"owner()": {
						"details": "Returns the address of the current owner."
					},
					"renounceOwnership()": {
						"details": "Leaves the contract without owner. It will not be possible to call `onlyOwner` functions anymore. Can only be called by the current owner. NOTE: Renouncing ownership will leave the contract without an owner, thereby removing any functionality that is only available to the owner."
					},
					"transferOwnership(address)": {
						"details": "Transfers ownership of the contract to a new account (`newOwner`). Can only be called by the current owner."
					}
				},
				"version": 1
			},
			"evm": {
				"assembly": "    /* \"contracts/FriendTechV2.sol\":3782:8796  contract FriendtechSharesV2 is Ownable {... */\n  mstore(0x40, 0x80)\n    /* \"contracts/FriendTechV2.sol\":4115:4116  4 */\n  0x04\n    /* \"contracts/FriendTechV2.sol\":4081:4116  uint256 public partyAFeePercent = 4 */\n  0x08\n  sstore\n    /* \"contracts/FriendTechV2.sol\":4156:4157  4 */\n  0x04\n    /* \"contracts/FriendTechV2.sol\":4122:4157  uint256 public partyBFeePercent = 4 */\n  0x09\n  sstore\n    /* \"contracts/FriendTechV2.sol\":4197:4198  2 */\n  0x02\n    /* \"contracts/FriendTechV2.sol\":4163:4198  uint256 public partyCFeePercent = 2 */\n  0x0a\n  sstore\n    /* \"contracts/FriendTechV2.sol\":3782:8796  contract FriendtechSharesV2 is Ownable {... */\n  callvalue\n  dup1\n  iszero\n  tag_1\n  jumpi\n  0x00\n  dup1\n  revert\ntag_1:\n  pop\n    /* \"contracts/FriendTechV2.sol\":1820:1852  _transferOwnership(_msgSender()) */\n  tag_4\n    /* \"contracts/FriendTechV2.sol\":1839:1851  _msgSender() */\n  tag_5\n    /* \"contracts/FriendTechV2.sol\":1839:1849  _msgSender */\n  shl(0x20, tag_6)\n    /* \"contracts/FriendTechV2.sol\":1839:1851  _msgSender() */\n  0x20\n  shr\n  jump\t// in\ntag_5:\n    /* \"contracts/FriendTechV2.sol\":1820:1838  _transferOwnership */\n  shl(0x20, tag_7)\n    /* \"contracts/FriendTechV2.sol\":1820:1852  _transferOwnership(_msgSender()) */\n  0x20\n  shr\n  jump\t// in\ntag_4:\n    /* \"contracts/FriendTechV2.sol\":3782:8796  contract FriendtechSharesV2 is Ownable {... */\n  jump(tag_8)\n    /* \"contracts/FriendTechV2.sol\":708:804  function _msgSender() internal view virtual returns (address) {... */\ntag_6:\n    /* \"contracts/FriendTechV2.sol\":761:768  address */\n  0x00\n    /* \"contracts/FriendTechV2.sol\":787:797  msg.sender */\n  caller\n    /* \"contracts/FriendTechV2.sol\":780:797  return msg.sender */\n  swap1\n  pop\n    /* \"contracts/FriendTechV2.sol\":708:804  function _msgSender() internal view virtual returns (address) {... */\n  swap1\n  jump\t// out\n    /* \"contracts/FriendTechV2.sol\":3317:3504  function _transferOwnership(address newOwner) internal virtual {... */\ntag_7:\n    /* \"contracts/FriendTechV2.sol\":3390:3406  address oldOwner */\n  0x00\n    /* \"contracts/FriendTechV2.sol\":3409:3415  _owner */\n  dup1\n  0x00\n  swap1\n  sload\n  swap1\n  0x0100\n  exp\n  swap1\n  div\n  0xffffffffffffffffffffffffffffffffffffffff\n  and\n    /* \"contracts/FriendTechV2.sol\":3390:3415  address oldOwner = _owner */\n  swap1\n  pop\n    /* \"contracts/FriendTechV2.sol\":3434:3442  newOwner */\n  dup2\n    /* \"contracts/FriendTechV2.sol\":3425:3431  _owner */\n  0x00\n  dup1\n    /* \"contracts/FriendTechV2.sol\":3425:3442  _owner = newOwner */\n  0x0100\n  exp\n  dup2\n  sload\n  dup2\n  0xffffffffffffffffffffffffffffffffffffffff\n  mul\n  not\n  and\n  swap1\n  dup4\n  0xffffffffffffffffffffffffffffffffffffffff\n  and\n  mul\n  or\n  swap1\n  sstore\n  pop\n    /* \"contracts/FriendTechV2.sol\":3488:3496  newOwner */\n  dup2\n    /* \"contracts/FriendTechV2.sol\":3457:3497  OwnershipTransferred(oldOwner, newOwner) */\n  0xffffffffffffffffffffffffffffffffffffffff\n  and\n    /* \"contracts/FriendTechV2.sol\":3478:3486  oldOwner */\n  dup2\n    /* \"contracts/FriendTechV2.sol\":3457:3497  OwnershipTransferred(oldOwner, newOwner) */\n  0xffffffffffffffffffffffffffffffffffffffff\n  and\n  0x8be0079c531659141344cd1fd0a4f28419497f9722a3daafe3b4186f6b6457e0\n  mload(0x40)\n  mload(0x40)\n  dup1\n  swap2\n  sub\n  swap1\n  log3\n    /* \"contracts/FriendTechV2.sol\":3380:3504  {... */\n  pop\n    /* \"contracts/FriendTechV2.sol\":3317:3504  function _transferOwnership(address newOwner) internal virtual {... */\n  pop\n  jump\t// out\n    /* \"contracts/FriendTechV2.sol\":3782:8796  contract FriendtechSharesV2 is Ownable {... */\ntag_8:\n  dataSize(sub_0)\n  dup1\n  dataOffset(sub_0)\n  0x00\n  codecopy\n  0x00\n  return\nstop\n\nsub_0: assembly {\n        /* \"contracts/FriendTechV2.sol\":3782:8796  contract FriendtechSharesV2 is Ownable {... */\n      mstore(0x40, 0x80)\n      callvalue\n      dup1\n      iszero\n      tag_1\n      jumpi\n      0x00\n      dup1\n      revert\n    tag_1:\n      pop\n      jumpi(tag_2, lt(calldatasize, 0x04))\n      shr(0xe0, calldataload(0x00))\n      dup1\n      0x5cf4ee91\n      gt\n      tag_29\n      jumpi\n      dup1\n      0x9ae71781\n      gt\n      tag_30\n      jumpi\n      dup1\n      0xd6e6eb9f\n      gt\n      tag_31\n      jumpi\n      dup1\n      0xd6e6eb9f\n      eq\n      tag_25\n      jumpi\n      dup1\n      0xf2fde38b\n      eq\n      tag_26\n      jumpi\n      dup1\n      0xf9931be0\n      eq\n      tag_27\n      jumpi\n      dup1\n      0xfc0c546a\n      eq\n      tag_28\n      jumpi\n      jump(tag_2)\n    tag_31:\n      dup1\n      0x9ae71781\n      eq\n      tag_22\n      jumpi\n      dup1\n      0xa4983421\n      eq\n      tag_23\n      jumpi\n      dup1\n      0xa7d5e724\n      eq\n      tag_24\n      jumpi\n      jump(tag_2)\n    tag_30:\n      dup1\n      0x5cf4ee91\n      eq\n      tag_16\n      jumpi\n      dup1\n      0x715018a6\n      eq\n      tag_17\n      jumpi\n      dup1\n      0x83b7d8b2\n      eq\n      tag_18\n      jumpi\n      dup1\n      0x85efea6a\n      eq\n      tag_19\n      jumpi\n      dup1\n      0x8da5cb5b\n      eq\n      tag_20\n      jumpi\n      dup1\n      0x95e06f6e\n      eq\n      tag_21\n      jumpi\n      jump(tag_2)\n    tag_29:\n      dup1\n      0x24dc441d\n      gt\n      tag_32\n      jumpi\n      dup1\n      0x4635256e\n      gt\n      tag_33\n      jumpi\n      dup1\n      0x4635256e\n      eq\n      tag_12\n      jumpi\n      dup1\n      0x4ce7957c\n      eq\n      tag_13\n      jumpi\n      dup1\n      0x550e5cb0\n      eq\n      tag_14\n      jumpi\n      dup1\n      0x5a8a764e\n      eq\n      tag_15\n      jumpi\n      jump(tag_2)\n    tag_33:\n      dup1\n      0x24dc441d\n      eq\n      tag_9\n      jumpi\n      dup1\n      0x28f3994a\n      eq\n      tag_10\n      jumpi\n      dup1\n      0x29040113\n      eq\n      tag_11\n      jumpi\n      jump(tag_2)\n    tag_32:\n      dup1\n      0x020235ff\n      eq\n      tag_3\n      jumpi\n      dup1\n      0x0f026f6d\n      eq\n      tag_4\n      jumpi\n      dup1\n      0x10e1d8ca\n      eq\n      tag_5\n      jumpi\n      dup1\n      0x144fa6d7\n      eq\n      tag_6\n      jumpi\n      dup1\n      0x17b36486\n      eq\n      tag_7\n      jumpi\n      dup1\n      0x2267a89c\n      eq\n      tag_8\n      jumpi\n    tag_2:\n      0x00\n      dup1\n      revert\n        /* \"contracts/FriendTechV2.sol\":4421:4489  mapping(address => mapping(address => uint256)) public sharesBalance */\n    tag_3:\n      tag_34\n      0x04\n      dup1\n      calldatasize\n      sub\n      dup2\n      add\n      swap1\n      tag_35\n      swap2\n      swap1\n      tag_36\n      jump\t// in\n    tag_35:\n      tag_37\n      jump\t// in\n    tag_34:\n      mload(0x40)\n      tag_38\n      swap2\n      swap1\n      tag_39\n      jump\t// in\n    tag_38:\n      mload(0x40)\n      dup1\n      swap2\n      sub\n      swap1\n      return\n        /* \"contracts/FriendTechV2.sol\":6413:6761  function getBuyPriceAfterFee(address sharesSubject, uint256 amount) public view returns (uint256) {... */\n    tag_4:\n      tag_40\n      0x04\n      dup1\n      calldatasize\n      sub\n      dup2\n      add\n      swap1\n      tag_41\n      swap2\n      swap1\n      tag_42\n      jump\t// in\n    tag_41:\n      tag_43\n      jump\t// in\n    tag_40:\n      mload(0x40)\n      tag_44\n      swap2\n      swap1\n      tag_39\n      jump\t// in\n    tag_44:\n      mload(0x40)\n      dup1\n      swap2\n      sub\n      swap1\n      return\n        /* \"contracts/FriendTechV2.sol\":3999:4020  address public partyA */\n    tag_5:\n      tag_45\n      tag_46\n      jump\t// in\n    tag_45:\n      mload(0x40)\n      tag_47\n      swap2\n      swap1\n      tag_48\n      jump\t// in\n    tag_47:\n      mload(0x40)\n      dup1\n      swap2\n      sub\n      swap1\n      return\n        /* \"contracts/FriendTechV2.sol\":4581:4663  function setToken(address _token) public onlyOwner {... */\n    tag_6:\n      tag_49\n      0x04\n      dup1\n      calldatasize\n      sub\n      dup2\n      add\n      swap1\n      tag_50\n      swap2\n      swap1\n      tag_51\n      jump\t// in\n    tag_50:\n      tag_52\n      jump\t// in\n    tag_49:\n      stop\n        /* \"contracts/FriendTechV2.sol\":4081:4116  uint256 public partyAFeePercent = 4 */\n    tag_7:\n      tag_53\n      tag_54\n      jump\t// in\n    tag_53:\n      mload(0x40)\n      tag_55\n      swap2\n      swap1\n      tag_39\n      jump\t// in\n    tag_55:\n      mload(0x40)\n      dup1\n      swap2\n      sub\n      swap1\n      return\n        /* \"contracts/FriendTechV2.sol\":6767:7117  function getSellPriceAfterFee(address sharesSubject, uint256 amount) public view returns (uint256) {... */\n    tag_8:\n      tag_56\n      0x04\n      dup1\n      calldatasize\n      sub\n      dup2\n      add\n      swap1\n      tag_57\n      swap2\n      swap1\n      tag_42\n      jump\t// in\n    tag_57:\n      tag_58\n      jump\t// in\n    tag_56:\n      mload(0x40)\n      tag_59\n      swap2\n      swap1\n      tag_39\n      jump\t// in\n    tag_59:\n      mload(0x40)\n      dup1\n      swap2\n      sub\n      swap1\n      return\n        /* \"contracts/FriendTechV2.sol\":3909:3941  uint256 public subjectFeePercent */\n    tag_9:\n      tag_60\n      tag_61\n      jump\t// in\n    tag_60:\n      mload(0x40)\n      tag_62\n      swap2\n      swap1\n      tag_39\n      jump\t// in\n    tag_62:\n      mload(0x40)\n      dup1\n      swap2\n      sub\n      swap1\n      return\n        /* \"contracts/FriendTechV2.sol\":4163:4198  uint256 public partyCFeePercent = 2 */\n    tag_10:\n      tag_63\n      tag_64\n      jump\t// in\n    tag_63:\n      mload(0x40)\n      tag_65\n      swap2\n      swap1\n      tag_39\n      jump\t// in\n    tag_65:\n      mload(0x40)\n      dup1\n      swap2\n      sub\n      swap1\n      return\n        /* \"contracts/FriendTechV2.sol\":4026:4047  address public partyB */\n    tag_11:\n      tag_66\n      tag_67\n      jump\t// in\n    tag_66:\n      mload(0x40)\n      tag_68\n      swap2\n      swap1\n      tag_48\n      jump\t// in\n    tag_68:\n      mload(0x40)\n      dup1\n      swap2\n      sub\n      swap1\n      return\n        /* \"contracts/FriendTechV2.sol\":6073:6232  function getBuyPrice(address sharesSubject, uint256 amount) public view returns (uint256) {... */\n    tag_12:\n      tag_69\n      0x04\n      dup1\n      calldatasize\n      sub\n      dup2\n      add\n      swap1\n      tag_70\n      swap2\n      swap1\n      tag_42\n      jump\t// in\n    tag_70:\n      tag_71\n      jump\t// in\n    tag_69:\n      mload(0x40)\n      tag_72\n      swap2\n      swap1\n      tag_39\n      jump\t// in\n    tag_72:\n      mload(0x40)\n      dup1\n      swap2\n      sub\n      swap1\n      return\n        /* \"contracts/FriendTechV2.sol\":3827:3864  address public protocolFeeDestination */\n    tag_13:\n      tag_73\n      tag_74\n      jump\t// in\n    tag_73:\n      mload(0x40)\n      tag_75\n      swap2\n      swap1\n      tag_48\n      jump\t// in\n    tag_75:\n      mload(0x40)\n      dup1\n      swap2\n      sub\n      swap1\n      return\n        /* \"contracts/FriendTechV2.sol\":4912:5093  function setFeeDestinations(address _partyA, address _partyB, address _partyC) public onlyOwner {... */\n    tag_14:\n      tag_76\n      0x04\n      dup1\n      calldatasize\n      sub\n      dup2\n      add\n      swap1\n      tag_77\n      swap2\n      swap1\n      tag_78\n      jump\t// in\n    tag_77:\n      tag_79\n      jump\t// in\n    tag_76:\n      stop\n        /* \"contracts/FriendTechV2.sol\":4791:4907  function setSubjectFeePercent(uint256 _feePercent) public onlyOwner {... */\n    tag_15:\n      tag_80\n      0x04\n      dup1\n      calldatasize\n      sub\n      dup2\n      add\n      swap1\n      tag_81\n      swap2\n      swap1\n      tag_82\n      jump\t// in\n    tag_81:\n      tag_83\n      jump\t// in\n    tag_80:\n      stop\n        /* \"contracts/FriendTechV2.sol\":5665:6067  function getPrice(uint256 supply, uint256 amount) public pure returns (uint256) {... */\n    tag_16:\n      tag_84\n      0x04\n      dup1\n      calldatasize\n      sub\n      dup2\n      add\n      swap1\n      tag_85\n      swap2\n      swap1\n      tag_86\n      jump\t// in\n    tag_85:\n      tag_87\n      jump\t// in\n    tag_84:\n      mload(0x40)\n      tag_88\n      swap2\n      swap1\n      tag_39\n      jump\t// in\n    tag_88:\n      mload(0x40)\n      dup1\n      swap2\n      sub\n      swap1\n      return\n        /* \"contracts/FriendTechV2.sol\":2715:2816  function renounceOwnership() public virtual onlyOwner {... */\n    tag_17:\n      tag_89\n      tag_90\n      jump\t// in\n    tag_89:\n      stop\n        /* \"contracts/FriendTechV2.sol\":4053:4074  address public partyC */\n    tag_18:\n      tag_91\n      tag_92\n      jump\t// in\n    tag_91:\n      mload(0x40)\n      tag_93\n      swap2\n      swap1\n      tag_48\n      jump\t// in\n    tag_93:\n      mload(0x40)\n      dup1\n      swap2\n      sub\n      swap1\n      return\n        /* \"contracts/FriendTechV2.sol\":7123:7941  function buySharesWithToken(address sharesSubject, uint256 amount) public {... */\n    tag_19:\n      tag_94\n      0x04\n      dup1\n      calldatasize\n      sub\n      dup2\n      add\n      swap1\n      tag_95\n      swap2\n      swap1\n      tag_42\n      jump\t// in\n    tag_95:\n      tag_96\n      jump\t// in\n    tag_94:\n      stop\n        /* \"contracts/FriendTechV2.sol\":2085:2170  function owner() public view virtual returns (address) {... */\n    tag_20:\n      tag_97\n      tag_98\n      jump\t// in\n    tag_97:\n      mload(0x40)\n      tag_99\n      swap2\n      swap1\n      tag_48\n      jump\t// in\n    tag_99:\n      mload(0x40)\n      dup1\n      swap2\n      sub\n      swap1\n      return\n        /* \"contracts/FriendTechV2.sol\":4122:4157  uint256 public partyBFeePercent = 4 */\n    tag_21:\n      tag_100\n      tag_101\n      jump\t// in\n    tag_100:\n      mload(0x40)\n      tag_102\n      swap2\n      swap1\n      tag_39\n      jump\t// in\n    tag_102:\n      mload(0x40)\n      dup1\n      swap2\n      sub\n      swap1\n      return\n        /* \"contracts/FriendTechV2.sol\":6238:6407  function getSellPrice(address sharesSubject, uint256 amount) public view returns (uint256) {... */\n    tag_22:\n      tag_103\n      0x04\n      dup1\n      calldatasize\n      sub\n      dup2\n      add\n      swap1\n      tag_104\n      swap2\n      swap1\n      tag_42\n      jump\t// in\n    tag_104:\n      tag_105\n      jump\t// in\n    tag_103:\n      mload(0x40)\n      tag_106\n      swap2\n      swap1\n      tag_39\n      jump\t// in\n    tag_106:\n      mload(0x40)\n      dup1\n      swap2\n      sub\n      swap1\n      return\n        /* \"contracts/FriendTechV2.sol\":4668:4786  function setProtocolFeePercent(uint256 _feePercent) public onlyOwner {... */\n    tag_23:\n      tag_107\n      0x04\n      dup1\n      calldatasize\n      sub\n      dup2\n      add\n      swap1\n      tag_108\n      swap2\n      swap1\n      tag_82\n      jump\t// in\n    tag_108:\n      tag_109\n      jump\t// in\n    tag_107:\n      stop\n        /* \"contracts/FriendTechV2.sol\":7947:8794  function sellSharesForToken(address sharesSubject, uint256 amount) public {... */\n    tag_24:\n      tag_110\n      0x04\n      dup1\n      calldatasize\n      sub\n      dup2\n      add\n      swap1\n      tag_111\n      swap2\n      swap1\n      tag_42\n      jump\t// in\n    tag_111:\n      tag_112\n      jump\t// in\n    tag_110:\n      stop\n        /* \"contracts/FriendTechV2.sol\":3870:3903  uint256 public protocolFeePercent */\n    tag_25:\n      tag_113\n      tag_114\n      jump\t// in\n    tag_113:\n      mload(0x40)\n      tag_115\n      swap2\n      swap1\n      tag_39\n      jump\t// in\n    tag_115:\n      mload(0x40)\n      dup1\n      swap2\n      sub\n      swap1\n      return\n        /* \"contracts/FriendTechV2.sol\":2965:3163  function transferOwnership(address newOwner) public virtual onlyOwner {... */\n    tag_26:\n      tag_116\n      0x04\n      dup1\n      calldatasize\n      sub\n      dup2\n      add\n      swap1\n      tag_117\n      swap2\n      swap1\n      tag_51\n      jump\t// in\n    tag_117:\n      tag_118\n      jump\t// in\n    tag_116:\n      stop\n        /* \"contracts/FriendTechV2.sol\":4527:4574  mapping(address => uint256) public sharesSupply */\n    tag_27:\n      tag_119\n      0x04\n      dup1\n      calldatasize\n      sub\n      dup2\n      add\n      swap1\n      tag_120\n      swap2\n      swap1\n      tag_51\n      jump\t// in\n    tag_120:\n      tag_121\n      jump\t// in\n    tag_119:\n      mload(0x40)\n      tag_122\n      swap2\n      swap1\n      tag_39\n      jump\t// in\n    tag_122:\n      mload(0x40)\n      dup1\n      swap2\n      sub\n      swap1\n      return\n        /* \"contracts/FriendTechV2.sol\":3948:3968  address public token */\n    tag_28:\n      tag_123\n      tag_124\n      jump\t// in\n    tag_123:\n      mload(0x40)\n      tag_125\n      swap2\n      swap1\n      tag_48\n      jump\t// in\n    tag_125:\n      mload(0x40)\n      dup1\n      swap2\n      sub\n      swap1\n      return\n        /* \"contracts/FriendTechV2.sol\":4421:4489  mapping(address => mapping(address => uint256)) public sharesBalance */\n    tag_37:\n      mstore(0x20, 0x0b)\n      dup2\n      0x00\n      mstore\n      mstore(0x20, keccak256(0x00, 0x40))\n      dup1\n      0x00\n      mstore\n      keccak256(0x00, 0x40)\n      0x00\n      swap2\n      pop\n      swap2\n      pop\n      pop\n      sload\n      dup2\n      jump\t// out\n        /* \"contracts/FriendTechV2.sol\":6413:6761  function getBuyPriceAfterFee(address sharesSubject, uint256 amount) public view returns (uint256) {... */\n    tag_43:\n        /* \"contracts/FriendTechV2.sol\":6502:6509  uint256 */\n      0x00\n        /* \"contracts/FriendTechV2.sol\":6521:6534  uint256 price */\n      dup1\n        /* \"contracts/FriendTechV2.sol\":6537:6571  getBuyPrice(sharesSubject, amount) */\n      tag_127\n        /* \"contracts/FriendTechV2.sol\":6549:6562  sharesSubject */\n      dup5\n        /* \"contracts/FriendTechV2.sol\":6564:6570  amount */\n      dup5\n        /* \"contracts/FriendTechV2.sol\":6537:6548  getBuyPrice */\n      tag_71\n        /* \"contracts/FriendTechV2.sol\":6537:6571  getBuyPrice(sharesSubject, amount) */\n      jump\t// in\n    tag_127:\n        /* \"contracts/FriendTechV2.sol\":6521:6571  uint256 price = getBuyPrice(sharesSubject, amount) */\n      swap1\n      pop\n        /* \"contracts/FriendTechV2.sol\":6581:6600  uint256 protocolFee */\n      0x00\n        /* \"contracts/FriendTechV2.sol\":6632:6639  1 ether */\n      0x0de0b6b3a7640000\n        /* \"contracts/FriendTechV2.sol\":6611:6629  protocolFeePercent */\n      sload(0x02)\n        /* \"contracts/FriendTechV2.sol\":6603:6608  price */\n      dup4\n        /* \"contracts/FriendTechV2.sol\":6603:6629  price * protocolFeePercent */\n      tag_128\n      swap2\n      swap1\n      tag_129\n      jump\t// in\n    tag_128:\n        /* \"contracts/FriendTechV2.sol\":6603:6639  price * protocolFeePercent / 1 ether */\n      tag_130\n      swap2\n      swap1\n      tag_131\n      jump\t// in\n    tag_130:\n        /* \"contracts/FriendTechV2.sol\":6581:6639  uint256 protocolFee = price * protocolFeePercent / 1 ether */\n      swap1\n      pop\n        /* \"contracts/FriendTechV2.sol\":6649:6667  uint256 subjectFee */\n      0x00\n        /* \"contracts/FriendTechV2.sol\":6698:6705  1 ether */\n      0x0de0b6b3a7640000\n        /* \"contracts/FriendTechV2.sol\":6678:6695  subjectFeePercent */\n      sload(0x03)\n        /* \"contracts/FriendTechV2.sol\":6670:6675  price */\n      dup5\n        /* \"contracts/FriendTechV2.sol\":6670:6695  price * subjectFeePercent */\n      tag_132\n      swap2\n      swap1\n      tag_129\n      jump\t// in\n    tag_132:\n        /* \"contracts/FriendTechV2.sol\":6670:6705  price * subjectFeePercent / 1 ether */\n      tag_133\n      swap2\n      swap1\n      tag_131\n      jump\t// in\n    tag_133:\n        /* \"contracts/FriendTechV2.sol\":6649:6705  uint256 subjectFee = price * subjectFeePercent / 1 ether */\n      swap1\n      pop\n        /* \"contracts/FriendTechV2.sol\":6744:6754  subjectFee */\n      dup1\n        /* \"contracts/FriendTechV2.sol\":6730:6741  protocolFee */\n      dup3\n        /* \"contracts/FriendTechV2.sol\":6722:6727  price */\n      dup5\n        /* \"contracts/FriendTechV2.sol\":6722:6741  price + protocolFee */\n      tag_134\n      swap2\n      swap1\n      tag_135\n      jump\t// in\n    tag_134:\n        /* \"contracts/FriendTechV2.sol\":6722:6754  price + protocolFee + subjectFee */\n      tag_136\n      swap2\n      swap1\n      tag_135\n      jump\t// in\n    tag_136:\n        /* \"contracts/FriendTechV2.sol\":6715:6754  return price + protocolFee + subjectFee */\n      swap4\n      pop\n      pop\n      pop\n      pop\n        /* \"contracts/FriendTechV2.sol\":6413:6761  function getBuyPriceAfterFee(address sharesSubject, uint256 amount) public view returns (uint256) {... */\n      swap3\n      swap2\n      pop\n      pop\n      jump\t// out\n        /* \"contracts/FriendTechV2.sol\":3999:4020  address public partyA */\n    tag_46:\n      0x05\n      0x00\n      swap1\n      sload\n      swap1\n      0x0100\n      exp\n      swap1\n      div\n      0xffffffffffffffffffffffffffffffffffffffff\n      and\n      dup2\n      jump\t// out\n        /* \"contracts/FriendTechV2.sol\":4581:4663  function setToken(address _token) public onlyOwner {... */\n    tag_52:\n        /* \"contracts/FriendTechV2.sol\":1978:1991  _checkOwner() */\n      tag_138\n        /* \"contracts/FriendTechV2.sol\":1978:1989  _checkOwner */\n      tag_139\n        /* \"contracts/FriendTechV2.sol\":1978:1991  _checkOwner() */\n      jump\t// in\n    tag_138:\n        /* \"contracts/FriendTechV2.sol\":4650:4656  _token */\n      dup1\n        /* \"contracts/FriendTechV2.sol\":4642:4647  token */\n      0x04\n      0x00\n        /* \"contracts/FriendTechV2.sol\":4642:4656  token = _token */\n      0x0100\n      exp\n      dup2\n      sload\n      dup2\n      0xffffffffffffffffffffffffffffffffffffffff\n      mul\n      not\n      and\n      swap1\n      dup4\n      0xffffffffffffffffffffffffffffffffffffffff\n      and\n      mul\n      or\n      swap1\n      sstore\n      pop\n        /* \"contracts/FriendTechV2.sol\":4581:4663  function setToken(address _token) public onlyOwner {... */\n      pop\n      jump\t// out\n        /* \"contracts/FriendTechV2.sol\":4081:4116  uint256 public partyAFeePercent = 4 */\n    tag_54:\n      sload(0x08)\n      dup2\n      jump\t// out\n        /* \"contracts/FriendTechV2.sol\":6767:7117  function getSellPriceAfterFee(address sharesSubject, uint256 amount) public view returns (uint256) {... */\n    tag_58:\n        /* \"contracts/FriendTechV2.sol\":6857:6864  uint256 */\n      0x00\n        /* \"contracts/FriendTechV2.sol\":6876:6889  uint256 price */\n      dup1\n        /* \"contracts/FriendTechV2.sol\":6892:6927  getSellPrice(sharesSubject, amount) */\n      tag_142\n        /* \"contracts/FriendTechV2.sol\":6905:6918  sharesSubject */\n      dup5\n        /* \"contracts/FriendTechV2.sol\":6920:6926  amount */\n      dup5\n        /* \"contracts/FriendTechV2.sol\":6892:6904  getSellPrice */\n      tag_105\n        /* \"contracts/FriendTechV2.sol\":6892:6927  getSellPrice(sharesSubject, amount) */\n      jump\t// in\n    tag_142:\n        /* \"contracts/FriendTechV2.sol\":6876:6927  uint256 price = getSellPrice(sharesSubject, amount) */\n      swap1\n      pop\n        /* \"contracts/FriendTechV2.sol\":6937:6956  uint256 protocolFee */\n      0x00\n        /* \"contracts/FriendTechV2.sol\":6988:6995  1 ether */\n      0x0de0b6b3a7640000\n        /* \"contracts/FriendTechV2.sol\":6967:6985  protocolFeePercent */\n      sload(0x02)\n        /* \"contracts/FriendTechV2.sol\":6959:6964  price */\n      dup4\n        /* \"contracts/FriendTechV2.sol\":6959:6985  price * protocolFeePercent */\n      tag_143\n      swap2\n      swap1\n      tag_129\n      jump\t// in\n    tag_143:\n        /* \"contracts/FriendTechV2.sol\":6959:6995  price * protocolFeePercent / 1 ether */\n      tag_144\n      swap2\n      swap1\n      tag_131\n      jump\t// in\n    tag_144:\n        /* \"contracts/FriendTechV2.sol\":6937:6995  uint256 protocolFee = price * protocolFeePercent / 1 ether */\n      swap1\n      pop\n        /* \"contracts/FriendTechV2.sol\":7005:7023  uint256 subjectFee */\n      0x00\n        /* \"contracts/FriendTechV2.sol\":7054:7061  1 ether */\n      0x0de0b6b3a7640000\n        /* \"contracts/FriendTechV2.sol\":7034:7051  subjectFeePercent */\n      sload(0x03)\n        /* \"contracts/FriendTechV2.sol\":7026:7031  price */\n      dup5\n        /* \"contracts/FriendTechV2.sol\":7026:7051  price * subjectFeePercent */\n      tag_145\n      swap2\n      swap1\n      tag_129\n      jump\t// in\n    tag_145:\n        /* \"contracts/FriendTechV2.sol\":7026:7061  price * subjectFeePercent / 1 ether */\n      tag_146\n      swap2\n      swap1\n      tag_131\n      jump\t// in\n    tag_146:\n        /* \"contracts/FriendTechV2.sol\":7005:7061  uint256 subjectFee = price * subjectFeePercent / 1 ether */\n      swap1\n      pop\n        /* \"contracts/FriendTechV2.sol\":7100:7110  subjectFee */\n      dup1\n        /* \"contracts/FriendTechV2.sol\":7086:7097  protocolFee */\n      dup3\n        /* \"contracts/FriendTechV2.sol\":7078:7083  price */\n      dup5\n        /* \"contracts/FriendTechV2.sol\":7078:7097  price - protocolFee */\n      tag_147\n      swap2\n      swap1\n      tag_148\n      jump\t// in\n    tag_147:\n        /* \"contracts/FriendTechV2.sol\":7078:7110  price - protocolFee - subjectFee */\n      tag_149\n      swap2\n      swap1\n      tag_148\n      jump\t// in\n    tag_149:\n        /* \"contracts/FriendTechV2.sol\":7071:7110  return price - protocolFee - subjectFee */\n      swap4\n      pop\n      pop\n      pop\n      pop\n        /* \"contracts/FriendTechV2.sol\":6767:7117  function getSellPriceAfterFee(address sharesSubject, uint256 amount) public view returns (uint256) {... */\n      swap3\n      swap2\n      pop\n      pop\n      jump\t// out\n        /* \"contracts/FriendTechV2.sol\":3909:3941  uint256 public subjectFeePercent */\n    tag_61:\n      sload(0x03)\n      dup2\n      jump\t// out\n        /* \"contracts/FriendTechV2.sol\":4163:4198  uint256 public partyCFeePercent = 2 */\n    tag_64:\n      sload(0x0a)\n      dup2\n      jump\t// out\n        /* \"contracts/FriendTechV2.sol\":4026:4047  address public partyB */\n    tag_67:\n      0x06\n      0x00\n      swap1\n      sload\n      swap1\n      0x0100\n      exp\n      swap1\n      div\n      0xffffffffffffffffffffffffffffffffffffffff\n      and\n      dup2\n      jump\t// out\n        /* \"contracts/FriendTechV2.sol\":6073:6232  function getBuyPrice(address sharesSubject, uint256 amount) public view returns (uint256) {... */\n    tag_71:\n        /* \"contracts/FriendTechV2.sol\":6154:6161  uint256 */\n      0x00\n        /* \"contracts/FriendTechV2.sol\":6180:6225  getPrice(sharesSupply[sharesSubject], amount) */\n      tag_151\n        /* \"contracts/FriendTechV2.sol\":6189:6201  sharesSupply */\n      0x0c\n        /* \"contracts/FriendTechV2.sol\":6189:6216  sharesSupply[sharesSubject] */\n      0x00\n        /* \"contracts/FriendTechV2.sol\":6202:6215  sharesSubject */\n      dup6\n        /* \"contracts/FriendTechV2.sol\":6189:6216  sharesSupply[sharesSubject] */\n      0xffffffffffffffffffffffffffffffffffffffff\n      and\n      0xffffffffffffffffffffffffffffffffffffffff\n      and\n      dup2\n      mstore\n      0x20\n      add\n      swap1\n      dup2\n      mstore\n      0x20\n      add\n      0x00\n      keccak256\n      sload\n        /* \"contracts/FriendTechV2.sol\":6218:6224  amount */\n      dup4\n        /* \"contracts/FriendTechV2.sol\":6180:6188  getPrice */\n      tag_87\n        /* \"contracts/FriendTechV2.sol\":6180:6225  getPrice(sharesSupply[sharesSubject], amount) */\n      jump\t// in\n    tag_151:\n        /* \"contracts/FriendTechV2.sol\":6173:6225  return getPrice(sharesSupply[sharesSubject], amount) */\n      swap1\n      pop\n        /* \"contracts/FriendTechV2.sol\":6073:6232  function getBuyPrice(address sharesSubject, uint256 amount) public view returns (uint256) {... */\n      swap3\n      swap2\n      pop\n      pop\n      jump\t// out\n        /* \"contracts/FriendTechV2.sol\":3827:3864  address public protocolFeeDestination */\n    tag_74:\n      0x01\n      0x00\n      swap1\n      sload\n      swap1\n      0x0100\n      exp\n      swap1\n      div\n      0xffffffffffffffffffffffffffffffffffffffff\n      and\n      dup2\n      jump\t// out\n        /* \"contracts/FriendTechV2.sol\":4912:5093  function setFeeDestinations(address _partyA, address _partyB, address _partyC) public onlyOwner {... */\n    tag_79:\n        /* \"contracts/FriendTechV2.sol\":1978:1991  _checkOwner() */\n      tag_153\n        /* \"contracts/FriendTechV2.sol\":1978:1989  _checkOwner */\n      tag_139\n        /* \"contracts/FriendTechV2.sol\":1978:1991  _checkOwner() */\n      jump\t// in\n    tag_153:\n        /* \"contracts/FriendTechV2.sol\":5027:5034  _partyA */\n      dup3\n        /* \"contracts/FriendTechV2.sol\":5018:5024  partyA */\n      0x05\n      0x00\n        /* \"contracts/FriendTechV2.sol\":5018:5034  partyA = _partyA */\n      0x0100\n      exp\n      dup2\n      sload\n      dup2\n      0xffffffffffffffffffffffffffffffffffffffff\n      mul\n      not\n      and\n      swap1\n      dup4\n      0xffffffffffffffffffffffffffffffffffffffff\n      and\n      mul\n      or\n      swap1\n      sstore\n      pop\n        /* \"contracts/FriendTechV2.sol\":5053:5060  _partyB */\n      dup2\n        /* \"contracts/FriendTechV2.sol\":5044:5050  partyB */\n      0x06\n      0x00\n        /* \"contracts/FriendTechV2.sol\":5044:5060  partyB = _partyB */\n      0x0100\n      exp\n      dup2\n      sload\n      dup2\n      0xffffffffffffffffffffffffffffffffffffffff\n      mul\n      not\n      and\n      swap1\n      dup4\n      0xffffffffffffffffffffffffffffffffffffffff\n      and\n      mul\n      or\n      swap1\n      sstore\n      pop\n        /* \"contracts/FriendTechV2.sol\":5079:5086  _partyC */\n      dup1\n        /* \"contracts/FriendTechV2.sol\":5070:5076  partyC */\n      0x07\n      0x00\n        /* \"contracts/FriendTechV2.sol\":5070:5086  partyC = _partyC */\n      0x0100\n      exp\n      dup2\n      sload\n      dup2\n      0xffffffffffffffffffffffffffffffffffffffff\n      mul\n      not\n      and\n      swap1\n      dup4\n      0xffffffffffffffffffffffffffffffffffffffff\n      and\n      mul\n      or\n      swap1\n      sstore\n      pop\n        /* \"contracts/FriendTechV2.sol\":4912:5093  function setFeeDestinations(address _partyA, address _partyB, address _partyC) public onlyOwner {... */\n      pop\n      pop\n      pop\n      jump\t// out\n        /* \"contracts/FriendTechV2.sol\":4791:4907  function setSubjectFeePercent(uint256 _feePercent) public onlyOwner {... */\n    tag_83:\n        /* \"contracts/FriendTechV2.sol\":1978:1991  _checkOwner() */\n      tag_156\n        /* \"contracts/FriendTechV2.sol\":1978:1989  _checkOwner */\n      tag_139\n        /* \"contracts/FriendTechV2.sol\":1978:1991  _checkOwner() */\n      jump\t// in\n    tag_156:\n        /* \"contracts/FriendTechV2.sol\":4889:4900  _feePercent */\n      dup1\n        /* \"contracts/FriendTechV2.sol\":4869:4886  subjectFeePercent */\n      0x03\n        /* \"contracts/FriendTechV2.sol\":4869:4900  subjectFeePercent = _feePercent */\n      dup2\n      swap1\n      sstore\n      pop\n        /* \"contracts/FriendTechV2.sol\":4791:4907  function setSubjectFeePercent(uint256 _feePercent) public onlyOwner {... */\n      pop\n      jump\t// out\n        /* \"contracts/FriendTechV2.sol\":5665:6067  function getPrice(uint256 supply, uint256 amount) public pure returns (uint256) {... */\n    tag_87:\n        /* \"contracts/FriendTechV2.sol\":5736:5743  uint256 */\n      0x00\n        /* \"contracts/FriendTechV2.sol\":5755:5767  uint256 sum1 */\n      dup1\n        /* \"contracts/FriendTechV2.sol\":5780:5781  0 */\n      0x00\n        /* \"contracts/FriendTechV2.sol\":5770:5776  supply */\n      dup5\n        /* \"contracts/FriendTechV2.sol\":5770:5781  supply == 0 */\n      eq\n        /* \"contracts/FriendTechV2.sol\":5770:5838  supply == 0 ? 0 : (supply - 1) * supply * (2 * (supply - 1) + 1) / 6 */\n      tag_159\n      jumpi\n        /* \"contracts/FriendTechV2.sol\":5837:5838  6 */\n      0x06\n        /* \"contracts/FriendTechV2.sol\":5832:5833  1 */\n      0x01\n        /* \"contracts/FriendTechV2.sol\":5827:5828  1 */\n      dup1\n        /* \"contracts/FriendTechV2.sol\":5818:5824  supply */\n      dup7\n        /* \"contracts/FriendTechV2.sol\":5818:5828  supply - 1 */\n      tag_160\n      swap2\n      swap1\n      tag_148\n      jump\t// in\n    tag_160:\n        /* \"contracts/FriendTechV2.sol\":5813:5814  2 */\n      0x02\n        /* \"contracts/FriendTechV2.sol\":5813:5829  2 * (supply - 1) */\n      tag_161\n      swap2\n      swap1\n      tag_129\n      jump\t// in\n    tag_161:\n        /* \"contracts/FriendTechV2.sol\":5813:5833  2 * (supply - 1) + 1 */\n      tag_162\n      swap2\n      swap1\n      tag_135\n      jump\t// in\n    tag_162:\n        /* \"contracts/FriendTechV2.sol\":5803:5809  supply */\n      dup6\n        /* \"contracts/FriendTechV2.sol\":5798:5799  1 */\n      0x01\n        /* \"contracts/FriendTechV2.sol\":5789:5795  supply */\n      dup8\n        /* \"contracts/FriendTechV2.sol\":5789:5799  supply - 1 */\n      tag_163\n      swap2\n      swap1\n      tag_148\n      jump\t// in\n    tag_163:\n        /* \"contracts/FriendTechV2.sol\":5788:5809  (supply - 1) * supply */\n      tag_164\n      swap2\n      swap1\n      tag_129\n      jump\t// in\n    tag_164:\n        /* \"contracts/FriendTechV2.sol\":5788:5834  (supply - 1) * supply * (2 * (supply - 1) + 1) */\n      tag_165\n      swap2\n      swap1\n      tag_129\n      jump\t// in\n    tag_165:\n        /* \"contracts/FriendTechV2.sol\":5788:5838  (supply - 1) * supply * (2 * (supply - 1) + 1) / 6 */\n      tag_166\n      swap2\n      swap1\n      tag_131\n      jump\t// in\n    tag_166:\n        /* \"contracts/FriendTechV2.sol\":5770:5838  supply == 0 ? 0 : (supply - 1) * supply * (2 * (supply - 1) + 1) / 6 */\n      jump(tag_167)\n    tag_159:\n        /* \"contracts/FriendTechV2.sol\":5784:5785  0 */\n      0x00\n        /* \"contracts/FriendTechV2.sol\":5770:5838  supply == 0 ? 0 : (supply - 1) * supply * (2 * (supply - 1) + 1) / 6 */\n    tag_167:\n        /* \"contracts/FriendTechV2.sol\":5755:5838  uint256 sum1 = supply == 0 ? 0 : (supply - 1) * supply * (2 * (supply - 1) + 1) / 6 */\n      swap1\n      pop\n        /* \"contracts/FriendTechV2.sol\":5848:5860  uint256 sum2 */\n      0x00\n        /* \"contracts/FriendTechV2.sol\":5873:5874  0 */\n      dup1\n        /* \"contracts/FriendTechV2.sol\":5863:5869  supply */\n      dup6\n        /* \"contracts/FriendTechV2.sol\":5863:5874  supply == 0 */\n      eq\n        /* \"contracts/FriendTechV2.sol\":5863:5889  supply == 0 && amount == 1 */\n      dup1\n      iszero\n      tag_168\n      jumpi\n      pop\n        /* \"contracts/FriendTechV2.sol\":5888:5889  1 */\n      0x01\n        /* \"contracts/FriendTechV2.sol\":5878:5884  amount */\n      dup5\n        /* \"contracts/FriendTechV2.sol\":5878:5889  amount == 1 */\n      eq\n        /* \"contracts/FriendTechV2.sol\":5863:5889  supply == 0 && amount == 1 */\n    tag_168:\n        /* \"contracts/FriendTechV2.sol\":5863:5975  supply == 0 && amount == 1 ? 0 : (supply - 1 + amount) * (supply + amount) * (2 * (supply - 1 + amount) + 1) / 6 */\n      tag_169\n      jumpi\n        /* \"contracts/FriendTechV2.sol\":5974:5975  6 */\n      0x06\n        /* \"contracts/FriendTechV2.sol\":5969:5970  1 */\n      0x01\n        /* \"contracts/FriendTechV2.sol\":5959:5965  amount */\n      dup6\n        /* \"contracts/FriendTechV2.sol\":5955:5956  1 */\n      0x01\n        /* \"contracts/FriendTechV2.sol\":5946:5952  supply */\n      dup9\n        /* \"contracts/FriendTechV2.sol\":5946:5956  supply - 1 */\n      tag_170\n      swap2\n      swap1\n      tag_148\n      jump\t// in\n    tag_170:\n        /* \"contracts/FriendTechV2.sol\":5946:5965  supply - 1 + amount */\n      tag_171\n      swap2\n      swap1\n      tag_135\n      jump\t// in\n    tag_171:\n        /* \"contracts/FriendTechV2.sol\":5941:5942  2 */\n      0x02\n        /* \"contracts/FriendTechV2.sol\":5941:5966  2 * (supply - 1 + amount) */\n      tag_172\n      swap2\n      swap1\n      tag_129\n      jump\t// in\n    tag_172:\n        /* \"contracts/FriendTechV2.sol\":5941:5970  2 * (supply - 1 + amount) + 1 */\n      tag_173\n      swap2\n      swap1\n      tag_135\n      jump\t// in\n    tag_173:\n        /* \"contracts/FriendTechV2.sol\":5930:5936  amount */\n      dup6\n        /* \"contracts/FriendTechV2.sol\":5921:5927  supply */\n      dup8\n        /* \"contracts/FriendTechV2.sol\":5921:5936  supply + amount */\n      tag_174\n      swap2\n      swap1\n      tag_135\n      jump\t// in\n    tag_174:\n        /* \"contracts/FriendTechV2.sol\":5910:5916  amount */\n      dup7\n        /* \"contracts/FriendTechV2.sol\":5906:5907  1 */\n      0x01\n        /* \"contracts/FriendTechV2.sol\":5897:5903  supply */\n      dup10\n        /* \"contracts/FriendTechV2.sol\":5897:5907  supply - 1 */\n      tag_175\n      swap2\n      swap1\n      tag_148\n      jump\t// in\n    tag_175:\n        /* \"contracts/FriendTechV2.sol\":5897:5916  supply - 1 + amount */\n      tag_176\n      swap2\n      swap1\n      tag_135\n      jump\t// in\n    tag_176:\n        /* \"contracts/FriendTechV2.sol\":5896:5937  (supply - 1 + amount) * (supply + amount) */\n      tag_177\n      swap2\n      swap1\n      tag_129\n      jump\t// in\n    tag_177:\n        /* \"contracts/FriendTechV2.sol\":5896:5971  (supply - 1 + amount) * (supply + amount) * (2 * (supply - 1 + amount) + 1) */\n      tag_178\n      swap2\n      swap1\n      tag_129\n      jump\t// in\n    tag_178:\n        /* \"contracts/FriendTechV2.sol\":5896:5975  (supply - 1 + amount) * (supply + amount) * (2 * (supply - 1 + amount) + 1) / 6 */\n      tag_179\n      swap2\n      swap1\n      tag_131\n      jump\t// in\n    tag_179:\n        /* \"contracts/FriendTechV2.sol\":5863:5975  supply == 0 && amount == 1 ? 0 : (supply - 1 + amount) * (supply + amount) * (2 * (supply - 1 + amount) + 1) / 6 */\n      jump(tag_180)\n    tag_169:\n        /* \"contracts/FriendTechV2.sol\":5892:5893  0 */\n      0x00\n        /* \"contracts/FriendTechV2.sol\":5863:5975  supply == 0 && amount == 1 ? 0 : (supply - 1 + amount) * (supply + amount) * (2 * (supply - 1 + amount) + 1) / 6 */\n    tag_180:\n        /* \"contracts/FriendTechV2.sol\":5848:5975  uint256 sum2 = supply == 0 && amount == 1 ? 0 : (supply - 1 + amount) * (supply + amount) * (2 * (supply - 1 + amount) + 1) / 6 */\n      swap1\n      pop\n        /* \"contracts/FriendTechV2.sol\":5985:6002  uint256 summation */\n      0x00\n        /* \"contracts/FriendTechV2.sol\":6012:6016  sum1 */\n      dup3\n        /* \"contracts/FriendTechV2.sol\":6005:6009  sum2 */\n      dup3\n        /* \"contracts/FriendTechV2.sol\":6005:6016  sum2 - sum1 */\n      tag_181\n      swap2\n      swap1\n      tag_148\n      jump\t// in\n    tag_181:\n        /* \"contracts/FriendTechV2.sol\":5985:6016  uint256 summation = sum2 - sum1 */\n      swap1\n      pop\n        /* \"contracts/FriendTechV2.sol\":6055:6060  16000 */\n      0x3e80\n        /* \"contracts/FriendTechV2.sol\":6045:6052  1 ether */\n      0x0de0b6b3a7640000\n        /* \"contracts/FriendTechV2.sol\":6033:6042  summation */\n      dup3\n        /* \"contracts/FriendTechV2.sol\":6033:6052  summation * 1 ether */\n      tag_182\n      swap2\n      swap1\n      tag_129\n      jump\t// in\n    tag_182:\n        /* \"contracts/FriendTechV2.sol\":6033:6060  summation * 1 ether / 16000 */\n      tag_183\n      swap2\n      swap1\n      tag_131\n      jump\t// in\n    tag_183:\n        /* \"contracts/FriendTechV2.sol\":6026:6060  return summation * 1 ether / 16000 */\n      swap4\n      pop\n      pop\n      pop\n      pop\n        /* \"contracts/FriendTechV2.sol\":5665:6067  function getPrice(uint256 supply, uint256 amount) public pure returns (uint256) {... */\n      swap3\n      swap2\n      pop\n      pop\n      jump\t// out\n        /* \"contracts/FriendTechV2.sol\":2715:2816  function renounceOwnership() public virtual onlyOwner {... */\n    tag_90:\n        /* \"contracts/FriendTechV2.sol\":1978:1991  _checkOwner() */\n      tag_185\n        /* \"contracts/FriendTechV2.sol\":1978:1989  _checkOwner */\n      tag_139\n        /* \"contracts/FriendTechV2.sol\":1978:1991  _checkOwner() */\n      jump\t// in\n    tag_185:\n        /* \"contracts/FriendTechV2.sol\":2779:2809  _transferOwnership(address(0)) */\n      tag_187\n        /* \"contracts/FriendTechV2.sol\":2806:2807  0 */\n      0x00\n        /* \"contracts/FriendTechV2.sol\":2779:2797  _transferOwnership */\n      tag_188\n        /* \"contracts/FriendTechV2.sol\":2779:2809  _transferOwnership(address(0)) */\n      jump\t// in\n    tag_187:\n        /* \"contracts/FriendTechV2.sol\":2715:2816  function renounceOwnership() public virtual onlyOwner {... */\n      jump\t// out\n        /* \"contracts/FriendTechV2.sol\":4053:4074  address public partyC */\n    tag_92:\n      0x07\n      0x00\n      swap1\n      sload\n      swap1\n      0x0100\n      exp\n      swap1\n      div\n      0xffffffffffffffffffffffffffffffffffffffff\n      and\n      dup2\n      jump\t// out\n        /* \"contracts/FriendTechV2.sol\":7123:7941  function buySharesWithToken(address sharesSubject, uint256 amount) public {... */\n    tag_96:\n        /* \"contracts/FriendTechV2.sol\":7207:7221  uint256 supply */\n      0x00\n        /* \"contracts/FriendTechV2.sol\":7224:7236  sharesSupply */\n      0x0c\n        /* \"contracts/FriendTechV2.sol\":7224:7251  sharesSupply[sharesSubject] */\n      0x00\n        /* \"contracts/FriendTechV2.sol\":7237:7250  sharesSubject */\n      dup5\n        /* \"contracts/FriendTechV2.sol\":7224:7251  sharesSupply[sharesSubject] */\n      0xffffffffffffffffffffffffffffffffffffffff\n      and\n      0xffffffffffffffffffffffffffffffffffffffff\n      and\n      dup2\n      mstore\n      0x20\n      add\n      swap1\n      dup2\n      mstore\n      0x20\n      add\n      0x00\n      keccak256\n      sload\n        /* \"contracts/FriendTechV2.sol\":7207:7251  uint256 supply = sharesSupply[sharesSubject] */\n      swap1\n      pop\n        /* \"contracts/FriendTechV2.sol\":7278:7279  0 */\n      0x00\n        /* \"contracts/FriendTechV2.sol\":7269:7275  supply */\n      dup2\n        /* \"contracts/FriendTechV2.sol\":7269:7279  supply > 0 */\n      gt\n        /* \"contracts/FriendTechV2.sol\":7269:7310  supply > 0 || sharesSubject == msg.sender */\n      dup1\n      tag_190\n      jumpi\n      pop\n        /* \"contracts/FriendTechV2.sol\":7300:7310  msg.sender */\n      caller\n        /* \"contracts/FriendTechV2.sol\":7283:7310  sharesSubject == msg.sender */\n      0xffffffffffffffffffffffffffffffffffffffff\n      and\n        /* \"contracts/FriendTechV2.sol\":7283:7296  sharesSubject */\n      dup4\n        /* \"contracts/FriendTechV2.sol\":7283:7310  sharesSubject == msg.sender */\n      0xffffffffffffffffffffffffffffffffffffffff\n      and\n      eq\n        /* \"contracts/FriendTechV2.sol\":7269:7310  supply > 0 || sharesSubject == msg.sender */\n    tag_190:\n        /* \"contracts/FriendTechV2.sol\":7261:7363  require(supply > 0 || sharesSubject == msg.sender, \"Only the shares' subject can buy the first share\") */\n      tag_191\n      jumpi\n      mload(0x40)\n      0x08c379a000000000000000000000000000000000000000000000000000000000\n      dup2\n      mstore\n      0x04\n      add\n      tag_192\n      swap1\n      tag_193\n      jump\t// in\n    tag_192:\n      mload(0x40)\n      dup1\n      swap2\n      sub\n      swap1\n      revert\n    tag_191:\n        /* \"contracts/FriendTechV2.sol\":7381:7394  uint256 price */\n      0x00\n        /* \"contracts/FriendTechV2.sol\":7397:7421  getPrice(supply, amount) */\n      tag_194\n        /* \"contracts/FriendTechV2.sol\":7406:7412  supply */\n      dup3\n        /* \"contracts/FriendTechV2.sol\":7414:7420  amount */\n      dup5\n        /* \"contracts/FriendTechV2.sol\":7397:7405  getPrice */\n      tag_87\n        /* \"contracts/FriendTechV2.sol\":7397:7421  getPrice(supply, amount) */\n      jump\t// in\n    tag_194:\n        /* \"contracts/FriendTechV2.sol\":7381:7421  uint256 price = getPrice(supply, amount) */\n      swap1\n      pop\n        /* \"contracts/FriendTechV2.sol\":7431:7450  uint256 protocolFee */\n      0x00\n        /* \"contracts/FriendTechV2.sol\":7484:7491  1 ether */\n      0x0de0b6b3a7640000\n        /* \"contracts/FriendTechV2.sol\":7462:7480  protocolFeePercent */\n      sload(0x02)\n        /* \"contracts/FriendTechV2.sol\":7454:7459  price */\n      dup4\n        /* \"contracts/FriendTechV2.sol\":7454:7480  price * protocolFeePercent */\n      tag_195\n      swap2\n      swap1\n      tag_129\n      jump\t// in\n    tag_195:\n        /* \"contracts/FriendTechV2.sol\":7453:7491  (price * protocolFeePercent) / 1 ether */\n      tag_196\n      swap2\n      swap1\n      tag_131\n      jump\t// in\n    tag_196:\n        /* \"contracts/FriendTechV2.sol\":7431:7491  uint256 protocolFee = (price * protocolFeePercent) / 1 ether */\n      swap1\n      pop\n        /* \"contracts/FriendTechV2.sol\":7501:7519  uint256 subjectFee */\n      0x00\n        /* \"contracts/FriendTechV2.sol\":7552:7559  1 ether */\n      0x0de0b6b3a7640000\n        /* \"contracts/FriendTechV2.sol\":7531:7548  subjectFeePercent */\n      sload(0x03)\n        /* \"contracts/FriendTechV2.sol\":7523:7528  price */\n      dup5\n        /* \"contracts/FriendTechV2.sol\":7523:7548  price * subjectFeePercent */\n      tag_197\n      swap2\n      swap1\n      tag_129\n      jump\t// in\n    tag_197:\n        /* \"contracts/FriendTechV2.sol\":7522:7559  (price * subjectFeePercent) / 1 ether */\n      tag_198\n      swap2\n      swap1\n      tag_131\n      jump\t// in\n    tag_198:\n        /* \"contracts/FriendTechV2.sol\":7501:7559  uint256 subjectFee = (price * subjectFeePercent) / 1 ether */\n      swap1\n      pop\n        /* \"contracts/FriendTechV2.sol\":7577:7582  token */\n      0x04\n      0x00\n      swap1\n      sload\n      swap1\n      0x0100\n      exp\n      swap1\n      div\n      0xffffffffffffffffffffffffffffffffffffffff\n      and\n        /* \"contracts/FriendTechV2.sol\":7570:7596  IERC20(token).transferFrom */\n      0xffffffffffffffffffffffffffffffffffffffff\n      and\n      0x23b872dd\n        /* \"contracts/FriendTechV2.sol\":7597:7607  msg.sender */\n      caller\n        /* \"contracts/FriendTechV2.sol\":7617:7621  this */\n      address\n        /* \"contracts/FriendTechV2.sol\":7646:7656  subjectFee */\n      dup5\n        /* \"contracts/FriendTechV2.sol\":7632:7643  protocolFee */\n      dup7\n        /* \"contracts/FriendTechV2.sol\":7624:7629  price */\n      dup9\n        /* \"contracts/FriendTechV2.sol\":7624:7643  price + protocolFee */\n      tag_199\n      swap2\n      swap1\n      tag_135\n      jump\t// in\n    tag_199:\n        /* \"contracts/FriendTechV2.sol\":7624:7656  price + protocolFee + subjectFee */\n      tag_200\n      swap2\n      swap1\n      tag_135\n      jump\t// in\n    tag_200:\n        /* \"contracts/FriendTechV2.sol\":7570:7657  IERC20(token).transferFrom(msg.sender, address(this), price + protocolFee + subjectFee) */\n      mload(0x40)\n      dup5\n      0xffffffff\n      and\n      0xe0\n      shl\n      dup2\n      mstore\n      0x04\n      add\n      tag_201\n      swap4\n      swap3\n      swap2\n      swap1\n      tag_202\n      jump\t// in\n    tag_201:\n      0x20\n      mload(0x40)\n      dup1\n      dup4\n      sub\n      dup2\n      0x00\n      dup8\n      gas\n      call\n      iszero\n      dup1\n      iszero\n      tag_204\n      jumpi\n      returndatasize\n      0x00\n      dup1\n      returndatacopy\n      revert(0x00, returndatasize)\n    tag_204:\n      pop\n      pop\n      pop\n      pop\n      mload(0x40)\n      returndatasize\n      not(0x1f)\n      0x1f\n      dup3\n      add\n      and\n      dup3\n      add\n      dup1\n      0x40\n      mstore\n      pop\n      dup2\n      add\n      swap1\n      tag_205\n      swap2\n      swap1\n      tag_206\n      jump\t// in\n    tag_205:\n      pop\n        /* \"contracts/FriendTechV2.sol\":7712:7718  amount */\n      dup5\n        /* \"contracts/FriendTechV2.sol\":7668:7681  sharesBalance */\n      0x0b\n        /* \"contracts/FriendTechV2.sol\":7668:7696  sharesBalance[sharesSubject] */\n      0x00\n        /* \"contracts/FriendTechV2.sol\":7682:7695  sharesSubject */\n      dup9\n        /* \"contracts/FriendTechV2.sol\":7668:7696  sharesBalance[sharesSubject] */\n      0xffffffffffffffffffffffffffffffffffffffff\n      and\n      0xffffffffffffffffffffffffffffffffffffffff\n      and\n      dup2\n      mstore\n      0x20\n      add\n      swap1\n      dup2\n      mstore\n      0x20\n      add\n      0x00\n      keccak256\n        /* \"contracts/FriendTechV2.sol\":7668:7708  sharesBalance[sharesSubject][msg.sender] */\n      0x00\n        /* \"contracts/FriendTechV2.sol\":7697:7707  msg.sender */\n      caller\n        /* \"contracts/FriendTechV2.sol\":7668:7708  sharesBalance[sharesSubject][msg.sender] */\n      0xffffffffffffffffffffffffffffffffffffffff\n      and\n      0xffffffffffffffffffffffffffffffffffffffff\n      and\n      dup2\n      mstore\n      0x20\n      add\n      swap1\n      dup2\n      mstore\n      0x20\n      add\n      0x00\n      keccak256\n      0x00\n        /* \"contracts/FriendTechV2.sol\":7668:7718  sharesBalance[sharesSubject][msg.sender] += amount */\n      dup3\n      dup3\n      sload\n      tag_207\n      swap2\n      swap1\n      tag_135\n      jump\t// in\n    tag_207:\n      swap3\n      pop\n      pop\n      dup2\n      swap1\n      sstore\n      pop\n        /* \"contracts/FriendTechV2.sol\":7767:7773  amount */\n      dup5\n        /* \"contracts/FriendTechV2.sol\":7758:7764  supply */\n      dup5\n        /* \"contracts/FriendTechV2.sol\":7758:7773  supply + amount */\n      tag_208\n      swap2\n      swap1\n      tag_135\n      jump\t// in\n    tag_208:\n        /* \"contracts/FriendTechV2.sol\":7728:7740  sharesSupply */\n      0x0c\n        /* \"contracts/FriendTechV2.sol\":7728:7755  sharesSupply[sharesSubject] */\n      0x00\n        /* \"contracts/FriendTechV2.sol\":7741:7754  sharesSubject */\n      dup9\n        /* \"contracts/FriendTechV2.sol\":7728:7755  sharesSupply[sharesSubject] */\n      0xffffffffffffffffffffffffffffffffffffffff\n      and\n      0xffffffffffffffffffffffffffffffffffffffff\n      and\n      dup2\n      mstore\n      0x20\n      add\n      swap1\n      dup2\n      mstore\n      0x20\n      add\n      0x00\n      keccak256\n        /* \"contracts/FriendTechV2.sol\":7728:7773  sharesSupply[sharesSubject] = supply + amount */\n      dup2\n      swap1\n      sstore\n      pop\n        /* \"contracts/FriendTechV2.sol\":7789:7884  Trade(msg.sender, sharesSubject, true, amount, price, protocolFee, subjectFee, supply + amount) */\n      0x2c76e7a47fd53e2854856ac3f0a5f3ee40d15cfaa82266357ea9779c486ab9c3\n        /* \"contracts/FriendTechV2.sol\":7795:7805  msg.sender */\n      caller\n        /* \"contracts/FriendTechV2.sol\":7807:7820  sharesSubject */\n      dup8\n        /* \"contracts/FriendTechV2.sol\":7822:7826  true */\n      0x01\n        /* \"contracts/FriendTechV2.sol\":7828:7834  amount */\n      dup9\n        /* \"contracts/FriendTechV2.sol\":7836:7841  price */\n      dup8\n        /* \"contracts/FriendTechV2.sol\":7843:7854  protocolFee */\n      dup8\n        /* \"contracts/FriendTechV2.sol\":7856:7866  subjectFee */\n      dup8\n        /* \"contracts/FriendTechV2.sol\":7877:7883  amount */\n      dup13\n        /* \"contracts/FriendTechV2.sol\":7868:7874  supply */\n      dup13\n        /* \"contracts/FriendTechV2.sol\":7868:7883  supply + amount */\n      tag_209\n      swap2\n      swap1\n      tag_135\n      jump\t// in\n    tag_209:\n        /* \"contracts/FriendTechV2.sol\":7789:7884  Trade(msg.sender, sharesSubject, true, amount, price, protocolFee, subjectFee, supply + amount) */\n      mload(0x40)\n      tag_210\n      swap9\n      swap8\n      swap7\n      swap6\n      swap5\n      swap4\n      swap3\n      swap2\n      swap1\n      tag_211\n      jump\t// in\n    tag_210:\n      mload(0x40)\n      dup1\n      swap2\n      sub\n      swap1\n      log1\n        /* \"contracts/FriendTechV2.sol\":7895:7934  distributeFees(protocolFee, subjectFee) */\n      tag_212\n        /* \"contracts/FriendTechV2.sol\":7910:7921  protocolFee */\n      dup3\n        /* \"contracts/FriendTechV2.sol\":7923:7933  subjectFee */\n      dup3\n        /* \"contracts/FriendTechV2.sol\":7895:7909  distributeFees */\n      tag_213\n        /* \"contracts/FriendTechV2.sol\":7895:7934  distributeFees(protocolFee, subjectFee) */\n      jump\t// in\n    tag_212:\n        /* \"contracts/FriendTechV2.sol\":7197:7941  {... */\n      pop\n      pop\n      pop\n      pop\n        /* \"contracts/FriendTechV2.sol\":7123:7941  function buySharesWithToken(address sharesSubject, uint256 amount) public {... */\n      pop\n      pop\n      jump\t// out\n        /* \"contracts/FriendTechV2.sol\":2085:2170  function owner() public view virtual returns (address) {... */\n    tag_98:\n        /* \"contracts/FriendTechV2.sol\":2131:2138  address */\n      0x00\n        /* \"contracts/FriendTechV2.sol\":2157:2163  _owner */\n      dup1\n      0x00\n      swap1\n      sload\n      swap1\n      0x0100\n      exp\n      swap1\n      div\n      0xffffffffffffffffffffffffffffffffffffffff\n      and\n        /* \"contracts/FriendTechV2.sol\":2150:2163  return _owner */\n      swap1\n      pop\n        /* \"contracts/FriendTechV2.sol\":2085:2170  function owner() public view virtual returns (address) {... */\n      swap1\n      jump\t// out\n        /* \"contracts/FriendTechV2.sol\":4122:4157  uint256 public partyBFeePercent = 4 */\n    tag_101:\n      sload(0x09)\n      dup2\n      jump\t// out\n        /* \"contracts/FriendTechV2.sol\":6238:6407  function getSellPrice(address sharesSubject, uint256 amount) public view returns (uint256) {... */\n    tag_105:\n        /* \"contracts/FriendTechV2.sol\":6320:6327  uint256 */\n      0x00\n        /* \"contracts/FriendTechV2.sol\":6346:6400  getPrice(sharesSupply[sharesSubject] - amount, amount) */\n      tag_216\n        /* \"contracts/FriendTechV2.sol\":6385:6391  amount */\n      dup3\n        /* \"contracts/FriendTechV2.sol\":6355:6367  sharesSupply */\n      0x0c\n        /* \"contracts/FriendTechV2.sol\":6355:6382  sharesSupply[sharesSubject] */\n      0x00\n        /* \"contracts/FriendTechV2.sol\":6368:6381  sharesSubject */\n      dup7\n        /* \"contracts/FriendTechV2.sol\":6355:6382  sharesSupply[sharesSubject] */\n      0xffffffffffffffffffffffffffffffffffffffff\n      and\n      0xffffffffffffffffffffffffffffffffffffffff\n      and\n      dup2\n      mstore\n      0x20\n      add\n      swap1\n      dup2\n      mstore\n      0x20\n      add\n      0x00\n      keccak256\n      sload\n        /* \"contracts/FriendTechV2.sol\":6355:6391  sharesSupply[sharesSubject] - amount */\n      tag_217\n      swap2\n      swap1\n      tag_148\n      jump\t// in\n    tag_217:\n        /* \"contracts/FriendTechV2.sol\":6393:6399  amount */\n      dup4\n        /* \"contracts/FriendTechV2.sol\":6346:6354  getPrice */\n      tag_87\n        /* \"contracts/FriendTechV2.sol\":6346:6400  getPrice(sharesSupply[sharesSubject] - amount, amount) */\n      jump\t// in\n    tag_216:\n        /* \"contracts/FriendTechV2.sol\":6339:6400  return getPrice(sharesSupply[sharesSubject] - amount, amount) */\n      swap1\n      pop\n        /* \"contracts/FriendTechV2.sol\":6238:6407  function getSellPrice(address sharesSubject, uint256 amount) public view returns (uint256) {... */\n      swap3\n      swap2\n      pop\n      pop\n      jump\t// out\n        /* \"contracts/FriendTechV2.sol\":4668:4786  function setProtocolFeePercent(uint256 _feePercent) public onlyOwner {... */\n    tag_109:\n        /* \"contracts/FriendTechV2.sol\":1978:1991  _checkOwner() */\n      tag_219\n        /* \"contracts/FriendTechV2.sol\":1978:1989  _checkOwner */\n      tag_139\n        /* \"contracts/FriendTechV2.sol\":1978:1991  _checkOwner() */\n      jump\t// in\n    tag_219:\n        /* \"contracts/FriendTechV2.sol\":4768:4779  _feePercent */\n      dup1\n        /* \"contracts/FriendTechV2.sol\":4747:4765  protocolFeePercent */\n      0x02\n        /* \"contracts/FriendTechV2.sol\":4747:4779  protocolFeePercent = _feePercent */\n      dup2\n      swap1\n      sstore\n      pop\n        /* \"contracts/FriendTechV2.sol\":4668:4786  function setProtocolFeePercent(uint256 _feePercent) public onlyOwner {... */\n      pop\n      jump\t// out\n        /* \"contracts/FriendTechV2.sol\":7947:8794  function sellSharesForToken(address sharesSubject, uint256 amount) public {... */\n    tag_112:\n        /* \"contracts/FriendTechV2.sol\":8031:8045  uint256 supply */\n      0x00\n        /* \"contracts/FriendTechV2.sol\":8048:8060  sharesSupply */\n      0x0c\n        /* \"contracts/FriendTechV2.sol\":8048:8075  sharesSupply[sharesSubject] */\n      0x00\n        /* \"contracts/FriendTechV2.sol\":8061:8074  sharesSubject */\n      dup5\n        /* \"contracts/FriendTechV2.sol\":8048:8075  sharesSupply[sharesSubject] */\n      0xffffffffffffffffffffffffffffffffffffffff\n      and\n      0xffffffffffffffffffffffffffffffffffffffff\n      and\n      dup2\n      mstore\n      0x20\n      add\n      swap1\n      dup2\n      mstore\n      0x20\n      add\n      0x00\n      keccak256\n      sload\n        /* \"contracts/FriendTechV2.sol\":8031:8075  uint256 supply = sharesSupply[sharesSubject] */\n      swap1\n      pop\n        /* \"contracts/FriendTechV2.sol\":8102:8108  amount */\n      dup2\n        /* \"contracts/FriendTechV2.sol\":8093:8099  supply */\n      dup2\n        /* \"contracts/FriendTechV2.sol\":8093:8108  supply > amount */\n      gt\n        /* \"contracts/FriendTechV2.sol\":8085:8139  require(supply > amount, \"Cannot sell the last share\") */\n      tag_222\n      jumpi\n      mload(0x40)\n      0x08c379a000000000000000000000000000000000000000000000000000000000\n      dup2\n      mstore\n      0x04\n      add\n      tag_223\n      swap1\n      tag_224\n      jump\t// in\n    tag_223:\n      mload(0x40)\n      dup1\n      swap2\n      sub\n      swap1\n      revert\n    tag_222:\n        /* \"contracts/FriendTechV2.sol\":8150:8163  uint256 price */\n      0x00\n        /* \"contracts/FriendTechV2.sol\":8166:8199  getPrice(supply - amount, amount) */\n      tag_225\n        /* \"contracts/FriendTechV2.sol\":8184:8190  amount */\n      dup4\n        /* \"contracts/FriendTechV2.sol\":8175:8181  supply */\n      dup4\n        /* \"contracts/FriendTechV2.sol\":8175:8190  supply - amount */\n      tag_226\n      swap2\n      swap1\n      tag_148\n      jump\t// in\n    tag_226:\n        /* \"contracts/FriendTechV2.sol\":8192:8198  amount */\n      dup5\n        /* \"contracts/FriendTechV2.sol\":8166:8174  getPrice */\n      tag_87\n        /* \"contracts/FriendTechV2.sol\":8166:8199  getPrice(supply - amount, amount) */\n      jump\t// in\n    tag_225:\n        /* \"contracts/FriendTechV2.sol\":8150:8199  uint256 price = getPrice(supply - amount, amount) */\n      swap1\n      pop\n        /* \"contracts/FriendTechV2.sol\":8209:8228  uint256 protocolFee */\n      0x00\n        /* \"contracts/FriendTechV2.sol\":8262:8269  1 ether */\n      0x0de0b6b3a7640000\n        /* \"contracts/FriendTechV2.sol\":8240:8258  protocolFeePercent */\n      sload(0x02)\n        /* \"contracts/FriendTechV2.sol\":8232:8237  price */\n      dup4\n        /* \"contracts/FriendTechV2.sol\":8232:8258  price * protocolFeePercent */\n      tag_227\n      swap2\n      swap1\n      tag_129\n      jump\t// in\n    tag_227:\n        /* \"contracts/FriendTechV2.sol\":8231:8269  (price * protocolFeePercent) / 1 ether */\n      tag_228\n      swap2\n      swap1\n      tag_131\n      jump\t// in\n    tag_228:\n        /* \"contracts/FriendTechV2.sol\":8209:8269  uint256 protocolFee = (price * protocolFeePercent) / 1 ether */\n      swap1\n      pop\n        /* \"contracts/FriendTechV2.sol\":8279:8297  uint256 subjectFee */\n      0x00\n        /* \"contracts/FriendTechV2.sol\":8330:8337  1 ether */\n      0x0de0b6b3a7640000\n        /* \"contracts/FriendTechV2.sol\":8309:8326  subjectFeePercent */\n      sload(0x03)\n        /* \"contracts/FriendTechV2.sol\":8301:8306  price */\n      dup5\n        /* \"contracts/FriendTechV2.sol\":8301:8326  price * subjectFeePercent */\n      tag_229\n      swap2\n      swap1\n      tag_129\n      jump\t// in\n    tag_229:\n        /* \"contracts/FriendTechV2.sol\":8300:8337  (price * subjectFeePercent) / 1 ether */\n      tag_230\n      swap2\n      swap1\n      tag_131\n      jump\t// in\n    tag_230:\n        /* \"contracts/FriendTechV2.sol\":8279:8337  uint256 subjectFee = (price * subjectFeePercent) / 1 ether */\n      swap1\n      pop\n        /* \"contracts/FriendTechV2.sol\":8400:8406  amount */\n      dup5\n        /* \"contracts/FriendTechV2.sol\":8356:8369  sharesBalance */\n      0x0b\n        /* \"contracts/FriendTechV2.sol\":8356:8384  sharesBalance[sharesSubject] */\n      0x00\n        /* \"contracts/FriendTechV2.sol\":8370:8383  sharesSubject */\n      dup9\n        /* \"contracts/FriendTechV2.sol\":8356:8384  sharesBalance[sharesSubject] */\n      0xffffffffffffffffffffffffffffffffffffffff\n      and\n      0xffffffffffffffffffffffffffffffffffffffff\n      and\n      dup2\n      mstore\n      0x20\n      add\n      swap1\n      dup2\n      mstore\n      0x20\n      add\n      0x00\n      keccak256\n        /* \"contracts/FriendTechV2.sol\":8356:8396  sharesBalance[sharesSubject][msg.sender] */\n      0x00\n        /* \"contracts/FriendTechV2.sol\":8385:8395  msg.sender */\n      caller\n        /* \"contracts/FriendTechV2.sol\":8356:8396  sharesBalance[sharesSubject][msg.sender] */\n      0xffffffffffffffffffffffffffffffffffffffff\n      and\n      0xffffffffffffffffffffffffffffffffffffffff\n      and\n      dup2\n      mstore\n      0x20\n      add\n      swap1\n      dup2\n      mstore\n      0x20\n      add\n      0x00\n      keccak256\n      sload\n        /* \"contracts/FriendTechV2.sol\":8356:8406  sharesBalance[sharesSubject][msg.sender] >= amount */\n      lt\n      iszero\n        /* \"contracts/FriendTechV2.sol\":8348:8430  require(sharesBalance[sharesSubject][msg.sender] >= amount, \"Insufficient shares\") */\n      tag_231\n      jumpi\n      mload(0x40)\n      0x08c379a000000000000000000000000000000000000000000000000000000000\n      dup2\n      mstore\n      0x04\n      add\n      tag_232\n      swap1\n      tag_233\n      jump\t// in\n    tag_232:\n      mload(0x40)\n      dup1\n      swap2\n      sub\n      swap1\n      revert\n    tag_231:\n        /* \"contracts/FriendTechV2.sol\":8485:8491  amount */\n      dup5\n        /* \"contracts/FriendTechV2.sol\":8441:8454  sharesBalance */\n      0x0b\n        /* \"contracts/FriendTechV2.sol\":8441:8469  sharesBalance[sharesSubject] */\n      0x00\n        /* \"contracts/FriendTechV2.sol\":8455:8468  sharesSubject */\n      dup9\n        /* \"contracts/FriendTechV2.sol\":8441:8469  sharesBalance[sharesSubject] */\n      0xffffffffffffffffffffffffffffffffffffffff\n      and\n      0xffffffffffffffffffffffffffffffffffffffff\n      and\n      dup2\n      mstore\n      0x20\n      add\n      swap1\n      dup2\n      mstore\n      0x20\n      add\n      0x00\n      keccak256\n        /* \"contracts/FriendTechV2.sol\":8441:8481  sharesBalance[sharesSubject][msg.sender] */\n      0x00\n        /* \"contracts/FriendTechV2.sol\":8470:8480  msg.sender */\n      caller\n        /* \"contracts/FriendTechV2.sol\":8441:8481  sharesBalance[sharesSubject][msg.sender] */\n      0xffffffffffffffffffffffffffffffffffffffff\n      and\n      0xffffffffffffffffffffffffffffffffffffffff\n      and\n      dup2\n      mstore\n      0x20\n      add\n      swap1\n      dup2\n      mstore\n      0x20\n      add\n      0x00\n      keccak256\n      0x00\n        /* \"contracts/FriendTechV2.sol\":8441:8491  sharesBalance[sharesSubject][msg.sender] -= amount */\n      dup3\n      dup3\n      sload\n      tag_234\n      swap2\n      swap1\n      tag_148\n      jump\t// in\n    tag_234:\n      swap3\n      pop\n      pop\n      dup2\n      swap1\n      sstore\n      pop\n        /* \"contracts/FriendTechV2.sol\":8540:8546  amount */\n      dup5\n        /* \"contracts/FriendTechV2.sol\":8531:8537  supply */\n      dup5\n        /* \"contracts/FriendTechV2.sol\":8531:8546  supply - amount */\n      tag_235\n      swap2\n      swap1\n      tag_148\n      jump\t// in\n    tag_235:\n        /* \"contracts/FriendTechV2.sol\":8501:8513  sharesSupply */\n      0x0c\n        /* \"contracts/FriendTechV2.sol\":8501:8528  sharesSupply[sharesSubject] */\n      0x00\n        /* \"contracts/FriendTechV2.sol\":8514:8527  sharesSubject */\n      dup9\n        /* \"contracts/FriendTechV2.sol\":8501:8528  sharesSupply[sharesSubject] */\n      0xffffffffffffffffffffffffffffffffffffffff\n      and\n      0xffffffffffffffffffffffffffffffffffffffff\n      and\n      dup2\n      mstore\n      0x20\n      add\n      swap1\n      dup2\n      mstore\n      0x20\n      add\n      0x00\n      keccak256\n        /* \"contracts/FriendTechV2.sol\":8501:8546  sharesSupply[sharesSubject] = supply - amount */\n      dup2\n      swap1\n      sstore\n      pop\n        /* \"contracts/FriendTechV2.sol\":8564:8569  token */\n      0x04\n      0x00\n      swap1\n      sload\n      swap1\n      0x0100\n      exp\n      swap1\n      div\n      0xffffffffffffffffffffffffffffffffffffffff\n      and\n        /* \"contracts/FriendTechV2.sol\":8557:8579  IERC20(token).transfer */\n      0xffffffffffffffffffffffffffffffffffffffff\n      and\n      0xa9059cbb\n        /* \"contracts/FriendTechV2.sol\":8580:8590  msg.sender */\n      caller\n        /* \"contracts/FriendTechV2.sol\":8614:8624  subjectFee */\n      dup4\n        /* \"contracts/FriendTechV2.sol\":8600:8611  protocolFee */\n      dup6\n        /* \"contracts/FriendTechV2.sol\":8592:8597  price */\n      dup8\n        /* \"contracts/FriendTechV2.sol\":8592:8611  price - protocolFee */\n      tag_236\n      swap2\n      swap1\n      tag_148\n      jump\t// in\n    tag_236:\n        /* \"contracts/FriendTechV2.sol\":8592:8624  price - protocolFee - subjectFee */\n      tag_237\n      swap2\n      swap1\n      tag_148\n      jump\t// in\n    tag_237:\n        /* \"contracts/FriendTechV2.sol\":8557:8625  IERC20(token).transfer(msg.sender, price - protocolFee - subjectFee) */\n      mload(0x40)\n      dup4\n      0xffffffff\n      and\n      0xe0\n      shl\n      dup2\n      mstore\n      0x04\n      add\n      tag_238\n      swap3\n      swap2\n      swap1\n      tag_239\n      jump\t// in\n    tag_238:\n      0x20\n      mload(0x40)\n      dup1\n      dup4\n      sub\n      dup2\n      0x00\n      dup8\n      gas\n      call\n      iszero\n      dup1\n      iszero\n      tag_241\n      jumpi\n      returndatasize\n      0x00\n      dup1\n      returndatacopy\n      revert(0x00, returndatasize)\n    tag_241:\n      pop\n      pop\n      pop\n      pop\n      mload(0x40)\n      returndatasize\n      not(0x1f)\n      0x1f\n      dup3\n      add\n      and\n      dup3\n      add\n      dup1\n      0x40\n      mstore\n      pop\n      dup2\n      add\n      swap1\n      tag_242\n      swap2\n      swap1\n      tag_206\n      jump\t// in\n    tag_242:\n      pop\n        /* \"contracts/FriendTechV2.sol\":8641:8737  Trade(msg.sender, sharesSubject, false, amount, price, protocolFee, subjectFee, supply - amount) */\n      0x2c76e7a47fd53e2854856ac3f0a5f3ee40d15cfaa82266357ea9779c486ab9c3\n        /* \"contracts/FriendTechV2.sol\":8647:8657  msg.sender */\n      caller\n        /* \"contracts/FriendTechV2.sol\":8659:8672  sharesSubject */\n      dup8\n        /* \"contracts/FriendTechV2.sol\":8674:8679  false */\n      0x00\n        /* \"contracts/FriendTechV2.sol\":8681:8687  amount */\n      dup9\n        /* \"contracts/FriendTechV2.sol\":8689:8694  price */\n      dup8\n        /* \"contracts/FriendTechV2.sol\":8696:8707  protocolFee */\n      dup8\n        /* \"contracts/FriendTechV2.sol\":8709:8719  subjectFee */\n      dup8\n        /* \"contracts/FriendTechV2.sol\":8730:8736  amount */\n      dup13\n        /* \"contracts/FriendTechV2.sol\":8721:8727  supply */\n      dup13\n        /* \"contracts/FriendTechV2.sol\":8721:8736  supply - amount */\n      tag_243\n      swap2\n      swap1\n      tag_148\n      jump\t// in\n    tag_243:\n        /* \"contracts/FriendTechV2.sol\":8641:8737  Trade(msg.sender, sharesSubject, false, amount, price, protocolFee, subjectFee, supply - amount) */\n      mload(0x40)\n      tag_244\n      swap9\n      swap8\n      swap7\n      swap6\n      swap5\n      swap4\n      swap3\n      swap2\n      swap1\n      tag_211\n      jump\t// in\n    tag_244:\n      mload(0x40)\n      dup1\n      swap2\n      sub\n      swap1\n      log1\n        /* \"contracts/FriendTechV2.sol\":8748:8787  distributeFees(protocolFee, subjectFee) */\n      tag_245\n        /* \"contracts/FriendTechV2.sol\":8763:8774  protocolFee */\n      dup3\n        /* \"contracts/FriendTechV2.sol\":8776:8786  subjectFee */\n      dup3\n        /* \"contracts/FriendTechV2.sol\":8748:8762  distributeFees */\n      tag_213\n        /* \"contracts/FriendTechV2.sol\":8748:8787  distributeFees(protocolFee, subjectFee) */\n      jump\t// in\n    tag_245:\n        /* \"contracts/FriendTechV2.sol\":8021:8794  {... */\n      pop\n      pop\n      pop\n      pop\n        /* \"contracts/FriendTechV2.sol\":7947:8794  function sellSharesForToken(address sharesSubject, uint256 amount) public {... */\n      pop\n      pop\n      jump\t// out\n        /* \"contracts/FriendTechV2.sol\":3870:3903  uint256 public protocolFeePercent */\n    tag_114:\n      sload(0x02)\n      dup2\n      jump\t// out\n        /* \"contracts/FriendTechV2.sol\":2965:3163  function transferOwnership(address newOwner) public virtual onlyOwner {... */\n    tag_118:\n        /* \"contracts/FriendTechV2.sol\":1978:1991  _checkOwner() */\n      tag_247\n        /* \"contracts/FriendTechV2.sol\":1978:1989  _checkOwner */\n      tag_139\n        /* \"contracts/FriendTechV2.sol\":1978:1991  _checkOwner() */\n      jump\t// in\n    tag_247:\n        /* \"contracts/FriendTechV2.sol\":3073:3074  0 */\n      0x00\n        /* \"contracts/FriendTechV2.sol\":3053:3075  newOwner != address(0) */\n      0xffffffffffffffffffffffffffffffffffffffff\n      and\n        /* \"contracts/FriendTechV2.sol\":3053:3061  newOwner */\n      dup2\n        /* \"contracts/FriendTechV2.sol\":3053:3075  newOwner != address(0) */\n      0xffffffffffffffffffffffffffffffffffffffff\n      and\n      sub\n        /* \"contracts/FriendTechV2.sol\":3045:3118  require(newOwner != address(0), \"Ownable: new owner is the zero address\") */\n      tag_249\n      jumpi\n      mload(0x40)\n      0x08c379a000000000000000000000000000000000000000000000000000000000\n      dup2\n      mstore\n      0x04\n      add\n      tag_250\n      swap1\n      tag_251\n      jump\t// in\n    tag_250:\n      mload(0x40)\n      dup1\n      swap2\n      sub\n      swap1\n      revert\n    tag_249:\n        /* \"contracts/FriendTechV2.sol\":3128:3156  _transferOwnership(newOwner) */\n      tag_252\n        /* \"contracts/FriendTechV2.sol\":3147:3155  newOwner */\n      dup2\n        /* \"contracts/FriendTechV2.sol\":3128:3146  _transferOwnership */\n      tag_188\n        /* \"contracts/FriendTechV2.sol\":3128:3156  _transferOwnership(newOwner) */\n      jump\t// in\n    tag_252:\n        /* \"contracts/FriendTechV2.sol\":2965:3163  function transferOwnership(address newOwner) public virtual onlyOwner {... */\n      pop\n      jump\t// out\n        /* \"contracts/FriendTechV2.sol\":4527:4574  mapping(address => uint256) public sharesSupply */\n    tag_121:\n      mstore(0x20, 0x0c)\n      dup1\n      0x00\n      mstore\n      keccak256(0x00, 0x40)\n      0x00\n      swap2\n      pop\n      swap1\n      pop\n      sload\n      dup2\n      jump\t// out\n        /* \"contracts/FriendTechV2.sol\":3948:3968  address public token */\n    tag_124:\n      0x04\n      0x00\n      swap1\n      sload\n      swap1\n      0x0100\n      exp\n      swap1\n      div\n      0xffffffffffffffffffffffffffffffffffffffff\n      and\n      dup2\n      jump\t// out\n        /* \"contracts/FriendTechV2.sol\":2243:2373  function _checkOwner() internal view virtual {... */\n    tag_139:\n        /* \"contracts/FriendTechV2.sol\":2317:2329  _msgSender() */\n      tag_254\n        /* \"contracts/FriendTechV2.sol\":2317:2327  _msgSender */\n      tag_255\n        /* \"contracts/FriendTechV2.sol\":2317:2329  _msgSender() */\n      jump\t// in\n    tag_254:\n        /* \"contracts/FriendTechV2.sol\":2306:2329  owner() == _msgSender() */\n      0xffffffffffffffffffffffffffffffffffffffff\n      and\n        /* \"contracts/FriendTechV2.sol\":2306:2313  owner() */\n      tag_256\n        /* \"contracts/FriendTechV2.sol\":2306:2311  owner */\n      tag_98\n        /* \"contracts/FriendTechV2.sol\":2306:2313  owner() */\n      jump\t// in\n    tag_256:\n        /* \"contracts/FriendTechV2.sol\":2306:2329  owner() == _msgSender() */\n      0xffffffffffffffffffffffffffffffffffffffff\n      and\n      eq\n        /* \"contracts/FriendTechV2.sol\":2298:2366  require(owner() == _msgSender(), \"Ownable: caller is not the owner\") */\n      tag_257\n      jumpi\n      mload(0x40)\n      0x08c379a000000000000000000000000000000000000000000000000000000000\n      dup2\n      mstore\n      0x04\n      add\n      tag_258\n      swap1\n      tag_259\n      jump\t// in\n    tag_258:\n      mload(0x40)\n      dup1\n      swap2\n      sub\n      swap1\n      revert\n    tag_257:\n        /* \"contracts/FriendTechV2.sol\":2243:2373  function _checkOwner() internal view virtual {... */\n      jump\t// out\n        /* \"contracts/FriendTechV2.sol\":3317:3504  function _transferOwnership(address newOwner) internal virtual {... */\n    tag_188:\n        /* \"contracts/FriendTechV2.sol\":3390:3406  address oldOwner */\n      0x00\n        /* \"contracts/FriendTechV2.sol\":3409:3415  _owner */\n      dup1\n      0x00\n      swap1\n      sload\n      swap1\n      0x0100\n      exp\n      swap1\n      div\n      0xffffffffffffffffffffffffffffffffffffffff\n      and\n        /* \"contracts/FriendTechV2.sol\":3390:3415  address oldOwner = _owner */\n      swap1\n      pop\n        /* \"contracts/FriendTechV2.sol\":3434:3442  newOwner */\n      dup2\n        /* \"contracts/FriendTechV2.sol\":3425:3431  _owner */\n      0x00\n      dup1\n        /* \"contracts/FriendTechV2.sol\":3425:3442  _owner = newOwner */\n      0x0100\n      exp\n      dup2\n      sload\n      dup2\n      0xffffffffffffffffffffffffffffffffffffffff\n      mul\n      not\n      and\n      swap1\n      dup4\n      0xffffffffffffffffffffffffffffffffffffffff\n      and\n      mul\n      or\n      swap1\n      sstore\n      pop\n        /* \"contracts/FriendTechV2.sol\":3488:3496  newOwner */\n      dup2\n        /* \"contracts/FriendTechV2.sol\":3457:3497  OwnershipTransferred(oldOwner, newOwner) */\n      0xffffffffffffffffffffffffffffffffffffffff\n      and\n        /* \"contracts/FriendTechV2.sol\":3478:3486  oldOwner */\n      dup2\n        /* \"contracts/FriendTechV2.sol\":3457:3497  OwnershipTransferred(oldOwner, newOwner) */\n      0xffffffffffffffffffffffffffffffffffffffff\n      and\n      0x8be0079c531659141344cd1fd0a4f28419497f9722a3daafe3b4186f6b6457e0\n      mload(0x40)\n      mload(0x40)\n      dup1\n      swap2\n      sub\n      swap1\n      log3\n        /* \"contracts/FriendTechV2.sol\":3380:3504  {... */\n      pop\n        /* \"contracts/FriendTechV2.sol\":3317:3504  function _transferOwnership(address newOwner) internal virtual {... */\n      pop\n      jump\t// out\n        /* \"contracts/FriendTechV2.sol\":5099:5659  function distributeFees(uint256 protocolFee, uint256 subjectFee) private {... */\n    tag_213:\n        /* \"contracts/FriendTechV2.sol\":5182:5199  uint256 partyAFee */\n      0x00\n        /* \"contracts/FriendTechV2.sol\":5237:5240  100 */\n      0x64\n        /* \"contracts/FriendTechV2.sol\":5217:5233  partyAFeePercent */\n      sload(0x08)\n        /* \"contracts/FriendTechV2.sol\":5203:5214  protocolFee */\n      dup5\n        /* \"contracts/FriendTechV2.sol\":5203:5233  protocolFee * partyAFeePercent */\n      tag_262\n      swap2\n      swap1\n      tag_129\n      jump\t// in\n    tag_262:\n        /* \"contracts/FriendTechV2.sol\":5202:5240  (protocolFee * partyAFeePercent) / 100 */\n      tag_263\n      swap2\n      swap1\n      tag_131\n      jump\t// in\n    tag_263:\n        /* \"contracts/FriendTechV2.sol\":5182:5240  uint256 partyAFee = (protocolFee * partyAFeePercent) / 100 */\n      swap1\n      pop\n        /* \"contracts/FriendTechV2.sol\":5250:5267  uint256 partyBFee */\n      0x00\n        /* \"contracts/FriendTechV2.sol\":5305:5308  100 */\n      0x64\n        /* \"contracts/FriendTechV2.sol\":5285:5301  partyBFeePercent */\n      sload(0x09)\n        /* \"contracts/FriendTechV2.sol\":5271:5282  protocolFee */\n      dup6\n        /* \"contracts/FriendTechV2.sol\":5271:5301  protocolFee * partyBFeePercent */\n      tag_264\n      swap2\n      swap1\n      tag_129\n      jump\t// in\n    tag_264:\n        /* \"contracts/FriendTechV2.sol\":5270:5308  (protocolFee * partyBFeePercent) / 100 */\n      tag_265\n      swap2\n      swap1\n      tag_131\n      jump\t// in\n    tag_265:\n        /* \"contracts/FriendTechV2.sol\":5250:5308  uint256 partyBFee = (protocolFee * partyBFeePercent) / 100 */\n      swap1\n      pop\n        /* \"contracts/FriendTechV2.sol\":5318:5335  uint256 partyCFee */\n      0x00\n        /* \"contracts/FriendTechV2.sol\":5373:5376  100 */\n      0x64\n        /* \"contracts/FriendTechV2.sol\":5353:5369  partyCFeePercent */\n      sload(0x0a)\n        /* \"contracts/FriendTechV2.sol\":5339:5350  protocolFee */\n      dup7\n        /* \"contracts/FriendTechV2.sol\":5339:5369  protocolFee * partyCFeePercent */\n      tag_266\n      swap2\n      swap1\n      tag_129\n      jump\t// in\n    tag_266:\n        /* \"contracts/FriendTechV2.sol\":5338:5376  (protocolFee * partyCFeePercent) / 100 */\n      tag_267\n      swap2\n      swap1\n      tag_131\n      jump\t// in\n    tag_267:\n        /* \"contracts/FriendTechV2.sol\":5318:5376  uint256 partyCFee = (protocolFee * partyCFeePercent) / 100 */\n      swap1\n      pop\n        /* \"contracts/FriendTechV2.sol\":5388:5401  bool success1 */\n      0x00\n        /* \"contracts/FriendTechV2.sol\":5407:5413  partyA */\n      0x05\n      0x00\n      swap1\n      sload\n      swap1\n      0x0100\n      exp\n      swap1\n      div\n      0xffffffffffffffffffffffffffffffffffffffff\n      and\n        /* \"contracts/FriendTechV2.sol\":5407:5418  partyA.call */\n      0xffffffffffffffffffffffffffffffffffffffff\n      and\n        /* \"contracts/FriendTechV2.sol\":5426:5435  partyAFee */\n      dup5\n        /* \"contracts/FriendTechV2.sol\":5407:5440  partyA.call{value: partyAFee}(\"\") */\n      mload(0x40)\n      tag_268\n      swap1\n      tag_269\n      jump\t// in\n    tag_268:\n      0x00\n      mload(0x40)\n      dup1\n      dup4\n      sub\n      dup2\n      dup6\n      dup8\n      gas\n      call\n      swap3\n      pop\n      pop\n      pop\n      returndatasize\n      dup1\n      0x00\n      dup2\n      eq\n      tag_272\n      jumpi\n      mload(0x40)\n      swap2\n      pop\n      and(add(returndatasize, 0x3f), not(0x1f))\n      dup3\n      add\n      0x40\n      mstore\n      returndatasize\n      dup3\n      mstore\n      returndatasize\n      0x00\n      0x20\n      dup5\n      add\n      returndatacopy\n      jump(tag_271)\n    tag_272:\n      0x60\n      swap2\n      pop\n    tag_271:\n      pop\n        /* \"contracts/FriendTechV2.sol\":5387:5440  (bool success1, ) = partyA.call{value: partyAFee}(\"\") */\n      pop\n      swap1\n      pop\n        /* \"contracts/FriendTechV2.sol\":5451:5464  bool success2 */\n      0x00\n        /* \"contracts/FriendTechV2.sol\":5470:5476  partyB */\n      0x06\n      0x00\n      swap1\n      sload\n      swap1\n      0x0100\n      exp\n      swap1\n      div\n      0xffffffffffffffffffffffffffffffffffffffff\n      and\n        /* \"contracts/FriendTechV2.sol\":5470:5481  partyB.call */\n      0xffffffffffffffffffffffffffffffffffffffff\n      and\n        /* \"contracts/FriendTechV2.sol\":5489:5498  partyBFee */\n      dup5\n        /* \"contracts/FriendTechV2.sol\":5470:5503  partyB.call{value: partyBFee}(\"\") */\n      mload(0x40)\n      tag_273\n      swap1\n      tag_269\n      jump\t// in\n    tag_273:\n      0x00\n      mload(0x40)\n      dup1\n      dup4\n      sub\n      dup2\n      dup6\n      dup8\n      gas\n      call\n      swap3\n      pop\n      pop\n      pop\n      returndatasize\n      dup1\n      0x00\n      dup2\n      eq\n      tag_276\n      jumpi\n      mload(0x40)\n      swap2\n      pop\n      and(add(returndatasize, 0x3f), not(0x1f))\n      dup3\n      add\n      0x40\n      mstore\n      returndatasize\n      dup3\n      mstore\n      returndatasize\n      0x00\n      0x20\n      dup5\n      add\n      returndatacopy\n      jump(tag_275)\n    tag_276:\n      0x60\n      swap2\n      pop\n    tag_275:\n      pop\n        /* \"contracts/FriendTechV2.sol\":5450:5503  (bool success2, ) = partyB.call{value: partyBFee}(\"\") */\n      pop\n      swap1\n      pop\n        /* \"contracts/FriendTechV2.sol\":5514:5527  bool success3 */\n      0x00\n        /* \"contracts/FriendTechV2.sol\":5533:5539  partyC */\n      0x07\n      0x00\n      swap1\n      sload\n      swap1\n      0x0100\n      exp\n      swap1\n      div\n      0xffffffffffffffffffffffffffffffffffffffff\n      and\n        /* \"contracts/FriendTechV2.sol\":5533:5544  partyC.call */\n      0xffffffffffffffffffffffffffffffffffffffff\n      and\n        /* \"contracts/FriendTechV2.sol\":5552:5561  partyCFee */\n      dup5\n        /* \"contracts/FriendTechV2.sol\":5533:5566  partyC.call{value: partyCFee}(\"\") */\n      mload(0x40)\n      tag_277\n      swap1\n      tag_269\n      jump\t// in\n    tag_277:\n      0x00\n      mload(0x40)\n      dup1\n      dup4\n      sub\n      dup2\n      dup6\n      dup8\n      gas\n      call\n      swap3\n      pop\n      pop\n      pop\n      returndatasize\n      dup1\n      0x00\n      dup2\n      eq\n      tag_280\n      jumpi\n      mload(0x40)\n      swap2\n      pop\n      and(add(returndatasize, 0x3f), not(0x1f))\n      dup3\n      add\n      0x40\n      mstore\n      returndatasize\n      dup3\n      mstore\n      returndatasize\n      0x00\n      0x20\n      dup5\n      add\n      returndatacopy\n      jump(tag_279)\n    tag_280:\n      0x60\n      swap2\n      pop\n    tag_279:\n      pop\n        /* \"contracts/FriendTechV2.sol\":5513:5566  (bool success3, ) = partyC.call{value: partyCFee}(\"\") */\n      pop\n      swap1\n      pop\n        /* \"contracts/FriendTechV2.sol\":5585:5593  success1 */\n      dup3\n        /* \"contracts/FriendTechV2.sol\":5585:5605  success1 && success2 */\n      dup1\n      iszero\n      tag_281\n      jumpi\n      pop\n        /* \"contracts/FriendTechV2.sol\":5597:5605  success2 */\n      dup2\n        /* \"contracts/FriendTechV2.sol\":5585:5605  success1 && success2 */\n    tag_281:\n        /* \"contracts/FriendTechV2.sol\":5585:5617  success1 && success2 && success3 */\n      dup1\n      iszero\n      tag_282\n      jumpi\n      pop\n        /* \"contracts/FriendTechV2.sol\":5609:5617  success3 */\n      dup1\n        /* \"contracts/FriendTechV2.sol\":5585:5617  success1 && success2 && success3 */\n    tag_282:\n        /* \"contracts/FriendTechV2.sol\":5577:5652  require(success1 && success2 && success3, \"Unable to send fees to parties\") */\n      tag_283\n      jumpi\n      mload(0x40)\n      0x08c379a000000000000000000000000000000000000000000000000000000000\n      dup2\n      mstore\n      0x04\n      add\n      tag_284\n      swap1\n      tag_285\n      jump\t// in\n    tag_284:\n      mload(0x40)\n      dup1\n      swap2\n      sub\n      swap1\n      revert\n    tag_283:\n        /* \"contracts/FriendTechV2.sol\":5172:5659  {... */\n      pop\n      pop\n      pop\n      pop\n      pop\n      pop\n        /* \"contracts/FriendTechV2.sol\":5099:5659  function distributeFees(uint256 protocolFee, uint256 subjectFee) private {... */\n      pop\n      pop\n      jump\t// out\n        /* \"contracts/FriendTechV2.sol\":708:804  function _msgSender() internal view virtual returns (address) {... */\n    tag_255:\n        /* \"contracts/FriendTechV2.sol\":761:768  address */\n      0x00\n        /* \"contracts/FriendTechV2.sol\":787:797  msg.sender */\n      caller\n        /* \"contracts/FriendTechV2.sol\":780:797  return msg.sender */\n      swap1\n      pop\n        /* \"contracts/FriendTechV2.sol\":708:804  function _msgSender() internal view virtual returns (address) {... */\n      swap1\n      jump\t// out\n        /* \"#utility.yul\":88:205   */\n    tag_288:\n        /* \"#utility.yul\":197:198   */\n      0x00\n        /* \"#utility.yul\":194:195   */\n      dup1\n        /* \"#utility.yul\":187:199   */\n      revert\n        /* \"#utility.yul\":334:460   */\n    tag_290:\n        /* \"#utility.yul\":371:378   */\n      0x00\n        /* \"#utility.yul\":411:453   */\n      0xffffffffffffffffffffffffffffffffffffffff\n        /* \"#utility.yul\":404:409   */\n      dup3\n        /* \"#utility.yul\":400:454   */\n      and\n        /* \"#utility.yul\":389:454   */\n      swap1\n      pop\n        /* \"#utility.yul\":334:460   */\n      swap2\n      swap1\n      pop\n      jump\t// out\n        /* \"#utility.yul\":466:562   */\n    tag_291:\n        /* \"#utility.yul\":503:510   */\n      0x00\n        /* \"#utility.yul\":532:556   */\n      tag_327\n        /* \"#utility.yul\":550:555   */\n      dup3\n        /* \"#utility.yul\":532:556   */\n      tag_290\n      jump\t// in\n    tag_327:\n        /* \"#utility.yul\":521:556   */\n      swap1\n      pop\n        /* \"#utility.yul\":466:562   */\n      swap2\n      swap1\n      pop\n      jump\t// out\n        /* \"#utility.yul\":568:690   */\n    tag_292:\n        /* \"#utility.yul\":641:665   */\n      tag_329\n        /* \"#utility.yul\":659:664   */\n      dup2\n        /* \"#utility.yul\":641:665   */\n      tag_291\n      jump\t// in\n    tag_329:\n        /* \"#utility.yul\":634:639   */\n      dup2\n        /* \"#utility.yul\":631:666   */\n      eq\n        /* \"#utility.yul\":621:684   */\n      tag_330\n      jumpi\n        /* \"#utility.yul\":680:681   */\n      0x00\n        /* \"#utility.yul\":677:678   */\n      dup1\n        /* \"#utility.yul\":670:682   */\n      revert\n        /* \"#utility.yul\":621:684   */\n    tag_330:\n        /* \"#utility.yul\":568:690   */\n      pop\n      jump\t// out\n        /* \"#utility.yul\":696:835   */\n    tag_293:\n        /* \"#utility.yul\":742:747   */\n      0x00\n        /* \"#utility.yul\":780:786   */\n      dup2\n        /* \"#utility.yul\":767:787   */\n      calldataload\n        /* \"#utility.yul\":758:787   */\n      swap1\n      pop\n        /* \"#utility.yul\":796:829   */\n      tag_332\n        /* \"#utility.yul\":823:828   */\n      dup2\n        /* \"#utility.yul\":796:829   */\n      tag_292\n      jump\t// in\n    tag_332:\n        /* \"#utility.yul\":696:835   */\n      swap3\n      swap2\n      pop\n      pop\n      jump\t// out\n        /* \"#utility.yul\":841:1315   */\n    tag_36:\n        /* \"#utility.yul\":909:915   */\n      0x00\n        /* \"#utility.yul\":917:923   */\n      dup1\n        /* \"#utility.yul\":966:968   */\n      0x40\n        /* \"#utility.yul\":954:963   */\n      dup4\n        /* \"#utility.yul\":945:952   */\n      dup6\n        /* \"#utility.yul\":941:964   */\n      sub\n        /* \"#utility.yul\":937:969   */\n      slt\n        /* \"#utility.yul\":934:1053   */\n      iszero\n      tag_334\n      jumpi\n        /* \"#utility.yul\":972:1051   */\n      tag_335\n      tag_288\n      jump\t// in\n    tag_335:\n        /* \"#utility.yul\":934:1053   */\n    tag_334:\n        /* \"#utility.yul\":1092:1093   */\n      0x00\n        /* \"#utility.yul\":1117:1170   */\n      tag_336\n        /* \"#utility.yul\":1162:1169   */\n      dup6\n        /* \"#utility.yul\":1153:1159   */\n      dup3\n        /* \"#utility.yul\":1142:1151   */\n      dup7\n        /* \"#utility.yul\":1138:1160   */\n      add\n        /* \"#utility.yul\":1117:1170   */\n      tag_293\n      jump\t// in\n    tag_336:\n        /* \"#utility.yul\":1107:1170   */\n      swap3\n      pop\n        /* \"#utility.yul\":1063:1180   */\n      pop\n        /* \"#utility.yul\":1219:1221   */\n      0x20\n        /* \"#utility.yul\":1245:1298   */\n      tag_337\n        /* \"#utility.yul\":1290:1297   */\n      dup6\n        /* \"#utility.yul\":1281:1287   */\n      dup3\n        /* \"#utility.yul\":1270:1279   */\n      dup7\n        /* \"#utility.yul\":1266:1288   */\n      add\n        /* \"#utility.yul\":1245:1298   */\n      tag_293\n      jump\t// in\n    tag_337:\n        /* \"#utility.yul\":1235:1298   */\n      swap2\n      pop\n        /* \"#utility.yul\":1190:1308   */\n      pop\n        /* \"#utility.yul\":841:1315   */\n      swap3\n      pop\n      swap3\n      swap1\n      pop\n      jump\t// out\n        /* \"#utility.yul\":1321:1398   */\n    tag_294:\n        /* \"#utility.yul\":1358:1365   */\n      0x00\n        /* \"#utility.yul\":1387:1392   */\n      dup2\n        /* \"#utility.yul\":1376:1392   */\n      swap1\n      pop\n        /* \"#utility.yul\":1321:1398   */\n      swap2\n      swap1\n      pop\n      jump\t// out\n        /* \"#utility.yul\":1404:1522   */\n    tag_295:\n        /* \"#utility.yul\":1491:1515   */\n      tag_340\n        /* \"#utility.yul\":1509:1514   */\n      dup2\n        /* \"#utility.yul\":1491:1515   */\n      tag_294\n      jump\t// in\n    tag_340:\n        /* \"#utility.yul\":1486:1489   */\n      dup3\n        /* \"#utility.yul\":1479:1516   */\n      mstore\n        /* \"#utility.yul\":1404:1522   */\n      pop\n      pop\n      jump\t// out\n        /* \"#utility.yul\":1528:1750   */\n    tag_39:\n        /* \"#utility.yul\":1621:1625   */\n      0x00\n        /* \"#utility.yul\":1659:1661   */\n      0x20\n        /* \"#utility.yul\":1648:1657   */\n      dup3\n        /* \"#utility.yul\":1644:1662   */\n      add\n        /* \"#utility.yul\":1636:1662   */\n      swap1\n      pop\n        /* \"#utility.yul\":1672:1743   */\n      tag_342\n        /* \"#utility.yul\":1740:1741   */\n      0x00\n        /* \"#utility.yul\":1729:1738   */\n      dup4\n        /* \"#utility.yul\":1725:1742   */\n      add\n        /* \"#utility.yul\":1716:1722   */\n      dup5\n        /* \"#utility.yul\":1672:1743   */\n      tag_295\n      jump\t// in\n    tag_342:\n        /* \"#utility.yul\":1528:1750   */\n      swap3\n      swap2\n      pop\n      pop\n      jump\t// out\n        /* \"#utility.yul\":1756:1878   */\n    tag_296:\n        /* \"#utility.yul\":1829:1853   */\n      tag_344\n        /* \"#utility.yul\":1847:1852   */\n      dup2\n        /* \"#utility.yul\":1829:1853   */\n      tag_294\n      jump\t// in\n    tag_344:\n        /* \"#utility.yul\":1822:1827   */\n      dup2\n        /* \"#utility.yul\":1819:1854   */\n      eq\n        /* \"#utility.yul\":1809:1872   */\n      tag_345\n      jumpi\n        /* \"#utility.yul\":1868:1869   */\n      0x00\n        /* \"#utility.yul\":1865:1866   */\n      dup1\n        /* \"#utility.yul\":1858:1870   */\n      revert\n        /* \"#utility.yul\":1809:1872   */\n    tag_345:\n        /* \"#utility.yul\":1756:1878   */\n      pop\n      jump\t// out\n        /* \"#utility.yul\":1884:2023   */\n    tag_297:\n        /* \"#utility.yul\":1930:1935   */\n      0x00\n        /* \"#utility.yul\":1968:1974   */\n      dup2\n        /* \"#utility.yul\":1955:1975   */\n      calldataload\n        /* \"#utility.yul\":1946:1975   */\n      swap1\n      pop\n        /* \"#utility.yul\":1984:2017   */\n      tag_347\n        /* \"#utility.yul\":2011:2016   */\n      dup2\n        /* \"#utility.yul\":1984:2017   */\n      tag_296\n      jump\t// in\n    tag_347:\n        /* \"#utility.yul\":1884:2023   */\n      swap3\n      swap2\n      pop\n      pop\n      jump\t// out\n        /* \"#utility.yul\":2029:2503   */\n    tag_42:\n        /* \"#utility.yul\":2097:2103   */\n      0x00\n        /* \"#utility.yul\":2105:2111   */\n      dup1\n        /* \"#utility.yul\":2154:2156   */\n      0x40\n        /* \"#utility.yul\":2142:2151   */\n      dup4\n        /* \"#utility.yul\":2133:2140   */\n      dup6\n        /* \"#utility.yul\":2129:2152   */\n      sub\n        /* \"#utility.yul\":2125:2157   */\n      slt\n        /* \"#utility.yul\":2122:2241   */\n      iszero\n      tag_349\n      jumpi\n        /* \"#utility.yul\":2160:2239   */\n      tag_350\n      tag_288\n      jump\t// in\n    tag_350:\n        /* \"#utility.yul\":2122:2241   */\n    tag_349:\n        /* \"#utility.yul\":2280:2281   */\n      0x00\n        /* \"#utility.yul\":2305:2358   */\n      tag_351\n        /* \"#utility.yul\":2350:2357   */\n      dup6\n        /* \"#utility.yul\":2341:2347   */\n      dup3\n        /* \"#utility.yul\":2330:2339   */\n      dup7\n        /* \"#utility.yul\":2326:2348   */\n      add\n        /* \"#utility.yul\":2305:2358   */\n      tag_293\n      jump\t// in\n    tag_351:\n        /* \"#utility.yul\":2295:2358   */\n      swap3\n      pop\n        /* \"#utility.yul\":2251:2368   */\n      pop\n        /* \"#utility.yul\":2407:2409   */\n      0x20\n        /* \"#utility.yul\":2433:2486   */\n      tag_352\n        /* \"#utility.yul\":2478:2485   */\n      dup6\n        /* \"#utility.yul\":2469:2475   */\n      dup3\n        /* \"#utility.yul\":2458:2467   */\n      dup7\n        /* \"#utility.yul\":2454:2476   */\n      add\n        /* \"#utility.yul\":2433:2486   */\n      tag_297\n      jump\t// in\n    tag_352:\n        /* \"#utility.yul\":2423:2486   */\n      swap2\n      pop\n        /* \"#utility.yul\":2378:2496   */\n      pop\n        /* \"#utility.yul\":2029:2503   */\n      swap3\n      pop\n      swap3\n      swap1\n      pop\n      jump\t// out\n        /* \"#utility.yul\":2509:2627   */\n    tag_298:\n        /* \"#utility.yul\":2596:2620   */\n      tag_354\n        /* \"#utility.yul\":2614:2619   */\n      dup2\n        /* \"#utility.yul\":2596:2620   */\n      tag_291\n      jump\t// in\n    tag_354:\n        /* \"#utility.yul\":2591:2594   */\n      dup3\n        /* \"#utility.yul\":2584:2621   */\n      mstore\n        /* \"#utility.yul\":2509:2627   */\n      pop\n      pop\n      jump\t// out\n        /* \"#utility.yul\":2633:2855   */\n    tag_48:\n        /* \"#utility.yul\":2726:2730   */\n      0x00\n        /* \"#utility.yul\":2764:2766   */\n      0x20\n        /* \"#utility.yul\":2753:2762   */\n      dup3\n        /* \"#utility.yul\":2749:2767   */\n      add\n        /* \"#utility.yul\":2741:2767   */\n      swap1\n      pop\n        /* \"#utility.yul\":2777:2848   */\n      tag_356\n        /* \"#utility.yul\":2845:2846   */\n      0x00\n        /* \"#utility.yul\":2834:2843   */\n      dup4\n        /* \"#utility.yul\":2830:2847   */\n      add\n        /* \"#utility.yul\":2821:2827   */\n      dup5\n        /* \"#utility.yul\":2777:2848   */\n      tag_298\n      jump\t// in\n    tag_356:\n        /* \"#utility.yul\":2633:2855   */\n      swap3\n      swap2\n      pop\n      pop\n      jump\t// out\n        /* \"#utility.yul\":2861:3190   */\n    tag_51:\n        /* \"#utility.yul\":2920:2926   */\n      0x00\n        /* \"#utility.yul\":2969:2971   */\n      0x20\n        /* \"#utility.yul\":2957:2966   */\n      dup3\n        /* \"#utility.yul\":2948:2955   */\n      dup5\n        /* \"#utility.yul\":2944:2967   */\n      sub\n        /* \"#utility.yul\":2940:2972   */\n      slt\n        /* \"#utility.yul\":2937:3056   */\n      iszero\n      tag_358\n      jumpi\n        /* \"#utility.yul\":2975:3054   */\n      tag_359\n      tag_288\n      jump\t// in\n    tag_359:\n        /* \"#utility.yul\":2937:3056   */\n    tag_358:\n        /* \"#utility.yul\":3095:3096   */\n      0x00\n        /* \"#utility.yul\":3120:3173   */\n      tag_360\n        /* \"#utility.yul\":3165:3172   */\n      dup5\n        /* \"#utility.yul\":3156:3162   */\n      dup3\n        /* \"#utility.yul\":3145:3154   */\n      dup6\n        /* \"#utility.yul\":3141:3163   */\n      add\n        /* \"#utility.yul\":3120:3173   */\n      tag_293\n      jump\t// in\n    tag_360:\n        /* \"#utility.yul\":3110:3173   */\n      swap2\n      pop\n        /* \"#utility.yul\":3066:3183   */\n      pop\n        /* \"#utility.yul\":2861:3190   */\n      swap3\n      swap2\n      pop\n      pop\n      jump\t// out\n        /* \"#utility.yul\":3196:3815   */\n    tag_78:\n        /* \"#utility.yul\":3273:3279   */\n      0x00\n        /* \"#utility.yul\":3281:3287   */\n      dup1\n        /* \"#utility.yul\":3289:3295   */\n      0x00\n        /* \"#utility.yul\":3338:3340   */\n      0x60\n        /* \"#utility.yul\":3326:3335   */\n      dup5\n        /* \"#utility.yul\":3317:3324   */\n      dup7\n        /* \"#utility.yul\":3313:3336   */\n      sub\n        /* \"#utility.yul\":3309:3341   */\n      slt\n        /* \"#utility.yul\":3306:3425   */\n      iszero\n      tag_362\n      jumpi\n        /* \"#utility.yul\":3344:3423   */\n      tag_363\n      tag_288\n      jump\t// in\n    tag_363:\n        /* \"#utility.yul\":3306:3425   */\n    tag_362:\n        /* \"#utility.yul\":3464:3465   */\n      0x00\n        /* \"#utility.yul\":3489:3542   */\n      tag_364\n        /* \"#utility.yul\":3534:3541   */\n      dup7\n        /* \"#utility.yul\":3525:3531   */\n      dup3\n        /* \"#utility.yul\":3514:3523   */\n      dup8\n        /* \"#utility.yul\":3510:3532   */\n      add\n        /* \"#utility.yul\":3489:3542   */\n      tag_293\n      jump\t// in\n    tag_364:\n        /* \"#utility.yul\":3479:3542   */\n      swap4\n      pop\n        /* \"#utility.yul\":3435:3552   */\n      pop\n        /* \"#utility.yul\":3591:3593   */\n      0x20\n        /* \"#utility.yul\":3617:3670   */\n      tag_365\n        /* \"#utility.yul\":3662:3669   */\n      dup7\n        /* \"#utility.yul\":3653:3659   */\n      dup3\n        /* \"#utility.yul\":3642:3651   */\n      dup8\n        /* \"#utility.yul\":3638:3660   */\n      add\n        /* \"#utility.yul\":3617:3670   */\n      tag_293\n      jump\t// in\n    tag_365:\n        /* \"#utility.yul\":3607:3670   */\n      swap3\n      pop\n        /* \"#utility.yul\":3562:3680   */\n      pop\n        /* \"#utility.yul\":3719:3721   */\n      0x40\n        /* \"#utility.yul\":3745:3798   */\n      tag_366\n        /* \"#utility.yul\":3790:3797   */\n      dup7\n        /* \"#utility.yul\":3781:3787   */\n      dup3\n        /* \"#utility.yul\":3770:3779   */\n      dup8\n        /* \"#utility.yul\":3766:3788   */\n      add\n        /* \"#utility.yul\":3745:3798   */\n      tag_293\n      jump\t// in\n    tag_366:\n        /* \"#utility.yul\":3735:3798   */\n      swap2\n      pop\n        /* \"#utility.yul\":3690:3808   */\n      pop\n        /* \"#utility.yul\":3196:3815   */\n      swap3\n      pop\n      swap3\n      pop\n      swap3\n      jump\t// out\n        /* \"#utility.yul\":3821:4150   */\n    tag_82:\n        /* \"#utility.yul\":3880:3886   */\n      0x00\n        /* \"#utility.yul\":3929:3931   */\n      0x20\n        /* \"#utility.yul\":3917:3926   */\n      dup3\n        /* \"#utility.yul\":3908:3915   */\n      dup5\n        /* \"#utility.yul\":3904:3927   */\n      sub\n        /* \"#utility.yul\":3900:3932   */\n      slt\n        /* \"#utility.yul\":3897:4016   */\n      iszero\n      tag_368\n      jumpi\n        /* \"#utility.yul\":3935:4014   */\n      tag_369\n      tag_288\n      jump\t// in\n    tag_369:\n        /* \"#utility.yul\":3897:4016   */\n    tag_368:\n        /* \"#utility.yul\":4055:4056   */\n      0x00\n        /* \"#utility.yul\":4080:4133   */\n      tag_370\n        /* \"#utility.yul\":4125:4132   */\n      dup5\n        /* \"#utility.yul\":4116:4122   */\n      dup3\n        /* \"#utility.yul\":4105:4114   */\n      dup6\n        /* \"#utility.yul\":4101:4123   */\n      add\n        /* \"#utility.yul\":4080:4133   */\n      tag_297\n      jump\t// in\n    tag_370:\n        /* \"#utility.yul\":4070:4133   */\n      swap2\n      pop\n        /* \"#utility.yul\":4026:4143   */\n      pop\n        /* \"#utility.yul\":3821:4150   */\n      swap3\n      swap2\n      pop\n      pop\n      jump\t// out\n        /* \"#utility.yul\":4156:4630   */\n    tag_86:\n        /* \"#utility.yul\":4224:4230   */\n      0x00\n        /* \"#utility.yul\":4232:4238   */\n      dup1\n        /* \"#utility.yul\":4281:4283   */\n      0x40\n        /* \"#utility.yul\":4269:4278   */\n      dup4\n        /* \"#utility.yul\":4260:4267   */\n      dup6\n        /* \"#utility.yul\":4256:4279   */\n      sub\n        /* \"#utility.yul\":4252:4284   */\n      slt\n        /* \"#utility.yul\":4249:4368   */\n      iszero\n      tag_372\n      jumpi\n        /* \"#utility.yul\":4287:4366   */\n      tag_373\n      tag_288\n      jump\t// in\n    tag_373:\n        /* \"#utility.yul\":4249:4368   */\n    tag_372:\n        /* \"#utility.yul\":4407:4408   */\n      0x00\n        /* \"#utility.yul\":4432:4485   */\n      tag_374\n        /* \"#utility.yul\":4477:4484   */\n      dup6\n        /* \"#utility.yul\":4468:4474   */\n      dup3\n        /* \"#utility.yul\":4457:4466   */\n      dup7\n        /* \"#utility.yul\":4453:4475   */\n      add\n        /* \"#utility.yul\":4432:4485   */\n      tag_297\n      jump\t// in\n    tag_374:\n        /* \"#utility.yul\":4422:4485   */\n      swap3\n      pop\n        /* \"#utility.yul\":4378:4495   */\n      pop\n        /* \"#utility.yul\":4534:4536   */\n      0x20\n        /* \"#utility.yul\":4560:4613   */\n      tag_375\n        /* \"#utility.yul\":4605:4612   */\n      dup6\n        /* \"#utility.yul\":4596:4602   */\n      dup3\n        /* \"#utility.yul\":4585:4594   */\n      dup7\n        /* \"#utility.yul\":4581:4603   */\n      add\n        /* \"#utility.yul\":4560:4613   */\n      tag_297\n      jump\t// in\n    tag_375:\n        /* \"#utility.yul\":4550:4613   */\n      swap2\n      pop\n        /* \"#utility.yul\":4505:4623   */\n      pop\n        /* \"#utility.yul\":4156:4630   */\n      swap3\n      pop\n      swap3\n      swap1\n      pop\n      jump\t// out\n        /* \"#utility.yul\":4636:4816   */\n    tag_299:\n        /* \"#utility.yul\":4684:4761   */\n      0x4e487b7100000000000000000000000000000000000000000000000000000000\n        /* \"#utility.yul\":4681:4682   */\n      0x00\n        /* \"#utility.yul\":4674:4762   */\n      mstore\n        /* \"#utility.yul\":4781:4785   */\n      0x11\n        /* \"#utility.yul\":4778:4779   */\n      0x04\n        /* \"#utility.yul\":4771:4786   */\n      mstore\n        /* \"#utility.yul\":4805:4809   */\n      0x24\n        /* \"#utility.yul\":4802:4803   */\n      0x00\n        /* \"#utility.yul\":4795:4810   */\n      revert\n        /* \"#utility.yul\":4822:5232   */\n    tag_129:\n        /* \"#utility.yul\":4862:4869   */\n      0x00\n        /* \"#utility.yul\":4885:4905   */\n      tag_378\n        /* \"#utility.yul\":4903:4904   */\n      dup3\n        /* \"#utility.yul\":4885:4905   */\n      tag_294\n      jump\t// in\n    tag_378:\n        /* \"#utility.yul\":4880:4905   */\n      swap2\n      pop\n        /* \"#utility.yul\":4919:4939   */\n      tag_379\n        /* \"#utility.yul\":4937:4938   */\n      dup4\n        /* \"#utility.yul\":4919:4939   */\n      tag_294\n      jump\t// in\n    tag_379:\n        /* \"#utility.yul\":4914:4939   */\n      swap3\n      pop\n        /* \"#utility.yul\":4974:4975   */\n      dup3\n        /* \"#utility.yul\":4971:4972   */\n      dup3\n        /* \"#utility.yul\":4967:4976   */\n      mul\n        /* \"#utility.yul\":4996:5026   */\n      tag_380\n        /* \"#utility.yul\":5014:5025   */\n      dup2\n        /* \"#utility.yul\":4996:5026   */\n      tag_294\n      jump\t// in\n    tag_380:\n        /* \"#utility.yul\":4985:5026   */\n      swap2\n      pop\n        /* \"#utility.yul\":5175:5176   */\n      dup3\n        /* \"#utility.yul\":5166:5173   */\n      dup3\n        /* \"#utility.yul\":5162:5177   */\n      div\n        /* \"#utility.yul\":5159:5160   */\n      dup5\n        /* \"#utility.yul\":5156:5178   */\n      eq\n        /* \"#utility.yul\":5136:5137   */\n      dup4\n        /* \"#utility.yul\":5129:5138   */\n      iszero\n        /* \"#utility.yul\":5109:5192   */\n      or\n        /* \"#utility.yul\":5086:5225   */\n      tag_381\n      jumpi\n        /* \"#utility.yul\":5205:5223   */\n      tag_382\n      tag_299\n      jump\t// in\n    tag_382:\n        /* \"#utility.yul\":5086:5225   */\n    tag_381:\n        /* \"#utility.yul\":4870:5232   */\n      pop\n        /* \"#utility.yul\":4822:5232   */\n      swap3\n      swap2\n      pop\n      pop\n      jump\t// out\n        /* \"#utility.yul\":5238:5418   */\n    tag_300:\n        /* \"#utility.yul\":5286:5363   */\n      0x4e487b7100000000000000000000000000000000000000000000000000000000\n        /* \"#utility.yul\":5283:5284   */\n      0x00\n        /* \"#utility.yul\":5276:5364   */\n      mstore\n        /* \"#utility.yul\":5383:5387   */\n      0x12\n        /* \"#utility.yul\":5380:5381   */\n      0x04\n        /* \"#utility.yul\":5373:5388   */\n      mstore\n        /* \"#utility.yul\":5407:5411   */\n      0x24\n        /* \"#utility.yul\":5404:5405   */\n      0x00\n        /* \"#utility.yul\":5397:5412   */\n      revert\n        /* \"#utility.yul\":5424:5609   */\n    tag_131:\n        /* \"#utility.yul\":5464:5465   */\n      0x00\n        /* \"#utility.yul\":5481:5501   */\n      tag_385\n        /* \"#utility.yul\":5499:5500   */\n      dup3\n        /* \"#utility.yul\":5481:5501   */\n      tag_294\n      jump\t// in\n    tag_385:\n        /* \"#utility.yul\":5476:5501   */\n      swap2\n      pop\n        /* \"#utility.yul\":5515:5535   */\n      tag_386\n        /* \"#utility.yul\":5533:5534   */\n      dup4\n        /* \"#utility.yul\":5515:5535   */\n      tag_294\n      jump\t// in\n    tag_386:\n        /* \"#utility.yul\":5510:5535   */\n      swap3\n      pop\n        /* \"#utility.yul\":5554:5555   */\n      dup3\n        /* \"#utility.yul\":5544:5579   */\n      tag_387\n      jumpi\n        /* \"#utility.yul\":5559:5577   */\n      tag_388\n      tag_300\n      jump\t// in\n    tag_388:\n        /* \"#utility.yul\":5544:5579   */\n    tag_387:\n        /* \"#utility.yul\":5601:5602   */\n      dup3\n        /* \"#utility.yul\":5598:5599   */\n      dup3\n        /* \"#utility.yul\":5594:5603   */\n      div\n        /* \"#utility.yul\":5589:5603   */\n      swap1\n      pop\n        /* \"#utility.yul\":5424:5609   */\n      swap3\n      swap2\n      pop\n      pop\n      jump\t// out\n        /* \"#utility.yul\":5615:5806   */\n    tag_135:\n        /* \"#utility.yul\":5655:5658   */\n      0x00\n        /* \"#utility.yul\":5674:5694   */\n      tag_390\n        /* \"#utility.yul\":5692:5693   */\n      dup3\n        /* \"#utility.yul\":5674:5694   */\n      tag_294\n      jump\t// in\n    tag_390:\n        /* \"#utility.yul\":5669:5694   */\n      swap2\n      pop\n        /* \"#utility.yul\":5708:5728   */\n      tag_391\n        /* \"#utility.yul\":5726:5727   */\n      dup4\n        /* \"#utility.yul\":5708:5728   */\n      tag_294\n      jump\t// in\n    tag_391:\n        /* \"#utility.yul\":5703:5728   */\n      swap3\n      pop\n        /* \"#utility.yul\":5751:5752   */\n      dup3\n        /* \"#utility.yul\":5748:5749   */\n      dup3\n        /* \"#utility.yul\":5744:5753   */\n      add\n        /* \"#utility.yul\":5737:5753   */\n      swap1\n      pop\n        /* \"#utility.yul\":5772:5775   */\n      dup1\n        /* \"#utility.yul\":5769:5770   */\n      dup3\n        /* \"#utility.yul\":5766:5776   */\n      gt\n        /* \"#utility.yul\":5763:5799   */\n      iszero\n      tag_392\n      jumpi\n        /* \"#utility.yul\":5779:5797   */\n      tag_393\n      tag_299\n      jump\t// in\n    tag_393:\n        /* \"#utility.yul\":5763:5799   */\n    tag_392:\n        /* \"#utility.yul\":5615:5806   */\n      swap3\n      swap2\n      pop\n      pop\n      jump\t// out\n        /* \"#utility.yul\":5812:6006   */\n    tag_148:\n        /* \"#utility.yul\":5852:5856   */\n      0x00\n        /* \"#utility.yul\":5872:5892   */\n      tag_395\n        /* \"#utility.yul\":5890:5891   */\n      dup3\n        /* \"#utility.yul\":5872:5892   */\n      tag_294\n      jump\t// in\n    tag_395:\n        /* \"#utility.yul\":5867:5892   */\n      swap2\n      pop\n        /* \"#utility.yul\":5906:5926   */\n      tag_396\n        /* \"#utility.yul\":5924:5925   */\n      dup4\n        /* \"#utility.yul\":5906:5926   */\n      tag_294\n      jump\t// in\n    tag_396:\n        /* \"#utility.yul\":5901:5926   */\n      swap3\n      pop\n        /* \"#utility.yul\":5950:5951   */\n      dup3\n        /* \"#utility.yul\":5947:5948   */\n      dup3\n        /* \"#utility.yul\":5943:5952   */\n      sub\n        /* \"#utility.yul\":5935:5952   */\n      swap1\n      pop\n        /* \"#utility.yul\":5974:5975   */\n      dup2\n        /* \"#utility.yul\":5968:5972   */\n      dup2\n        /* \"#utility.yul\":5965:5976   */\n      gt\n        /* \"#utility.yul\":5962:5999   */\n      iszero\n      tag_397\n      jumpi\n        /* \"#utility.yul\":5979:5997   */\n      tag_398\n      tag_299\n      jump\t// in\n    tag_398:\n        /* \"#utility.yul\":5962:5999   */\n    tag_397:\n        /* \"#utility.yul\":5812:6006   */\n      swap3\n      swap2\n      pop\n      pop\n      jump\t// out\n        /* \"#utility.yul\":6012:6181   */\n    tag_301:\n        /* \"#utility.yul\":6096:6107   */\n      0x00\n        /* \"#utility.yul\":6130:6136   */\n      dup3\n        /* \"#utility.yul\":6125:6128   */\n      dup3\n        /* \"#utility.yul\":6118:6137   */\n      mstore\n        /* \"#utility.yul\":6170:6174   */\n      0x20\n        /* \"#utility.yul\":6165:6168   */\n      dup3\n        /* \"#utility.yul\":6161:6175   */\n      add\n        /* \"#utility.yul\":6146:6175   */\n      swap1\n      pop\n        /* \"#utility.yul\":6012:6181   */\n      swap3\n      swap2\n      pop\n      pop\n      jump\t// out\n        /* \"#utility.yul\":6187:6422   */\n    tag_302:\n        /* \"#utility.yul\":6327:6361   */\n      0x4f6e6c79207468652073686172657327207375626a6563742063616e20627579\n        /* \"#utility.yul\":6323:6324   */\n      0x00\n        /* \"#utility.yul\":6315:6321   */\n      dup3\n        /* \"#utility.yul\":6311:6325   */\n      add\n        /* \"#utility.yul\":6304:6362   */\n      mstore\n        /* \"#utility.yul\":6396:6414   */\n      0x2074686520666972737420736861726500000000000000000000000000000000\n        /* \"#utility.yul\":6391:6393   */\n      0x20\n        /* \"#utility.yul\":6383:6389   */\n      dup3\n        /* \"#utility.yul\":6379:6394   */\n      add\n        /* \"#utility.yul\":6372:6415   */\n      mstore\n        /* \"#utility.yul\":6187:6422   */\n      pop\n      jump\t// out\n        /* \"#utility.yul\":6428:6794   */\n    tag_303:\n        /* \"#utility.yul\":6570:6573   */\n      0x00\n        /* \"#utility.yul\":6591:6658   */\n      tag_402\n        /* \"#utility.yul\":6655:6657   */\n      0x30\n        /* \"#utility.yul\":6650:6653   */\n      dup4\n        /* \"#utility.yul\":6591:6658   */\n      tag_301\n      jump\t// in\n    tag_402:\n        /* \"#utility.yul\":6584:6658   */\n      swap2\n      pop\n        /* \"#utility.yul\":6667:6760   */\n      tag_403\n        /* \"#utility.yul\":6756:6759   */\n      dup3\n        /* \"#utility.yul\":6667:6760   */\n      tag_302\n      jump\t// in\n    tag_403:\n        /* \"#utility.yul\":6785:6787   */\n      0x40\n        /* \"#utility.yul\":6780:6783   */\n      dup3\n        /* \"#utility.yul\":6776:6788   */\n      add\n        /* \"#utility.yul\":6769:6788   */\n      swap1\n      pop\n        /* \"#utility.yul\":6428:6794   */\n      swap2\n      swap1\n      pop\n      jump\t// out\n        /* \"#utility.yul\":6800:7219   */\n    tag_193:\n        /* \"#utility.yul\":6966:6970   */\n      0x00\n        /* \"#utility.yul\":7004:7006   */\n      0x20\n        /* \"#utility.yul\":6993:7002   */\n      dup3\n        /* \"#utility.yul\":6989:7007   */\n      add\n        /* \"#utility.yul\":6981:7007   */\n      swap1\n      pop\n        /* \"#utility.yul\":7053:7062   */\n      dup2\n        /* \"#utility.yul\":7047:7051   */\n      dup2\n        /* \"#utility.yul\":7043:7063   */\n      sub\n        /* \"#utility.yul\":7039:7040   */\n      0x00\n        /* \"#utility.yul\":7028:7037   */\n      dup4\n        /* \"#utility.yul\":7024:7041   */\n      add\n        /* \"#utility.yul\":7017:7064   */\n      mstore\n        /* \"#utility.yul\":7081:7212   */\n      tag_405\n        /* \"#utility.yul\":7207:7211   */\n      dup2\n        /* \"#utility.yul\":7081:7212   */\n      tag_303\n      jump\t// in\n    tag_405:\n        /* \"#utility.yul\":7073:7212   */\n      swap1\n      pop\n        /* \"#utility.yul\":6800:7219   */\n      swap2\n      swap1\n      pop\n      jump\t// out\n        /* \"#utility.yul\":7225:7667   */\n    tag_202:\n        /* \"#utility.yul\":7374:7378   */\n      0x00\n        /* \"#utility.yul\":7412:7414   */\n      0x60\n        /* \"#utility.yul\":7401:7410   */\n      dup3\n        /* \"#utility.yul\":7397:7415   */\n      add\n        /* \"#utility.yul\":7389:7415   */\n      swap1\n      pop\n        /* \"#utility.yul\":7425:7496   */\n      tag_407\n        /* \"#utility.yul\":7493:7494   */\n      0x00\n        /* \"#utility.yul\":7482:7491   */\n      dup4\n        /* \"#utility.yul\":7478:7495   */\n      add\n        /* \"#utility.yul\":7469:7475   */\n      dup7\n        /* \"#utility.yul\":7425:7496   */\n      tag_298\n      jump\t// in\n    tag_407:\n        /* \"#utility.yul\":7506:7578   */\n      tag_408\n        /* \"#utility.yul\":7574:7576   */\n      0x20\n        /* \"#utility.yul\":7563:7572   */\n      dup4\n        /* \"#utility.yul\":7559:7577   */\n      add\n        /* \"#utility.yul\":7550:7556   */\n      dup6\n        /* \"#utility.yul\":7506:7578   */\n      tag_298\n      jump\t// in\n    tag_408:\n        /* \"#utility.yul\":7588:7660   */\n      tag_409\n        /* \"#utility.yul\":7656:7658   */\n      0x40\n        /* \"#utility.yul\":7645:7654   */\n      dup4\n        /* \"#utility.yul\":7641:7659   */\n      add\n        /* \"#utility.yul\":7632:7638   */\n      dup5\n        /* \"#utility.yul\":7588:7660   */\n      tag_295\n      jump\t// in\n    tag_409:\n        /* \"#utility.yul\":7225:7667   */\n      swap5\n      swap4\n      pop\n      pop\n      pop\n      pop\n      jump\t// out\n        /* \"#utility.yul\":7673:7763   */\n    tag_304:\n        /* \"#utility.yul\":7707:7714   */\n      0x00\n        /* \"#utility.yul\":7750:7755   */\n      dup2\n        /* \"#utility.yul\":7743:7756   */\n      iszero\n        /* \"#utility.yul\":7736:7757   */\n      iszero\n        /* \"#utility.yul\":7725:7757   */\n      swap1\n      pop\n        /* \"#utility.yul\":7673:7763   */\n      swap2\n      swap1\n      pop\n      jump\t// out\n        /* \"#utility.yul\":7769:7885   */\n    tag_305:\n        /* \"#utility.yul\":7839:7860   */\n      tag_412\n        /* \"#utility.yul\":7854:7859   */\n      dup2\n        /* \"#utility.yul\":7839:7860   */\n      tag_304\n      jump\t// in\n    tag_412:\n        /* \"#utility.yul\":7832:7837   */\n      dup2\n        /* \"#utility.yul\":7829:7861   */\n      eq\n        /* \"#utility.yul\":7819:7879   */\n      tag_413\n      jumpi\n        /* \"#utility.yul\":7875:7876   */\n      0x00\n        /* \"#utility.yul\":7872:7873   */\n      dup1\n        /* \"#utility.yul\":7865:7877   */\n      revert\n        /* \"#utility.yul\":7819:7879   */\n    tag_413:\n        /* \"#utility.yul\":7769:7885   */\n      pop\n      jump\t// out\n        /* \"#utility.yul\":7891:8028   */\n    tag_306:\n        /* \"#utility.yul\":7945:7950   */\n      0x00\n        /* \"#utility.yul\":7976:7982   */\n      dup2\n        /* \"#utility.yul\":7970:7983   */\n      mload\n        /* \"#utility.yul\":7961:7983   */\n      swap1\n      pop\n        /* \"#utility.yul\":7992:8022   */\n      tag_415\n        /* \"#utility.yul\":8016:8021   */\n      dup2\n        /* \"#utility.yul\":7992:8022   */\n      tag_305\n      jump\t// in\n    tag_415:\n        /* \"#utility.yul\":7891:8028   */\n      swap3\n      swap2\n      pop\n      pop\n      jump\t// out\n        /* \"#utility.yul\":8034:8379   */\n    tag_206:\n        /* \"#utility.yul\":8101:8107   */\n      0x00\n        /* \"#utility.yul\":8150:8152   */\n      0x20\n        /* \"#utility.yul\":8138:8147   */\n      dup3\n        /* \"#utility.yul\":8129:8136   */\n      dup5\n        /* \"#utility.yul\":8125:8148   */\n      sub\n        /* \"#utility.yul\":8121:8153   */\n      slt\n        /* \"#utility.yul\":8118:8237   */\n      iszero\n      tag_417\n      jumpi\n        /* \"#utility.yul\":8156:8235   */\n      tag_418\n      tag_288\n      jump\t// in\n    tag_418:\n        /* \"#utility.yul\":8118:8237   */\n    tag_417:\n        /* \"#utility.yul\":8276:8277   */\n      0x00\n        /* \"#utility.yul\":8301:8362   */\n      tag_419\n        /* \"#utility.yul\":8354:8361   */\n      dup5\n        /* \"#utility.yul\":8345:8351   */\n      dup3\n        /* \"#utility.yul\":8334:8343   */\n      dup6\n        /* \"#utility.yul\":8330:8352   */\n      add\n        /* \"#utility.yul\":8301:8362   */\n      tag_306\n      jump\t// in\n    tag_419:\n        /* \"#utility.yul\":8291:8362   */\n      swap2\n      pop\n        /* \"#utility.yul\":8247:8372   */\n      pop\n        /* \"#utility.yul\":8034:8379   */\n      swap3\n      swap2\n      pop\n      pop\n      jump\t// out\n        /* \"#utility.yul\":8385:8494   */\n    tag_307:\n        /* \"#utility.yul\":8466:8487   */\n      tag_421\n        /* \"#utility.yul\":8481:8486   */\n      dup2\n        /* \"#utility.yul\":8466:8487   */\n      tag_304\n      jump\t// in\n    tag_421:\n        /* \"#utility.yul\":8461:8464   */\n      dup3\n        /* \"#utility.yul\":8454:8488   */\n      mstore\n        /* \"#utility.yul\":8385:8494   */\n      pop\n      pop\n      jump\t// out\n        /* \"#utility.yul\":8500:9485   */\n    tag_211:\n        /* \"#utility.yul\":8783:8787   */\n      0x00\n        /* \"#utility.yul\":8821:8824   */\n      0x0100\n        /* \"#utility.yul\":8810:8819   */\n      dup3\n        /* \"#utility.yul\":8806:8825   */\n      add\n        /* \"#utility.yul\":8798:8825   */\n      swap1\n      pop\n        /* \"#utility.yul\":8835:8906   */\n      tag_423\n        /* \"#utility.yul\":8903:8904   */\n      0x00\n        /* \"#utility.yul\":8892:8901   */\n      dup4\n        /* \"#utility.yul\":8888:8905   */\n      add\n        /* \"#utility.yul\":8879:8885   */\n      dup12\n        /* \"#utility.yul\":8835:8906   */\n      tag_298\n      jump\t// in\n    tag_423:\n        /* \"#utility.yul\":8916:8988   */\n      tag_424\n        /* \"#utility.yul\":8984:8986   */\n      0x20\n        /* \"#utility.yul\":8973:8982   */\n      dup4\n        /* \"#utility.yul\":8969:8987   */\n      add\n        /* \"#utility.yul\":8960:8966   */\n      dup11\n        /* \"#utility.yul\":8916:8988   */\n      tag_298\n      jump\t// in\n    tag_424:\n        /* \"#utility.yul\":8998:9064   */\n      tag_425\n        /* \"#utility.yul\":9060:9062   */\n      0x40\n        /* \"#utility.yul\":9049:9058   */\n      dup4\n        /* \"#utility.yul\":9045:9063   */\n      add\n        /* \"#utility.yul\":9036:9042   */\n      dup10\n        /* \"#utility.yul\":8998:9064   */\n      tag_307\n      jump\t// in\n    tag_425:\n        /* \"#utility.yul\":9074:9146   */\n      tag_426\n        /* \"#utility.yul\":9142:9144   */\n      0x60\n        /* \"#utility.yul\":9131:9140   */\n      dup4\n        /* \"#utility.yul\":9127:9145   */\n      add\n        /* \"#utility.yul\":9118:9124   */\n      dup9\n        /* \"#utility.yul\":9074:9146   */\n      tag_295\n      jump\t// in\n    tag_426:\n        /* \"#utility.yul\":9156:9229   */\n      tag_427\n        /* \"#utility.yul\":9224:9227   */\n      0x80\n        /* \"#utility.yul\":9213:9222   */\n      dup4\n        /* \"#utility.yul\":9209:9228   */\n      add\n        /* \"#utility.yul\":9200:9206   */\n      dup8\n        /* \"#utility.yul\":9156:9229   */\n      tag_295\n      jump\t// in\n    tag_427:\n        /* \"#utility.yul\":9239:9312   */\n      tag_428\n        /* \"#utility.yul\":9307:9310   */\n      0xa0\n        /* \"#utility.yul\":9296:9305   */\n      dup4\n        /* \"#utility.yul\":9292:9311   */\n      add\n        /* \"#utility.yul\":9283:9289   */\n      dup7\n        /* \"#utility.yul\":9239:9312   */\n      tag_295\n      jump\t// in\n    tag_428:\n        /* \"#utility.yul\":9322:9395   */\n      tag_429\n        /* \"#utility.yul\":9390:9393   */\n      0xc0\n        /* \"#utility.yul\":9379:9388   */\n      dup4\n        /* \"#utility.yul\":9375:9394   */\n      add\n        /* \"#utility.yul\":9366:9372   */\n      dup6\n        /* \"#utility.yul\":9322:9395   */\n      tag_295\n      jump\t// in\n    tag_429:\n        /* \"#utility.yul\":9405:9478   */\n      tag_430\n        /* \"#utility.yul\":9473:9476   */\n      0xe0\n        /* \"#utility.yul\":9462:9471   */\n      dup4\n        /* \"#utility.yul\":9458:9477   */\n      add\n        /* \"#utility.yul\":9449:9455   */\n      dup5\n        /* \"#utility.yul\":9405:9478   */\n      tag_295\n      jump\t// in\n    tag_430:\n        /* \"#utility.yul\":8500:9485   */\n      swap10\n      swap9\n      pop\n      pop\n      pop\n      pop\n      pop\n      pop\n      pop\n      pop\n      pop\n      jump\t// out\n        /* \"#utility.yul\":9491:9667   */\n    tag_308:\n        /* \"#utility.yul\":9631:9659   */\n      0x43616e6e6f742073656c6c20746865206c617374207368617265000000000000\n        /* \"#utility.yul\":9627:9628   */\n      0x00\n        /* \"#utility.yul\":9619:9625   */\n      dup3\n        /* \"#utility.yul\":9615:9629   */\n      add\n        /* \"#utility.yul\":9608:9660   */\n      mstore\n        /* \"#utility.yul\":9491:9667   */\n      pop\n      jump\t// out\n        /* \"#utility.yul\":9673:10039   */\n    tag_309:\n        /* \"#utility.yul\":9815:9818   */\n      0x00\n        /* \"#utility.yul\":9836:9903   */\n      tag_433\n        /* \"#utility.yul\":9900:9902   */\n      0x1a\n        /* \"#utility.yul\":9895:9898   */\n      dup4\n        /* \"#utility.yul\":9836:9903   */\n      tag_301\n      jump\t// in\n    tag_433:\n        /* \"#utility.yul\":9829:9903   */\n      swap2\n      pop\n        /* \"#utility.yul\":9912:10005   */\n      tag_434\n        /* \"#utility.yul\":10001:10004   */\n      dup3\n        /* \"#utility.yul\":9912:10005   */\n      tag_308\n      jump\t// in\n    tag_434:\n        /* \"#utility.yul\":10030:10032   */\n      0x20\n        /* \"#utility.yul\":10025:10028   */\n      dup3\n        /* \"#utility.yul\":10021:10033   */\n      add\n        /* \"#utility.yul\":10014:10033   */\n      swap1\n      pop\n        /* \"#utility.yul\":9673:10039   */\n      swap2\n      swap1\n      pop\n      jump\t// out\n        /* \"#utility.yul\":10045:10464   */\n    tag_224:\n        /* \"#utility.yul\":10211:10215   */\n      0x00\n        /* \"#utility.yul\":10249:10251   */\n      0x20\n        /* \"#utility.yul\":10238:10247   */\n      dup3\n        /* \"#utility.yul\":10234:10252   */\n      add\n        /* \"#utility.yul\":10226:10252   */\n      swap1\n      pop\n        /* \"#utility.yul\":10298:10307   */\n      dup2\n        /* \"#utility.yul\":10292:10296   */\n      dup2\n        /* \"#utility.yul\":10288:10308   */\n      sub\n        /* \"#utility.yul\":10284:10285   */\n      0x00\n        /* \"#utility.yul\":10273:10282   */\n      dup4\n        /* \"#utility.yul\":10269:10286   */\n      add\n        /* \"#utility.yul\":10262:10309   */\n      mstore\n        /* \"#utility.yul\":10326:10457   */\n      tag_436\n        /* \"#utility.yul\":10452:10456   */\n      dup2\n        /* \"#utility.yul\":10326:10457   */\n      tag_309\n      jump\t// in\n    tag_436:\n        /* \"#utility.yul\":10318:10457   */\n      swap1\n      pop\n        /* \"#utility.yul\":10045:10464   */\n      swap2\n      swap1\n      pop\n      jump\t// out\n        /* \"#utility.yul\":10470:10639   */\n    tag_310:\n        /* \"#utility.yul\":10610:10631   */\n      0x496e73756666696369656e742073686172657300000000000000000000000000\n        /* \"#utility.yul\":10606:10607   */\n      0x00\n        /* \"#utility.yul\":10598:10604   */\n      dup3\n        /* \"#utility.yul\":10594:10608   */\n      add\n        /* \"#utility.yul\":10587:10632   */\n      mstore\n        /* \"#utility.yul\":10470:10639   */\n      pop\n      jump\t// out\n        /* \"#utility.yul\":10645:11011   */\n    tag_311:\n        /* \"#utility.yul\":10787:10790   */\n      0x00\n        /* \"#utility.yul\":10808:10875   */\n      tag_439\n        /* \"#utility.yul\":10872:10874   */\n      0x13\n        /* \"#utility.yul\":10867:10870   */\n      dup4\n        /* \"#utility.yul\":10808:10875   */\n      tag_301\n      jump\t// in\n    tag_439:\n        /* \"#utility.yul\":10801:10875   */\n      swap2\n      pop\n        /* \"#utility.yul\":10884:10977   */\n      tag_440\n        /* \"#utility.yul\":10973:10976   */\n      dup3\n        /* \"#utility.yul\":10884:10977   */\n      tag_310\n      jump\t// in\n    tag_440:\n        /* \"#utility.yul\":11002:11004   */\n      0x20\n        /* \"#utility.yul\":10997:11000   */\n      dup3\n        /* \"#utility.yul\":10993:11005   */\n      add\n        /* \"#utility.yul\":10986:11005   */\n      swap1\n      pop\n        /* \"#utility.yul\":10645:11011   */\n      swap2\n      swap1\n      pop\n      jump\t// out\n        /* \"#utility.yul\":11017:11436   */\n    tag_233:\n        /* \"#utility.yul\":11183:11187   */\n      0x00\n        /* \"#utility.yul\":11221:11223   */\n      0x20\n        /* \"#utility.yul\":11210:11219   */\n      dup3\n        /* \"#utility.yul\":11206:11224   */\n      add\n        /* \"#utility.yul\":11198:11224   */\n      swap1\n      pop\n        /* \"#utility.yul\":11270:11279   */\n      dup2\n        /* \"#utility.yul\":11264:11268   */\n      dup2\n        /* \"#utility.yul\":11260:11280   */\n      sub\n        /* \"#utility.yul\":11256:11257   */\n      0x00\n        /* \"#utility.yul\":11245:11254   */\n      dup4\n        /* \"#utility.yul\":11241:11258   */\n      add\n        /* \"#utility.yul\":11234:11281   */\n      mstore\n        /* \"#utility.yul\":11298:11429   */\n      tag_442\n        /* \"#utility.yul\":11424:11428   */\n      dup2\n        /* \"#utility.yul\":11298:11429   */\n      tag_311\n      jump\t// in\n    tag_442:\n        /* \"#utility.yul\":11290:11429   */\n      swap1\n      pop\n        /* \"#utility.yul\":11017:11436   */\n      swap2\n      swap1\n      pop\n      jump\t// out\n        /* \"#utility.yul\":11442:11774   */\n    tag_239:\n        /* \"#utility.yul\":11563:11567   */\n      0x00\n        /* \"#utility.yul\":11601:11603   */\n      0x40\n        /* \"#utility.yul\":11590:11599   */\n      dup3\n        /* \"#utility.yul\":11586:11604   */\n      add\n        /* \"#utility.yul\":11578:11604   */\n      swap1\n      pop\n        /* \"#utility.yul\":11614:11685   */\n      tag_444\n        /* \"#utility.yul\":11682:11683   */\n      0x00\n        /* \"#utility.yul\":11671:11680   */\n      dup4\n        /* \"#utility.yul\":11667:11684   */\n      add\n        /* \"#utility.yul\":11658:11664   */\n      dup6\n        /* \"#utility.yul\":11614:11685   */\n      tag_298\n      jump\t// in\n    tag_444:\n        /* \"#utility.yul\":11695:11767   */\n      tag_445\n        /* \"#utility.yul\":11763:11765   */\n      0x20\n        /* \"#utility.yul\":11752:11761   */\n      dup4\n        /* \"#utility.yul\":11748:11766   */\n      add\n        /* \"#utility.yul\":11739:11745   */\n      dup5\n        /* \"#utility.yul\":11695:11767   */\n      tag_295\n      jump\t// in\n    tag_445:\n        /* \"#utility.yul\":11442:11774   */\n      swap4\n      swap3\n      pop\n      pop\n      pop\n      jump\t// out\n        /* \"#utility.yul\":11780:12005   */\n    tag_312:\n        /* \"#utility.yul\":11920:11954   */\n      0x4f776e61626c653a206e6577206f776e657220697320746865207a65726f2061\n        /* \"#utility.yul\":11916:11917   */\n      0x00\n        /* \"#utility.yul\":11908:11914   */\n      dup3\n        /* \"#utility.yul\":11904:11918   */\n      add\n        /* \"#utility.yul\":11897:11955   */\n      mstore\n        /* \"#utility.yul\":11989:11997   */\n      0x6464726573730000000000000000000000000000000000000000000000000000\n        /* \"#utility.yul\":11984:11986   */\n      0x20\n        /* \"#utility.yul\":11976:11982   */\n      dup3\n        /* \"#utility.yul\":11972:11987   */\n      add\n        /* \"#utility.yul\":11965:11998   */\n      mstore\n        /* \"#utility.yul\":11780:12005   */\n      pop\n      jump\t// out\n        /* \"#utility.yul\":12011:12377   */\n    tag_313:\n        /* \"#utility.yul\":12153:12156   */\n      0x00\n        /* \"#utility.yul\":12174:12241   */\n      tag_448\n        /* \"#utility.yul\":12238:12240   */\n      0x26\n        /* \"#utility.yul\":12233:12236   */\n      dup4\n        /* \"#utility.yul\":12174:12241   */\n      tag_301\n      jump\t// in\n    tag_448:\n        /* \"#utility.yul\":12167:12241   */\n      swap2\n      pop\n        /* \"#utility.yul\":12250:12343   */\n      tag_449\n        /* \"#utility.yul\":12339:12342   */\n      dup3\n        /* \"#utility.yul\":12250:12343   */\n      tag_312\n      jump\t// in\n    tag_449:\n        /* \"#utility.yul\":12368:12370   */\n      0x40\n        /* \"#utility.yul\":12363:12366   */\n      dup3\n        /* \"#utility.yul\":12359:12371   */\n      add\n        /* \"#utility.yul\":12352:12371   */\n      swap1\n      pop\n        /* \"#utility.yul\":12011:12377   */\n      swap2\n      swap1\n      pop\n      jump\t// out\n        /* \"#utility.yul\":12383:12802   */\n    tag_251:\n        /* \"#utility.yul\":12549:12553   */\n      0x00\n        /* \"#utility.yul\":12587:12589   */\n      0x20\n        /* \"#utility.yul\":12576:12585   */\n      dup3\n        /* \"#utility.yul\":12572:12590   */\n      add\n        /* \"#utility.yul\":12564:12590   */\n      swap1\n      pop\n        /* \"#utility.yul\":12636:12645   */\n      dup2\n        /* \"#utility.yul\":12630:12634   */\n      dup2\n        /* \"#utility.yul\":12626:12646   */\n      sub\n        /* \"#utility.yul\":12622:12623   */\n      0x00\n        /* \"#utility.yul\":12611:12620   */\n      dup4\n        /* \"#utility.yul\":12607:12624   */\n      add\n        /* \"#utility.yul\":12600:12647   */\n      mstore\n        /* \"#utility.yul\":12664:12795   */\n      tag_451\n        /* \"#utility.yul\":12790:12794   */\n      dup2\n        /* \"#utility.yul\":12664:12795   */\n      tag_313\n      jump\t// in\n    tag_451:\n        /* \"#utility.yul\":12656:12795   */\n      swap1\n      pop\n        /* \"#utility.yul\":12383:12802   */\n      swap2\n      swap1\n      pop\n      jump\t// out\n        /* \"#utility.yul\":12808:12990   */\n    tag_314:\n        /* \"#utility.yul\":12948:12982   */\n      0x4f776e61626c653a2063616c6c6572206973206e6f7420746865206f776e6572\n        /* \"#utility.yul\":12944:12945   */\n      0x00\n        /* \"#utility.yul\":12936:12942   */\n      dup3\n        /* \"#utility.yul\":12932:12946   */\n      add\n        /* \"#utility.yul\":12925:12983   */\n      mstore\n        /* \"#utility.yul\":12808:12990   */\n      pop\n      jump\t// out\n        /* \"#utility.yul\":12996:13362   */\n    tag_315:\n        /* \"#utility.yul\":13138:13141   */\n      0x00\n        /* \"#utility.yul\":13159:13226   */\n      tag_454\n        /* \"#utility.yul\":13223:13225   */\n      0x20\n        /* \"#utility.yul\":13218:13221   */\n      dup4\n        /* \"#utility.yul\":13159:13226   */\n      tag_301\n      jump\t// in\n    tag_454:\n        /* \"#utility.yul\":13152:13226   */\n      swap2\n      pop\n        /* \"#utility.yul\":13235:13328   */\n      tag_455\n        /* \"#utility.yul\":13324:13327   */\n      dup3\n        /* \"#utility.yul\":13235:13328   */\n      tag_314\n      jump\t// in\n    tag_455:\n        /* \"#utility.yul\":13353:13355   */\n      0x20\n        /* \"#utility.yul\":13348:13351   */\n      dup3\n        /* \"#utility.yul\":13344:13356   */\n      add\n        /* \"#utility.yul\":13337:13356   */\n      swap1\n      pop\n        /* \"#utility.yul\":12996:13362   */\n      swap2\n      swap1\n      pop\n      jump\t// out\n        /* \"#utility.yul\":13368:13787   */\n    tag_259:\n        /* \"#utility.yul\":13534:13538   */\n      0x00\n        /* \"#utility.yul\":13572:13574   */\n      0x20\n        /* \"#utility.yul\":13561:13570   */\n      dup3\n        /* \"#utility.yul\":13557:13575   */\n      add\n        /* \"#utility.yul\":13549:13575   */\n      swap1\n      pop\n        /* \"#utility.yul\":13621:13630   */\n      dup2\n        /* \"#utility.yul\":13615:13619   */\n      dup2\n        /* \"#utility.yul\":13611:13631   */\n      sub\n        /* \"#utility.yul\":13607:13608   */\n      0x00\n        /* \"#utility.yul\":13596:13605   */\n      dup4\n        /* \"#utility.yul\":13592:13609   */\n      add\n        /* \"#utility.yul\":13585:13632   */\n      mstore\n        /* \"#utility.yul\":13649:13780   */\n      tag_457\n        /* \"#utility.yul\":13775:13779   */\n      dup2\n        /* \"#utility.yul\":13649:13780   */\n      tag_315\n      jump\t// in\n    tag_457:\n        /* \"#utility.yul\":13641:13780   */\n      swap1\n      pop\n        /* \"#utility.yul\":13368:13787   */\n      swap2\n      swap1\n      pop\n      jump\t// out\n        /* \"#utility.yul\":13793:13940   */\n    tag_316:\n        /* \"#utility.yul\":13894:13905   */\n      0x00\n        /* \"#utility.yul\":13931:13934   */\n      dup2\n        /* \"#utility.yul\":13916:13934   */\n      swap1\n      pop\n        /* \"#utility.yul\":13793:13940   */\n      swap3\n      swap2\n      pop\n      pop\n      jump\t// out\n        /* \"#utility.yul\":13946:14060   */\n    tag_317:\n      pop\n      jump\t// out\n        /* \"#utility.yul\":14066:14464   */\n    tag_318:\n        /* \"#utility.yul\":14225:14228   */\n      0x00\n        /* \"#utility.yul\":14246:14329   */\n      tag_461\n        /* \"#utility.yul\":14327:14328   */\n      0x00\n        /* \"#utility.yul\":14322:14325   */\n      dup4\n        /* \"#utility.yul\":14246:14329   */\n      tag_316\n      jump\t// in\n    tag_461:\n        /* \"#utility.yul\":14239:14329   */\n      swap2\n      pop\n        /* \"#utility.yul\":14338:14431   */\n      tag_462\n        /* \"#utility.yul\":14427:14430   */\n      dup3\n        /* \"#utility.yul\":14338:14431   */\n      tag_317\n      jump\t// in\n    tag_462:\n        /* \"#utility.yul\":14456:14457   */\n      0x00\n        /* \"#utility.yul\":14451:14454   */\n      dup3\n        /* \"#utility.yul\":14447:14458   */\n      add\n        /* \"#utility.yul\":14440:14458   */\n      swap1\n      pop\n        /* \"#utility.yul\":14066:14464   */\n      swap2\n      swap1\n      pop\n      jump\t// out\n        /* \"#utility.yul\":14470:14849   */\n    tag_269:\n        /* \"#utility.yul\":14654:14657   */\n      0x00\n        /* \"#utility.yul\":14676:14823   */\n      tag_464\n        /* \"#utility.yul\":14819:14822   */\n      dup3\n        /* \"#utility.yul\":14676:14823   */\n      tag_318\n      jump\t// in\n    tag_464:\n        /* \"#utility.yul\":14669:14823   */\n      swap2\n      pop\n        /* \"#utility.yul\":14840:14843   */\n      dup2\n        /* \"#utility.yul\":14833:14843   */\n      swap1\n      pop\n        /* \"#utility.yul\":14470:14849   */\n      swap2\n      swap1\n      pop\n      jump\t// out\n        /* \"#utility.yul\":14855:15035   */\n    tag_319:\n        /* \"#utility.yul\":14995:15027   */\n      0x556e61626c6520746f2073656e64206665657320746f20706172746965730000\n        /* \"#utility.yul\":14991:14992   */\n      0x00\n        /* \"#utility.yul\":14983:14989   */\n      dup3\n        /* \"#utility.yul\":14979:14993   */\n      add\n        /* \"#utility.yul\":14972:15028   */\n      mstore\n        /* \"#utility.yul\":14855:15035   */\n      pop\n      jump\t// out\n        /* \"#utility.yul\":15041:15407   */\n    tag_320:\n        /* \"#utility.yul\":15183:15186   */\n      0x00\n        /* \"#utility.yul\":15204:15271   */\n      tag_467\n        /* \"#utility.yul\":15268:15270   */\n      0x1e\n        /* \"#utility.yul\":15263:15266   */\n      dup4\n        /* \"#utility.yul\":15204:15271   */\n      tag_301\n      jump\t// in\n    tag_467:\n        /* \"#utility.yul\":15197:15271   */\n      swap2\n      pop\n        /* \"#utility.yul\":15280:15373   */\n      tag_468\n        /* \"#utility.yul\":15369:15372   */\n      dup3\n        /* \"#utility.yul\":15280:15373   */\n      tag_319\n      jump\t// in\n    tag_468:\n        /* \"#utility.yul\":15398:15400   */\n      0x20\n        /* \"#utility.yul\":15393:15396   */\n      dup3\n        /* \"#utility.yul\":15389:15401   */\n      add\n        /* \"#utility.yul\":15382:15401   */\n      swap1\n      pop\n        /* \"#utility.yul\":15041:15407   */\n      swap2\n      swap1\n      pop\n      jump\t// out\n        /* \"#utility.yul\":15413:15832   */\n    tag_285:\n        /* \"#utility.yul\":15579:15583   */\n      0x00\n        /* \"#utility.yul\":15617:15619   */\n      0x20\n        /* \"#utility.yul\":15606:15615   */\n      dup3\n        /* \"#utility.yul\":15602:15620   */\n      add\n        /* \"#utility.yul\":15594:15620   */\n      swap1\n      pop\n        /* \"#utility.yul\":15666:15675   */\n      dup2\n        /* \"#utility.yul\":15660:15664   */\n      dup2\n        /* \"#utility.yul\":15656:15676   */\n      sub\n        /* \"#utility.yul\":15652:15653   */\n      0x00\n        /* \"#utility.yul\":15641:15650   */\n      dup4\n        /* \"#utility.yul\":15637:15654   */\n      add\n        /* \"#utility.yul\":15630:15677   */\n      mstore\n        /* \"#utility.yul\":15694:15825   */\n      tag_470\n        /* \"#utility.yul\":15820:15824   */\n      dup2\n        /* \"#utility.yul\":15694:15825   */\n      tag_320\n      jump\t// in\n    tag_470:\n        /* \"#utility.yul\":15686:15825   */\n      swap1\n      pop\n        /* \"#utility.yul\":15413:15832   */\n      swap2\n      swap1\n      pop\n      jump\t// out\n\n    auxdata: 0xa264697066735822122068acf548ff5fea99394428ef65ed4c3ee405528538d77698fa0137aa0e41989364736f6c63430008160033\n}\n",
				"bytecode": {
					"linkReferences": {},
					"object": "6080604052600460085560046009556002600a5534801561001e575f80fd5b5061003b61003061004060201b60201c565b61004760201b60201c565b610108565b5f33905090565b5f805f9054906101000a900473ffffffffffffffffffffffffffffffffffffffff169050815f806101000a81548173ffffffffffffffffffffffffffffffffffffffff021916908373ffffffffffffffffffffffffffffffffffffffff1602179055508173ffffffffffffffffffffffffffffffffffffffff168173ffffffffffffffffffffffffffffffffffffffff167f8be0079c531659141344cd1fd0a4f28419497f9722a3daafe3b4186f6b6457e060405160405180910390a35050565b611ce6806101155f395ff3fe608060405234801561000f575f80fd5b506004361061018c575f3560e01c80635cf4ee91116100dc5780639ae7178111610095578063d6e6eb9f1161006f578063d6e6eb9f14610470578063f2fde38b1461048e578063f9931be0146104aa578063fc0c546a146104da5761018c565b80639ae7178114610408578063a498342114610438578063a7d5e724146104545761018c565b80635cf4ee9114610358578063715018a61461038857806383b7d8b21461039257806385efea6a146103b05780638da5cb5b146103cc57806395e06f6e146103ea5761018c565b806324dc441d116101495780634635256e116101235780634635256e146102d25780634ce7957c14610302578063550e5cb0146103205780635a8a764e1461033c5761018c565b806324dc441d1461027857806328f3994a1461029657806329040113146102b45761018c565b8063020235ff146101905780630f026f6d146101c057806310e1d8ca146101f0578063144fa6d71461020e57806317b364861461022a5780632267a89c14610248575b5f80fd5b6101aa60048036038101906101a59190611548565b6104f8565b6040516101b7919061159e565b60405180910390f35b6101da60048036038101906101d591906115e1565b610518565b6040516101e7919061159e565b60405180910390f35b6101f8610590565b604051610205919061162e565b60405180910390f35b61022860048036038101906102239190611647565b6105b5565b005b610232610600565b60405161023f919061159e565b60405180910390f35b610262600480360381019061025d91906115e1565b610606565b60405161026f919061159e565b60405180910390f35b61028061067e565b60405161028d919061159e565b60405180910390f35b61029e610684565b6040516102ab919061159e565b60405180910390f35b6102bc61068a565b6040516102c9919061162e565b60405180910390f35b6102ec60048036038101906102e791906115e1565b6106af565b6040516102f9919061159e565b60405180910390f35b61030a6106ff565b604051610317919061162e565b60405180910390f35b61033a60048036038101906103359190611672565b610724565b005b610356600480360381019061035191906116c2565b6107f1565b005b610372600480360381019061036d91906116ed565b610803565b60405161037f919061159e565b60405180910390f35b610390610933565b005b61039a610946565b6040516103a7919061162e565b60405180910390f35b6103ca60048036038101906103c591906115e1565b61096b565b005b6103d4610c6c565b6040516103e1919061162e565b60405180910390f35b6103f2610c93565b6040516103ff919061159e565b60405180910390f35b610422600480360381019061041d91906115e1565b610c99565b60405161042f919061159e565b60405180910390f35b610452600480360381019061044d91906116c2565b610cf4565b005b61046e600480360381019061046991906115e1565b610d06565b005b610478611094565b604051610485919061159e565b60405180910390f35b6104a860048036038101906104a39190611647565b61109a565b005b6104c460048036038101906104bf9190611647565b61111c565b6040516104d1919061159e565b60405180910390f35b6104e2611131565b6040516104ef919061162e565b60405180910390f35b600b602052815f5260405f20602052805f5260405f205f91509150505481565b5f8061052484846106af565b90505f670de0b6b3a76400006002548361053e9190611758565b61054891906117c6565b90505f670de0b6b3a7640000600354846105629190611758565b61056c91906117c6565b905080828461057b91906117f6565b61058591906117f6565b935050505092915050565b60055f9054906101000a900473ffffffffffffffffffffffffffffffffffffffff1681565b6105bd611156565b8060045f6101000a81548173ffffffffffffffffffffffffffffffffffffffff021916908373ffffffffffffffffffffffffffffffffffffffff16021790555050565b60085481565b5f806106128484610c99565b90505f670de0b6b3a76400006002548361062c9190611758565b61063691906117c6565b90505f670de0b6b3a7640000600354846106509190611758565b61065a91906117c6565b90508082846106699190611829565b6106739190611829565b935050505092915050565b60035481565b600a5481565b60065f9054906101000a900473ffffffffffffffffffffffffffffffffffffffff1681565b5f6106f7600c5f8573ffffffffffffffffffffffffffffffffffffffff1673ffffffffffffffffffffffffffffffffffffffff1681526020019081526020015f205483610803565b905092915050565b60015f9054906101000a900473ffffffffffffffffffffffffffffffffffffffff1681565b61072c611156565b8260055f6101000a81548173ffffffffffffffffffffffffffffffffffffffff021916908373ffffffffffffffffffffffffffffffffffffffff1602179055508160065f6101000a81548173ffffffffffffffffffffffffffffffffffffffff021916908373ffffffffffffffffffffffffffffffffffffffff1602179055508060075f6101000a81548173ffffffffffffffffffffffffffffffffffffffff021916908373ffffffffffffffffffffffffffffffffffffffff160217905550505050565b6107f9611156565b8060038190555050565b5f805f84146108635760066001808661081c9190611829565b60026108289190611758565b61083291906117f6565b856001876108409190611829565b61084a9190611758565b6108549190611758565b61085e91906117c6565b610865565b5f5b90505f80851480156108775750600184145b6108f457600660018560018861088d9190611829565b61089791906117f6565b60026108a39190611758565b6108ad91906117f6565b85876108b991906117f6565b866001896108c79190611829565b6108d191906117f6565b6108db9190611758565b6108e59190611758565b6108ef91906117c6565b6108f6565b5f5b90505f82826109059190611829565b9050613e80670de0b6b3a76400008261091e9190611758565b61092891906117c6565b935050505092915050565b61093b611156565b6109445f6111d4565b565b60075f9054906101000a900473ffffffffffffffffffffffffffffffffffffffff1681565b5f600c5f8473ffffffffffffffffffffffffffffffffffffffff1673ffffffffffffffffffffffffffffffffffffffff1681526020019081526020015f205490505f8111806109e557503373ffffffffffffffffffffffffffffffffffffffff168373ffffffffffffffffffffffffffffffffffffffff16145b610a24576040517f08c379a0000000000000000000000000000000000000000000000000000000008152600401610a1b906118dc565b60405180910390fd5b5f610a2f8284610803565b90505f670de0b6b3a764000060025483610a499190611758565b610a5391906117c6565b90505f670de0b6b3a764000060035484610a6d9190611758565b610a7791906117c6565b905060045f9054906101000a900473ffffffffffffffffffffffffffffffffffffffff1673ffffffffffffffffffffffffffffffffffffffff166323b872dd3330848688610ac591906117f6565b610acf91906117f6565b6040518463ffffffff1660e01b8152600401610aed939291906118fa565b6020604051808303815f875af1158015610b09573d5f803e3d5ffd5b505050506040513d601f19601f82011682018060405250810190610b2d9190611964565b5084600b5f8873ffffffffffffffffffffffffffffffffffffffff1673ffffffffffffffffffffffffffffffffffffffff1681526020019081526020015f205f3373ffffffffffffffffffffffffffffffffffffffff1673ffffffffffffffffffffffffffffffffffffffff1681526020019081526020015f205f828254610bb591906117f6565b925050819055508484610bc891906117f6565b600c5f8873ffffffffffffffffffffffffffffffffffffffff1673ffffffffffffffffffffffffffffffffffffffff1681526020019081526020015f20819055507f2c76e7a47fd53e2854856ac3f0a5f3ee40d15cfaa82266357ea9779c486ab9c333876001888787878c8c610c3e91906117f6565b604051610c5298979695949392919061199e565b60405180910390a1610c648282611295565b505050505050565b5f805f9054906101000a900473ffffffffffffffffffffffffffffffffffffffff16905090565b60095481565b5f610cec82600c5f8673ffffffffffffffffffffffffffffffffffffffff1673ffffffffffffffffffffffffffffffffffffffff1681526020019081526020015f2054610ce69190611829565b83610803565b905092915050565b610cfc611156565b8060028190555050565b5f600c5f8473ffffffffffffffffffffffffffffffffffffffff1673ffffffffffffffffffffffffffffffffffffffff1681526020019081526020015f20549050818111610d89576040517f08c379a0000000000000000000000000000000000000000000000000000000008152600401610d8090611a64565b60405180910390fd5b5f610d9f8383610d999190611829565b84610803565b90505f670de0b6b3a764000060025483610db99190611758565b610dc391906117c6565b90505f670de0b6b3a764000060035484610ddd9190611758565b610de791906117c6565b905084600b5f8873ffffffffffffffffffffffffffffffffffffffff1673ffffffffffffffffffffffffffffffffffffffff1681526020019081526020015f205f3373ffffffffffffffffffffffffffffffffffffffff1673ffffffffffffffffffffffffffffffffffffffff1681526020019081526020015f20541015610ea4576040517f08c379a0000000000000000000000000000000000000000000000000000000008152600401610e9b90611acc565b60405180910390fd5b84600b5f8873ffffffffffffffffffffffffffffffffffffffff1673ffffffffffffffffffffffffffffffffffffffff1681526020019081526020015f205f3373ffffffffffffffffffffffffffffffffffffffff1673ffffffffffffffffffffffffffffffffffffffff1681526020019081526020015f205f828254610f2b9190611829565b925050819055508484610f3e9190611829565b600c5f8873ffffffffffffffffffffffffffffffffffffffff1673ffffffffffffffffffffffffffffffffffffffff1681526020019081526020015f208190555060045f9054906101000a900473ffffffffffffffffffffffffffffffffffffffff1673ffffffffffffffffffffffffffffffffffffffff1663a9059cbb33838587610fca9190611829565b610fd49190611829565b6040518363ffffffff1660e01b8152600401610ff1929190611aea565b6020604051808303815f875af115801561100d573d5f803e3d5ffd5b505050506040513d601f19601f820116820180604052508101906110319190611964565b507f2c76e7a47fd53e2854856ac3f0a5f3ee40d15cfaa82266357ea9779c486ab9c333875f888787878c8c6110669190611829565b60405161107a98979695949392919061199e565b60405180910390a161108c8282611295565b505050505050565b60025481565b6110a2611156565b5f73ffffffffffffffffffffffffffffffffffffffff168173ffffffffffffffffffffffffffffffffffffffff1603611110576040517f08c379a000000000000000000000000000000000000000000000000000000000815260040161110790611b81565b60405180910390fd5b611119816111d4565b50565b600c602052805f5260405f205f915090505481565b60045f9054906101000a900473ffffffffffffffffffffffffffffffffffffffff1681565b61115e6114e3565b73ffffffffffffffffffffffffffffffffffffffff1661117c610c6c565b73ffffffffffffffffffffffffffffffffffffffff16146111d2576040517f08c379a00000000000000000000000000000000000000000000000000000000081526004016111c990611be9565b60405180910390fd5b565b5f805f9054906101000a900473ffffffffffffffffffffffffffffffffffffffff169050815f806101000a81548173ffffffffffffffffffffffffffffffffffffffff021916908373ffffffffffffffffffffffffffffffffffffffff1602179055508173ffffffffffffffffffffffffffffffffffffffff168173ffffffffffffffffffffffffffffffffffffffff167f8be0079c531659141344cd1fd0a4f28419497f9722a3daafe3b4186f6b6457e060405160405180910390a35050565b5f6064600854846112a69190611758565b6112b091906117c6565b90505f6064600954856112c39190611758565b6112cd91906117c6565b90505f6064600a54866112e09190611758565b6112ea91906117c6565b90505f60055f9054906101000a900473ffffffffffffffffffffffffffffffffffffffff1673ffffffffffffffffffffffffffffffffffffffff168460405161133290611c34565b5f6040518083038185875af1925050503d805f811461136c576040519150601f19603f3d011682016040523d82523d5f602084013e611371565b606091505b505090505f60065f9054906101000a900473ffffffffffffffffffffffffffffffffffffffff1673ffffffffffffffffffffffffffffffffffffffff16846040516113bb90611c34565b5f6040518083038185875af1925050503d805f81146113f5576040519150601f19603f3d011682016040523d82523d5f602084013e6113fa565b606091505b505090505f60075f9054906101000a900473ffffffffffffffffffffffffffffffffffffffff1673ffffffffffffffffffffffffffffffffffffffff168460405161144490611c34565b5f6040518083038185875af1925050503d805f811461147e576040519150601f19603f3d011682016040523d82523d5f602084013e611483565b606091505b505090508280156114915750815b801561149a5750805b6114d9576040517f08c379a00000000000000000000000000000000000000000000000000000000081526004016114d090611c92565b60405180910390fd5b5050505050505050565b5f33905090565b5f80fd5b5f73ffffffffffffffffffffffffffffffffffffffff82169050919050565b5f611517826114ee565b9050919050565b6115278161150d565b8114611531575f80fd5b50565b5f813590506115428161151e565b92915050565b5f806040838503121561155e5761155d6114ea565b5b5f61156b85828601611534565b925050602061157c85828601611534565b9150509250929050565b5f819050919050565b61159881611586565b82525050565b5f6020820190506115b15f83018461158f565b92915050565b6115c081611586565b81146115ca575f80fd5b50565b5f813590506115db816115b7565b92915050565b5f80604083850312156115f7576115f66114ea565b5b5f61160485828601611534565b9250506020611615858286016115cd565b9150509250929050565b6116288161150d565b82525050565b5f6020820190506116415f83018461161f565b92915050565b5f6020828403121561165c5761165b6114ea565b5b5f61166984828501611534565b91505092915050565b5f805f60608486031215611689576116886114ea565b5b5f61169686828701611534565b93505060206116a786828701611534565b92505060406116b886828701611534565b9150509250925092565b5f602082840312156116d7576116d66114ea565b5b5f6116e4848285016115cd565b91505092915050565b5f8060408385031215611703576117026114ea565b5b5f611710858286016115cd565b9250506020611721858286016115cd565b9150509250929050565b7f4e487b71000000000000000000000000000000000000000000000000000000005f52601160045260245ffd5b5f61176282611586565b915061176d83611586565b925082820261177b81611586565b915082820484148315176117925761179161172b565b5b5092915050565b7f4e487b71000000000000000000000000000000000000000000000000000000005f52601260045260245ffd5b5f6117d082611586565b91506117db83611586565b9250826117eb576117ea611799565b5b828204905092915050565b5f61180082611586565b915061180b83611586565b92508282019050808211156118235761182261172b565b5b92915050565b5f61183382611586565b915061183e83611586565b92508282039050818111156118565761185561172b565b5b92915050565b5f82825260208201905092915050565b7f4f6e6c79207468652073686172657327207375626a6563742063616e206275795f8201527f2074686520666972737420736861726500000000000000000000000000000000602082015250565b5f6118c660308361185c565b91506118d18261186c565b604082019050919050565b5f6020820190508181035f8301526118f3816118ba565b9050919050565b5f60608201905061190d5f83018661161f565b61191a602083018561161f565b611927604083018461158f565b949350505050565b5f8115159050919050565b6119438161192f565b811461194d575f80fd5b50565b5f8151905061195e8161193a565b92915050565b5f60208284031215611979576119786114ea565b5b5f61198684828501611950565b91505092915050565b6119988161192f565b82525050565b5f610100820190506119b25f83018b61161f565b6119bf602083018a61161f565b6119cc604083018961198f565b6119d9606083018861158f565b6119e6608083018761158f565b6119f360a083018661158f565b611a0060c083018561158f565b611a0d60e083018461158f565b9998505050505050505050565b7f43616e6e6f742073656c6c20746865206c6173742073686172650000000000005f82015250565b5f611a4e601a8361185c565b9150611a5982611a1a565b602082019050919050565b5f6020820190508181035f830152611a7b81611a42565b9050919050565b7f496e73756666696369656e7420736861726573000000000000000000000000005f82015250565b5f611ab660138361185c565b9150611ac182611a82565b602082019050919050565b5f6020820190508181035f830152611ae381611aaa565b9050919050565b5f604082019050611afd5f83018561161f565b611b0a602083018461158f565b9392505050565b7f4f776e61626c653a206e6577206f776e657220697320746865207a65726f20615f8201527f6464726573730000000000000000000000000000000000000000000000000000602082015250565b5f611b6b60268361185c565b9150611b7682611b11565b604082019050919050565b5f6020820190508181035f830152611b9881611b5f565b9050919050565b7f4f776e61626c653a2063616c6c6572206973206e6f7420746865206f776e65725f82015250565b5f611bd360208361185c565b9150611bde82611b9f565b602082019050919050565b5f6020820190508181035f830152611c0081611bc7565b9050919050565b5f81905092915050565b50565b5f611c1f5f83611c07565b9150611c2a82611c11565b5f82019050919050565b5f611c3e82611c14565b9150819050919050565b7f556e61626c6520746f2073656e64206665657320746f207061727469657300005f82015250565b5f611c7c601e8361185c565b9150611c8782611c48565b602082019050919050565b5f6020820190508181035f830152611ca981611c70565b905091905056fea264697066735822122068acf548ff5fea99394428ef65ed4c3ee405528538d77698fa0137aa0e41989364736f6c63430008160033",
					"opcodes": "PUSH1 0x80 PUSH1 0x40 MSTORE PUSH1 0x4 PUSH1 0x8 SSTORE PUSH1 0x4 PUSH1 0x9 SSTORE PUSH1 0x2 PUSH1 0xA SSTORE CALLVALUE DUP1 ISZERO PUSH2 0x1E JUMPI PUSH0 DUP1 REVERT JUMPDEST POP PUSH2 0x3B PUSH2 0x30 PUSH2 0x40 PUSH1 0x20 SHL PUSH1 0x20 SHR JUMP JUMPDEST PUSH2 0x47 PUSH1 0x20 SHL PUSH1 0x20 SHR JUMP JUMPDEST PUSH2 0x108 JUMP JUMPDEST PUSH0 CALLER SWAP1 POP SWAP1 JUMP JUMPDEST PUSH0 DUP1 PUSH0 SWAP1 SLOAD SWAP1 PUSH2 0x100 EXP SWAP1 DIV PUSH20 0xFFFFFFFFFFFFFFFFFFFFFFFFFFFFFFFFFFFFFFFF AND SWAP1 POP DUP2 PUSH0 DUP1 PUSH2 0x100 EXP DUP2 SLOAD DUP2 PUSH20 0xFFFFFFFFFFFFFFFFFFFFFFFFFFFFFFFFFFFFFFFF MUL NOT AND SWAP1 DUP4 PUSH20 0xFFFFFFFFFFFFFFFFFFFFFFFFFFFFFFFFFFFFFFFF AND MUL OR SWAP1 SSTORE POP DUP2 PUSH20 0xFFFFFFFFFFFFFFFFFFFFFFFFFFFFFFFFFFFFFFFF AND DUP2 PUSH20 0xFFFFFFFFFFFFFFFFFFFFFFFFFFFFFFFFFFFFFFFF AND PUSH32 0x8BE0079C531659141344CD1FD0A4F28419497F9722A3DAAFE3B4186F6B6457E0 PUSH1 0x40 MLOAD PUSH1 0x40 MLOAD DUP1 SWAP2 SUB SWAP1 LOG3 POP POP JUMP JUMPDEST PUSH2 0x1CE6 DUP1 PUSH2 0x115 PUSH0 CODECOPY PUSH0 RETURN INVALID PUSH1 0x80 PUSH1 0x40 MSTORE CALLVALUE DUP1 ISZERO PUSH2 0xF JUMPI PUSH0 DUP1 REVERT JUMPDEST POP PUSH1 0x4 CALLDATASIZE LT PUSH2 0x18C JUMPI PUSH0 CALLDATALOAD PUSH1 0xE0 SHR DUP1 PUSH4 0x5CF4EE91 GT PUSH2 0xDC JUMPI DUP1 PUSH4 0x9AE71781 GT PUSH2 0x95 JUMPI DUP1 PUSH4 0xD6E6EB9F GT PUSH2 0x6F JUMPI DUP1 PUSH4 0xD6E6EB9F EQ PUSH2 0x470 JUMPI DUP1 PUSH4 0xF2FDE38B EQ PUSH2 0x48E JUMPI DUP1 PUSH4 0xF9931BE0 EQ PUSH2 0x4AA JUMPI DUP1 PUSH4 0xFC0C546A EQ PUSH2 0x4DA JUMPI PUSH2 0x18C JUMP JUMPDEST DUP1 PUSH4 0x9AE71781 EQ PUSH2 0x408 JUMPI DUP1 PUSH4 0xA4983421 EQ PUSH2 0x438 JUMPI DUP1 PUSH4 0xA7D5E724 EQ PUSH2 0x454 JUMPI PUSH2 0x18C JUMP JUMPDEST DUP1 PUSH4 0x5CF4EE91 EQ PUSH2 0x358 JUMPI DUP1 PUSH4 0x715018A6 EQ PUSH2 0x388 JUMPI DUP1 PUSH4 0x83B7D8B2 EQ PUSH2 0x392 JUMPI DUP1 PUSH4 0x85EFEA6A EQ PUSH2 0x3B0 JUMPI DUP1 PUSH4 0x8DA5CB5B EQ PUSH2 0x3CC JUMPI DUP1 PUSH4 0x95E06F6E EQ PUSH2 0x3EA JUMPI PUSH2 0x18C JUMP JUMPDEST DUP1 PUSH4 0x24DC441D GT PUSH2 0x149 JUMPI DUP1 PUSH4 0x4635256E GT PUSH2 0x123 JUMPI DUP1 PUSH4 0x4635256E EQ PUSH2 0x2D2 JUMPI DUP1 PUSH4 0x4CE7957C EQ PUSH2 0x302 JUMPI DUP1 PUSH4 0x550E5CB0 EQ PUSH2 0x320 JUMPI DUP1 PUSH4 0x5A8A764E EQ PUSH2 0x33C JUMPI PUSH2 0x18C JUMP JUMPDEST DUP1 PUSH4 0x24DC441D EQ PUSH2 0x278 JUMPI DUP1 PUSH4 0x28F3994A EQ PUSH2 0x296 JUMPI DUP1 PUSH4 0x29040113 EQ PUSH2 0x2B4 JUMPI PUSH2 0x18C JUMP JUMPDEST DUP1 PUSH4 0x20235FF EQ PUSH2 0x190 JUMPI DUP1 PUSH4 0xF026F6D EQ PUSH2 0x1C0 JUMPI DUP1 PUSH4 0x10E1D8CA EQ PUSH2 0x1F0 JUMPI DUP1 PUSH4 0x144FA6D7 EQ PUSH2 0x20E JUMPI DUP1 PUSH4 0x17B36486 EQ PUSH2 0x22A JUMPI DUP1 PUSH4 0x2267A89C EQ PUSH2 0x248 JUMPI JUMPDEST PUSH0 DUP1 REVERT JUMPDEST PUSH2 0x1AA PUSH1 0x4 DUP1 CALLDATASIZE SUB DUP2 ADD SWAP1 PUSH2 0x1A5 SWAP2 SWAP1 PUSH2 0x1548 JUMP JUMPDEST PUSH2 0x4F8 JUMP JUMPDEST PUSH1 0x40 MLOAD PUSH2 0x1B7 SWAP2 SWAP1 PUSH2 0x159E JUMP JUMPDEST PUSH1 0x40 MLOAD DUP1 SWAP2 SUB SWAP1 RETURN JUMPDEST PUSH2 0x1DA PUSH1 0x4 DUP1 CALLDATASIZE SUB DUP2 ADD SWAP1 PUSH2 0x1D5 SWAP2 SWAP1 PUSH2 0x15E1 JUMP JUMPDEST PUSH2 0x518 JUMP JUMPDEST PUSH1 0x40 MLOAD PUSH2 0x1E7 SWAP2 SWAP1 PUSH2 0x159E JUMP JUMPDEST PUSH1 0x40 MLOAD DUP1 SWAP2 SUB SWAP1 RETURN JUMPDEST PUSH2 0x1F8 PUSH2 0x590 JUMP JUMPDEST PUSH1 0x40 MLOAD PUSH2 0x205 SWAP2 SWAP1 PUSH2 0x162E JUMP JUMPDEST PUSH1 0x40 MLOAD DUP1 SWAP2 SUB SWAP1 RETURN JUMPDEST PUSH2 0x228 PUSH1 0x4 DUP1 CALLDATASIZE SUB DUP2 ADD SWAP1 PUSH2 0x223 SWAP2 SWAP1 PUSH2 0x1647 JUMP JUMPDEST PUSH2 0x5B5 JUMP JUMPDEST STOP JUMPDEST PUSH2 0x232 PUSH2 0x600 JUMP JUMPDEST PUSH1 0x40 MLOAD PUSH2 0x23F SWAP2 SWAP1 PUSH2 0x159E JUMP JUMPDEST PUSH1 0x40 MLOAD DUP1 SWAP2 SUB SWAP1 RETURN JUMPDEST PUSH2 0x262 PUSH1 0x4 DUP1 CALLDATASIZE SUB DUP2 ADD SWAP1 PUSH2 0x25D SWAP2 SWAP1 PUSH2 0x15E1 JUMP JUMPDEST PUSH2 0x606 JUMP JUMPDEST PUSH1 0x40 MLOAD PUSH2 0x26F SWAP2 SWAP1 PUSH2 0x159E JUMP JUMPDEST PUSH1 0x40 MLOAD DUP1 SWAP2 SUB SWAP1 RETURN JUMPDEST PUSH2 0x280 PUSH2 0x67E JUMP JUMPDEST PUSH1 0x40 MLOAD PUSH2 0x28D SWAP2 SWAP1 PUSH2 0x159E JUMP JUMPDEST PUSH1 0x40 MLOAD DUP1 SWAP2 SUB SWAP1 RETURN JUMPDEST PUSH2 0x29E PUSH2 0x684 JUMP JUMPDEST PUSH1 0x40 MLOAD PUSH2 0x2AB SWAP2 SWAP1 PUSH2 0x159E JUMP JUMPDEST PUSH1 0x40 MLOAD DUP1 SWAP2 SUB SWAP1 RETURN JUMPDEST PUSH2 0x2BC PUSH2 0x68A JUMP JUMPDEST PUSH1 0x40 MLOAD PUSH2 0x2C9 SWAP2 SWAP1 PUSH2 0x162E JUMP JUMPDEST PUSH1 0x40 MLOAD DUP1 SWAP2 SUB SWAP1 RETURN JUMPDEST PUSH2 0x2EC PUSH1 0x4 DUP1 CALLDATASIZE SUB DUP2 ADD SWAP1 PUSH2 0x2E7 SWAP2 SWAP1 PUSH2 0x15E1 JUMP JUMPDEST PUSH2 0x6AF JUMP JUMPDEST PUSH1 0x40 MLOAD PUSH2 0x2F9 SWAP2 SWAP1 PUSH2 0x159E JUMP JUMPDEST PUSH1 0x40 MLOAD DUP1 SWAP2 SUB SWAP1 RETURN JUMPDEST PUSH2 0x30A PUSH2 0x6FF JUMP JUMPDEST PUSH1 0x40 MLOAD PUSH2 0x317 SWAP2 SWAP1 PUSH2 0x162E JUMP JUMPDEST PUSH1 0x40 MLOAD DUP1 SWAP2 SUB SWAP1 RETURN JUMPDEST PUSH2 0x33A PUSH1 0x4 DUP1 CALLDATASIZE SUB DUP2 ADD SWAP1 PUSH2 0x335 SWAP2 SWAP1 PUSH2 0x1672 JUMP JUMPDEST PUSH2 0x724 JUMP JUMPDEST STOP JUMPDEST PUSH2 0x356 PUSH1 0x4 DUP1 CALLDATASIZE SUB DUP2 ADD SWAP1 PUSH2 0x351 SWAP2 SWAP1 PUSH2 0x16C2 JUMP JUMPDEST PUSH2 0x7F1 JUMP JUMPDEST STOP JUMPDEST PUSH2 0x372 PUSH1 0x4 DUP1 CALLDATASIZE SUB DUP2 ADD SWAP1 PUSH2 0x36D SWAP2 SWAP1 PUSH2 0x16ED JUMP JUMPDEST PUSH2 0x803 JUMP JUMPDEST PUSH1 0x40 MLOAD PUSH2 0x37F SWAP2 SWAP1 PUSH2 0x159E JUMP JUMPDEST PUSH1 0x40 MLOAD DUP1 SWAP2 SUB SWAP1 RETURN JUMPDEST PUSH2 0x390 PUSH2 0x933 JUMP JUMPDEST STOP JUMPDEST PUSH2 0x39A PUSH2 0x946 JUMP JUMPDEST PUSH1 0x40 MLOAD PUSH2 0x3A7 SWAP2 SWAP1 PUSH2 0x162E JUMP JUMPDEST PUSH1 0x40 MLOAD DUP1 SWAP2 SUB SWAP1 RETURN JUMPDEST PUSH2 0x3CA PUSH1 0x4 DUP1 CALLDATASIZE SUB DUP2 ADD SWAP1 PUSH2 0x3C5 SWAP2 SWAP1 PUSH2 0x15E1 JUMP JUMPDEST PUSH2 0x96B JUMP JUMPDEST STOP JUMPDEST PUSH2 0x3D4 PUSH2 0xC6C JUMP JUMPDEST PUSH1 0x40 MLOAD PUSH2 0x3E1 SWAP2 SWAP1 PUSH2 0x162E JUMP JUMPDEST PUSH1 0x40 MLOAD DUP1 SWAP2 SUB SWAP1 RETURN JUMPDEST PUSH2 0x3F2 PUSH2 0xC93 JUMP JUMPDEST PUSH1 0x40 MLOAD PUSH2 0x3FF SWAP2 SWAP1 PUSH2 0x159E JUMP JUMPDEST PUSH1 0x40 MLOAD DUP1 SWAP2 SUB SWAP1 RETURN JUMPDEST PUSH2 0x422 PUSH1 0x4 DUP1 CALLDATASIZE SUB DUP2 ADD SWAP1 PUSH2 0x41D SWAP2 SWAP1 PUSH2 0x15E1 JUMP JUMPDEST PUSH2 0xC99 JUMP JUMPDEST PUSH1 0x40 MLOAD PUSH2 0x42F SWAP2 SWAP1 PUSH2 0x159E JUMP JUMPDEST PUSH1 0x40 MLOAD DUP1 SWAP2 SUB SWAP1 RETURN JUMPDEST PUSH2 0x452 PUSH1 0x4 DUP1 CALLDATASIZE SUB DUP2 ADD SWAP1 PUSH2 0x44D SWAP2 SWAP1 PUSH2 0x16C2 JUMP JUMPDEST PUSH2 0xCF4 JUMP JUMPDEST STOP JUMPDEST PUSH2 0x46E PUSH1 0x4 DUP1 CALLDATASIZE SUB DUP2 ADD SWAP1 PUSH2 0x469 SWAP2 SWAP1 PUSH2 0x15E1 JUMP JUMPDEST PUSH2 0xD06 JUMP JUMPDEST STOP JUMPDEST PUSH2 0x478 PUSH2 0x1094 JUMP JUMPDEST PUSH1 0x40 MLOAD PUSH2 0x485 SWAP2 SWAP1 PUSH2 0x159E JUMP JUMPDEST PUSH1 0x40 MLOAD DUP1 SWAP2 SUB SWAP1 RETURN JUMPDEST PUSH2 0x4A8 PUSH1 0x4 DUP1 CALLDATASIZE SUB DUP2 ADD SWAP1 PUSH2 0x4A3 SWAP2 SWAP1 PUSH2 0x1647 JUMP JUMPDEST PUSH2 0x109A JUMP JUMPDEST STOP JUMPDEST PUSH2 0x4C4 PUSH1 0x4 DUP1 CALLDATASIZE SUB DUP2 ADD SWAP1 PUSH2 0x4BF SWAP2 SWAP1 PUSH2 0x1647 JUMP JUMPDEST PUSH2 0x111C JUMP JUMPDEST PUSH1 0x40 MLOAD PUSH2 0x4D1 SWAP2 SWAP1 PUSH2 0x159E JUMP JUMPDEST PUSH1 0x40 MLOAD DUP1 SWAP2 SUB SWAP1 RETURN JUMPDEST PUSH2 0x4E2 PUSH2 0x1131 JUMP JUMPDEST PUSH1 0x40 MLOAD PUSH2 0x4EF SWAP2 SWAP1 PUSH2 0x162E JUMP JUMPDEST PUSH1 0x40 MLOAD DUP1 SWAP2 SUB SWAP1 RETURN JUMPDEST PUSH1 0xB PUSH1 0x20 MSTORE DUP2 PUSH0 MSTORE PUSH1 0x40 PUSH0 KECCAK256 PUSH1 0x20 MSTORE DUP1 PUSH0 MSTORE PUSH1 0x40 PUSH0 KECCAK256 PUSH0 SWAP2 POP SWAP2 POP POP SLOAD DUP2 JUMP JUMPDEST PUSH0 DUP1 PUSH2 0x524 DUP5 DUP5 PUSH2 0x6AF JUMP JUMPDEST SWAP1 POP PUSH0 PUSH8 0xDE0B6B3A7640000 PUSH1 0x2 SLOAD DUP4 PUSH2 0x53E SWAP2 SWAP1 PUSH2 0x1758 JUMP JUMPDEST PUSH2 0x548 SWAP2 SWAP1 PUSH2 0x17C6 JUMP JUMPDEST SWAP1 POP PUSH0 PUSH8 0xDE0B6B3A7640000 PUSH1 0x3 SLOAD DUP5 PUSH2 0x562 SWAP2 SWAP1 PUSH2 0x1758 JUMP JUMPDEST PUSH2 0x56C SWAP2 SWAP1 PUSH2 0x17C6 JUMP JUMPDEST SWAP1 POP DUP1 DUP3 DUP5 PUSH2 0x57B SWAP2 SWAP1 PUSH2 0x17F6 JUMP JUMPDEST PUSH2 0x585 SWAP2 SWAP1 PUSH2 0x17F6 JUMP JUMPDEST SWAP4 POP POP POP POP SWAP3 SWAP2 POP POP JUMP JUMPDEST PUSH1 0x5 PUSH0 SWAP1 SLOAD SWAP1 PUSH2 0x100 EXP SWAP1 DIV PUSH20 0xFFFFFFFFFFFFFFFFFFFFFFFFFFFFFFFFFFFFFFFF AND DUP2 JUMP JUMPDEST PUSH2 0x5BD PUSH2 0x1156 JUMP JUMPDEST DUP1 PUSH1 0x4 PUSH0 PUSH2 0x100 EXP DUP2 SLOAD DUP2 PUSH20 0xFFFFFFFFFFFFFFFFFFFFFFFFFFFFFFFFFFFFFFFF MUL NOT AND SWAP1 DUP4 PUSH20 0xFFFFFFFFFFFFFFFFFFFFFFFFFFFFFFFFFFFFFFFF AND MUL OR SWAP1 SSTORE POP POP JUMP JUMPDEST PUSH1 0x8 SLOAD DUP2 JUMP JUMPDEST PUSH0 DUP1 PUSH2 0x612 DUP5 DUP5 PUSH2 0xC99 JUMP JUMPDEST SWAP1 POP PUSH0 PUSH8 0xDE0B6B3A7640000 PUSH1 0x2 SLOAD DUP4 PUSH2 0x62C SWAP2 SWAP1 PUSH2 0x1758 JUMP JUMPDEST PUSH2 0x636 SWAP2 SWAP1 PUSH2 0x17C6 JUMP JUMPDEST SWAP1 POP PUSH0 PUSH8 0xDE0B6B3A7640000 PUSH1 0x3 SLOAD DUP5 PUSH2 0x650 SWAP2 SWAP1 PUSH2 0x1758 JUMP JUMPDEST PUSH2 0x65A SWAP2 SWAP1 PUSH2 0x17C6 JUMP JUMPDEST SWAP1 POP DUP1 DUP3 DUP5 PUSH2 0x669 SWAP2 SWAP1 PUSH2 0x1829 JUMP JUMPDEST PUSH2 0x673 SWAP2 SWAP1 PUSH2 0x1829 JUMP JUMPDEST SWAP4 POP POP POP POP SWAP3 SWAP2 POP POP JUMP JUMPDEST PUSH1 0x3 SLOAD DUP2 JUMP JUMPDEST PUSH1 0xA SLOAD DUP2 JUMP JUMPDEST PUSH1 0x6 PUSH0 SWAP1 SLOAD SWAP1 PUSH2 0x100 EXP SWAP1 DIV PUSH20 0xFFFFFFFFFFFFFFFFFFFFFFFFFFFFFFFFFFFFFFFF AND DUP2 JUMP JUMPDEST PUSH0 PUSH2 0x6F7 PUSH1 0xC PUSH0 DUP6 PUSH20 0xFFFFFFFFFFFFFFFFFFFFFFFFFFFFFFFFFFFFFFFF AND PUSH20 0xFFFFFFFFFFFFFFFFFFFFFFFFFFFFFFFFFFFFFFFF AND DUP2 MSTORE PUSH1 0x20 ADD SWAP1 DUP2 MSTORE PUSH1 0x20 ADD PUSH0 KECCAK256 SLOAD DUP4 PUSH2 0x803 JUMP JUMPDEST SWAP1 POP SWAP3 SWAP2 POP POP JUMP JUMPDEST PUSH1 0x1 PUSH0 SWAP1 SLOAD SWAP1 PUSH2 0x100 EXP SWAP1 DIV PUSH20 0xFFFFFFFFFFFFFFFFFFFFFFFFFFFFFFFFFFFFFFFF AND DUP2 JUMP JUMPDEST PUSH2 0x72C PUSH2 0x1156 JUMP JUMPDEST DUP3 PUSH1 0x5 PUSH0 PUSH2 0x100 EXP DUP2 SLOAD DUP2 PUSH20 0xFFFFFFFFFFFFFFFFFFFFFFFFFFFFFFFFFFFFFFFF MUL NOT AND SWAP1 DUP4 PUSH20 0xFFFFFFFFFFFFFFFFFFFFFFFFFFFFFFFFFFFFFFFF AND MUL OR SWAP1 SSTORE POP DUP2 PUSH1 0x6 PUSH0 PUSH2 0x100 EXP DUP2 SLOAD DUP2 PUSH20 0xFFFFFFFFFFFFFFFFFFFFFFFFFFFFFFFFFFFFFFFF MUL NOT AND SWAP1 DUP4 PUSH20 0xFFFFFFFFFFFFFFFFFFFFFFFFFFFFFFFFFFFFFFFF AND MUL OR SWAP1 SSTORE POP DUP1 PUSH1 0x7 PUSH0 PUSH2 0x100 EXP DUP2 SLOAD DUP2 PUSH20 0xFFFFFFFFFFFFFFFFFFFFFFFFFFFFFFFFFFFFFFFF MUL NOT AND SWAP1 DUP4 PUSH20 0xFFFFFFFFFFFFFFFFFFFFFFFFFFFFFFFFFFFFFFFF AND MUL OR SWAP1 SSTORE POP POP POP POP JUMP JUMPDEST PUSH2 0x7F9 PUSH2 0x1156 JUMP JUMPDEST DUP1 PUSH1 0x3 DUP2 SWAP1 SSTORE POP POP JUMP JUMPDEST PUSH0 DUP1 PUSH0 DUP5 EQ PUSH2 0x863 JUMPI PUSH1 0x6 PUSH1 0x1 DUP1 DUP7 PUSH2 0x81C SWAP2 SWAP1 PUSH2 0x1829 JUMP JUMPDEST PUSH1 0x2 PUSH2 0x828 SWAP2 SWAP1 PUSH2 0x1758 JUMP JUMPDEST PUSH2 0x832 SWAP2 SWAP1 PUSH2 0x17F6 JUMP JUMPDEST DUP6 PUSH1 0x1 DUP8 PUSH2 0x840 SWAP2 SWAP1 PUSH2 0x1829 JUMP JUMPDEST PUSH2 0x84A SWAP2 SWAP1 PUSH2 0x1758 JUMP JUMPDEST PUSH2 0x854 SWAP2 SWAP1 PUSH2 0x1758 JUMP JUMPDEST PUSH2 0x85E SWAP2 SWAP1 PUSH2 0x17C6 JUMP JUMPDEST PUSH2 0x865 JUMP JUMPDEST PUSH0 JUMPDEST SWAP1 POP PUSH0 DUP1 DUP6 EQ DUP1 ISZERO PUSH2 0x877 JUMPI POP PUSH1 0x1 DUP5 EQ JUMPDEST PUSH2 0x8F4 JUMPI PUSH1 0x6 PUSH1 0x1 DUP6 PUSH1 0x1 DUP9 PUSH2 0x88D SWAP2 SWAP1 PUSH2 0x1829 JUMP JUMPDEST PUSH2 0x897 SWAP2 SWAP1 PUSH2 0x17F6 JUMP JUMPDEST PUSH1 0x2 PUSH2 0x8A3 SWAP2 SWAP1 PUSH2 0x1758 JUMP JUMPDEST PUSH2 0x8AD SWAP2 SWAP1 PUSH2 0x17F6 JUMP JUMPDEST DUP6 DUP8 PUSH2 0x8B9 SWAP2 SWAP1 PUSH2 0x17F6 JUMP JUMPDEST DUP7 PUSH1 0x1 DUP10 PUSH2 0x8C7 SWAP2 SWAP1 PUSH2 0x1829 JUMP JUMPDEST PUSH2 0x8D1 SWAP2 SWAP1 PUSH2 0x17F6 JUMP JUMPDEST PUSH2 0x8DB SWAP2 SWAP1 PUSH2 0x1758 JUMP JUMPDEST PUSH2 0x8E5 SWAP2 SWAP1 PUSH2 0x1758 JUMP JUMPDEST PUSH2 0x8EF SWAP2 SWAP1 PUSH2 0x17C6 JUMP JUMPDEST PUSH2 0x8F6 JUMP JUMPDEST PUSH0 JUMPDEST SWAP1 POP PUSH0 DUP3 DUP3 PUSH2 0x905 SWAP2 SWAP1 PUSH2 0x1829 JUMP JUMPDEST SWAP1 POP PUSH2 0x3E80 PUSH8 0xDE0B6B3A7640000 DUP3 PUSH2 0x91E SWAP2 SWAP1 PUSH2 0x1758 JUMP JUMPDEST PUSH2 0x928 SWAP2 SWAP1 PUSH2 0x17C6 JUMP JUMPDEST SWAP4 POP POP POP POP SWAP3 SWAP2 POP POP JUMP JUMPDEST PUSH2 0x93B PUSH2 0x1156 JUMP JUMPDEST PUSH2 0x944 PUSH0 PUSH2 0x11D4 JUMP JUMPDEST JUMP JUMPDEST PUSH1 0x7 PUSH0 SWAP1 SLOAD SWAP1 PUSH2 0x100 EXP SWAP1 DIV PUSH20 0xFFFFFFFFFFFFFFFFFFFFFFFFFFFFFFFFFFFFFFFF AND DUP2 JUMP JUMPDEST PUSH0 PUSH1 0xC PUSH0 DUP5 PUSH20 0xFFFFFFFFFFFFFFFFFFFFFFFFFFFFFFFFFFFFFFFF AND PUSH20 0xFFFFFFFFFFFFFFFFFFFFFFFFFFFFFFFFFFFFFFFF AND DUP2 MSTORE PUSH1 0x20 ADD SWAP1 DUP2 MSTORE PUSH1 0x20 ADD PUSH0 KECCAK256 SLOAD SWAP1 POP PUSH0 DUP2 GT DUP1 PUSH2 0x9E5 JUMPI POP CALLER PUSH20 0xFFFFFFFFFFFFFFFFFFFFFFFFFFFFFFFFFFFFFFFF AND DUP4 PUSH20 0xFFFFFFFFFFFFFFFFFFFFFFFFFFFFFFFFFFFFFFFF AND EQ JUMPDEST PUSH2 0xA24 JUMPI PUSH1 0x40 MLOAD PUSH32 0x8C379A000000000000000000000000000000000000000000000000000000000 DUP2 MSTORE PUSH1 0x4 ADD PUSH2 0xA1B SWAP1 PUSH2 0x18DC JUMP JUMPDEST PUSH1 0x40 MLOAD DUP1 SWAP2 SUB SWAP1 REVERT JUMPDEST PUSH0 PUSH2 0xA2F DUP3 DUP5 PUSH2 0x803 JUMP JUMPDEST SWAP1 POP PUSH0 PUSH8 0xDE0B6B3A7640000 PUSH1 0x2 SLOAD DUP4 PUSH2 0xA49 SWAP2 SWAP1 PUSH2 0x1758 JUMP JUMPDEST PUSH2 0xA53 SWAP2 SWAP1 PUSH2 0x17C6 JUMP JUMPDEST SWAP1 POP PUSH0 PUSH8 0xDE0B6B3A7640000 PUSH1 0x3 SLOAD DUP5 PUSH2 0xA6D SWAP2 SWAP1 PUSH2 0x1758 JUMP JUMPDEST PUSH2 0xA77 SWAP2 SWAP1 PUSH2 0x17C6 JUMP JUMPDEST SWAP1 POP PUSH1 0x4 PUSH0 SWAP1 SLOAD SWAP1 PUSH2 0x100 EXP SWAP1 DIV PUSH20 0xFFFFFFFFFFFFFFFFFFFFFFFFFFFFFFFFFFFFFFFF AND PUSH20 0xFFFFFFFFFFFFFFFFFFFFFFFFFFFFFFFFFFFFFFFF AND PUSH4 0x23B872DD CALLER ADDRESS DUP5 DUP7 DUP9 PUSH2 0xAC5 SWAP2 SWAP1 PUSH2 0x17F6 JUMP JUMPDEST PUSH2 0xACF SWAP2 SWAP1 PUSH2 0x17F6 JUMP JUMPDEST PUSH1 0x40 MLOAD DUP5 PUSH4 0xFFFFFFFF AND PUSH1 0xE0 SHL DUP2 MSTORE PUSH1 0x4 ADD PUSH2 0xAED SWAP4 SWAP3 SWAP2 SWAP1 PUSH2 0x18FA JUMP JUMPDEST PUSH1 0x20 PUSH1 0x40 MLOAD DUP1 DUP4 SUB DUP2 PUSH0 DUP8 GAS CALL ISZERO DUP1 ISZERO PUSH2 0xB09 JUMPI RETURNDATASIZE PUSH0 DUP1 RETURNDATACOPY RETURNDATASIZE PUSH0 REVERT JUMPDEST POP POP POP POP PUSH1 0x40 MLOAD RETURNDATASIZE PUSH1 0x1F NOT PUSH1 0x1F DUP3 ADD AND DUP3 ADD DUP1 PUSH1 0x40 MSTORE POP DUP2 ADD SWAP1 PUSH2 0xB2D SWAP2 SWAP1 PUSH2 0x1964 JUMP JUMPDEST POP DUP5 PUSH1 0xB PUSH0 DUP9 PUSH20 0xFFFFFFFFFFFFFFFFFFFFFFFFFFFFFFFFFFFFFFFF AND PUSH20 0xFFFFFFFFFFFFFFFFFFFFFFFFFFFFFFFFFFFFFFFF AND DUP2 MSTORE PUSH1 0x20 ADD SWAP1 DUP2 MSTORE PUSH1 0x20 ADD PUSH0 KECCAK256 PUSH0 CALLER PUSH20 0xFFFFFFFFFFFFFFFFFFFFFFFFFFFFFFFFFFFFFFFF AND PUSH20 0xFFFFFFFFFFFFFFFFFFFFFFFFFFFFFFFFFFFFFFFF AND DUP2 MSTORE PUSH1 0x20 ADD SWAP1 DUP2 MSTORE PUSH1 0x20 ADD PUSH0 KECCAK256 PUSH0 DUP3 DUP3 SLOAD PUSH2 0xBB5 SWAP2 SWAP1 PUSH2 0x17F6 JUMP JUMPDEST SWAP3 POP POP DUP2 SWAP1 SSTORE POP DUP5 DUP5 PUSH2 0xBC8 SWAP2 SWAP1 PUSH2 0x17F6 JUMP JUMPDEST PUSH1 0xC PUSH0 DUP9 PUSH20 0xFFFFFFFFFFFFFFFFFFFFFFFFFFFFFFFFFFFFFFFF AND PUSH20 0xFFFFFFFFFFFFFFFFFFFFFFFFFFFFFFFFFFFFFFFF AND DUP2 MSTORE PUSH1 0x20 ADD SWAP1 DUP2 MSTORE PUSH1 0x20 ADD PUSH0 KECCAK256 DUP2 SWAP1 SSTORE POP PUSH32 0x2C76E7A47FD53E2854856AC3F0A5F3EE40D15CFAA82266357EA9779C486AB9C3 CALLER DUP8 PUSH1 0x1 DUP9 DUP8 DUP8 DUP8 DUP13 DUP13 PUSH2 0xC3E SWAP2 SWAP1 PUSH2 0x17F6 JUMP JUMPDEST PUSH1 0x40 MLOAD PUSH2 0xC52 SWAP9 SWAP8 SWAP7 SWAP6 SWAP5 SWAP4 SWAP3 SWAP2 SWAP1 PUSH2 0x199E JUMP JUMPDEST PUSH1 0x40 MLOAD DUP1 SWAP2 SUB SWAP1 LOG1 PUSH2 0xC64 DUP3 DUP3 PUSH2 0x1295 JUMP JUMPDEST POP POP POP POP POP POP JUMP JUMPDEST PUSH0 DUP1 PUSH0 SWAP1 SLOAD SWAP1 PUSH2 0x100 EXP SWAP1 DIV PUSH20 0xFFFFFFFFFFFFFFFFFFFFFFFFFFFFFFFFFFFFFFFF AND SWAP1 POP SWAP1 JUMP JUMPDEST PUSH1 0x9 SLOAD DUP2 JUMP JUMPDEST PUSH0 PUSH2 0xCEC DUP3 PUSH1 0xC PUSH0 DUP7 PUSH20 0xFFFFFFFFFFFFFFFFFFFFFFFFFFFFFFFFFFFFFFFF AND PUSH20 0xFFFFFFFFFFFFFFFFFFFFFFFFFFFFFFFFFFFFFFFF AND DUP2 MSTORE PUSH1 0x20 ADD SWAP1 DUP2 MSTORE PUSH1 0x20 ADD PUSH0 KECCAK256 SLOAD PUSH2 0xCE6 SWAP2 SWAP1 PUSH2 0x1829 JUMP JUMPDEST DUP4 PUSH2 0x803 JUMP JUMPDEST SWAP1 POP SWAP3 SWAP2 POP POP JUMP JUMPDEST PUSH2 0xCFC PUSH2 0x1156 JUMP JUMPDEST DUP1 PUSH1 0x2 DUP2 SWAP1 SSTORE POP POP JUMP JUMPDEST PUSH0 PUSH1 0xC PUSH0 DUP5 PUSH20 0xFFFFFFFFFFFFFFFFFFFFFFFFFFFFFFFFFFFFFFFF AND PUSH20 0xFFFFFFFFFFFFFFFFFFFFFFFFFFFFFFFFFFFFFFFF AND DUP2 MSTORE PUSH1 0x20 ADD SWAP1 DUP2 MSTORE PUSH1 0x20 ADD PUSH0 KECCAK256 SLOAD SWAP1 POP DUP2 DUP2 GT PUSH2 0xD89 JUMPI PUSH1 0x40 MLOAD PUSH32 0x8C379A000000000000000000000000000000000000000000000000000000000 DUP2 MSTORE PUSH1 0x4 ADD PUSH2 0xD80 SWAP1 PUSH2 0x1A64 JUMP JUMPDEST PUSH1 0x40 MLOAD DUP1 SWAP2 SUB SWAP1 REVERT JUMPDEST PUSH0 PUSH2 0xD9F DUP4 DUP4 PUSH2 0xD99 SWAP2 SWAP1 PUSH2 0x1829 JUMP JUMPDEST DUP5 PUSH2 0x803 JUMP JUMPDEST SWAP1 POP PUSH0 PUSH8 0xDE0B6B3A7640000 PUSH1 0x2 SLOAD DUP4 PUSH2 0xDB9 SWAP2 SWAP1 PUSH2 0x1758 JUMP JUMPDEST PUSH2 0xDC3 SWAP2 SWAP1 PUSH2 0x17C6 JUMP JUMPDEST SWAP1 POP PUSH0 PUSH8 0xDE0B6B3A7640000 PUSH1 0x3 SLOAD DUP5 PUSH2 0xDDD SWAP2 SWAP1 PUSH2 0x1758 JUMP JUMPDEST PUSH2 0xDE7 SWAP2 SWAP1 PUSH2 0x17C6 JUMP JUMPDEST SWAP1 POP DUP5 PUSH1 0xB PUSH0 DUP9 PUSH20 0xFFFFFFFFFFFFFFFFFFFFFFFFFFFFFFFFFFFFFFFF AND PUSH20 0xFFFFFFFFFFFFFFFFFFFFFFFFFFFFFFFFFFFFFFFF AND DUP2 MSTORE PUSH1 0x20 ADD SWAP1 DUP2 MSTORE PUSH1 0x20 ADD PUSH0 KECCAK256 PUSH0 CALLER PUSH20 0xFFFFFFFFFFFFFFFFFFFFFFFFFFFFFFFFFFFFFFFF AND PUSH20 0xFFFFFFFFFFFFFFFFFFFFFFFFFFFFFFFFFFFFFFFF AND DUP2 MSTORE PUSH1 0x20 ADD SWAP1 DUP2 MSTORE PUSH1 0x20 ADD PUSH0 KECCAK256 SLOAD LT ISZERO PUSH2 0xEA4 JUMPI PUSH1 0x40 MLOAD PUSH32 0x8C379A000000000000000000000000000000000000000000000000000000000 DUP2 MSTORE PUSH1 0x4 ADD PUSH2 0xE9B SWAP1 PUSH2 0x1ACC JUMP JUMPDEST PUSH1 0x40 MLOAD DUP1 SWAP2 SUB SWAP1 REVERT JUMPDEST DUP5 PUSH1 0xB PUSH0 DUP9 PUSH20 0xFFFFFFFFFFFFFFFFFFFFFFFFFFFFFFFFFFFFFFFF AND PUSH20 0xFFFFFFFFFFFFFFFFFFFFFFFFFFFFFFFFFFFFFFFF AND DUP2 MSTORE PUSH1 0x20 ADD SWAP1 DUP2 MSTORE PUSH1 0x20 ADD PUSH0 KECCAK256 PUSH0 CALLER PUSH20 0xFFFFFFFFFFFFFFFFFFFFFFFFFFFFFFFFFFFFFFFF AND PUSH20 0xFFFFFFFFFFFFFFFFFFFFFFFFFFFFFFFFFFFFFFFF AND DUP2 MSTORE PUSH1 0x20 ADD SWAP1 DUP2 MSTORE PUSH1 0x20 ADD PUSH0 KECCAK256 PUSH0 DUP3 DUP3 SLOAD PUSH2 0xF2B SWAP2 SWAP1 PUSH2 0x1829 JUMP JUMPDEST SWAP3 POP POP DUP2 SWAP1 SSTORE POP DUP5 DUP5 PUSH2 0xF3E SWAP2 SWAP1 PUSH2 0x1829 JUMP JUMPDEST PUSH1 0xC PUSH0 DUP9 PUSH20 0xFFFFFFFFFFFFFFFFFFFFFFFFFFFFFFFFFFFFFFFF AND PUSH20 0xFFFFFFFFFFFFFFFFFFFFFFFFFFFFFFFFFFFFFFFF AND DUP2 MSTORE PUSH1 0x20 ADD SWAP1 DUP2 MSTORE PUSH1 0x20 ADD PUSH0 KECCAK256 DUP2 SWAP1 SSTORE POP PUSH1 0x4 PUSH0 SWAP1 SLOAD SWAP1 PUSH2 0x100 EXP SWAP1 DIV PUSH20 0xFFFFFFFFFFFFFFFFFFFFFFFFFFFFFFFFFFFFFFFF AND PUSH20 0xFFFFFFFFFFFFFFFFFFFFFFFFFFFFFFFFFFFFFFFF AND PUSH4 0xA9059CBB CALLER DUP4 DUP6 DUP8 PUSH2 0xFCA SWAP2 SWAP1 PUSH2 0x1829 JUMP JUMPDEST PUSH2 0xFD4 SWAP2 SWAP1 PUSH2 0x1829 JUMP JUMPDEST PUSH1 0x40 MLOAD DUP4 PUSH4 0xFFFFFFFF AND PUSH1 0xE0 SHL DUP2 MSTORE PUSH1 0x4 ADD PUSH2 0xFF1 SWAP3 SWAP2 SWAP1 PUSH2 0x1AEA JUMP JUMPDEST PUSH1 0x20 PUSH1 0x40 MLOAD DUP1 DUP4 SUB DUP2 PUSH0 DUP8 GAS CALL ISZERO DUP1 ISZERO PUSH2 0x100D JUMPI RETURNDATASIZE PUSH0 DUP1 RETURNDATACOPY RETURNDATASIZE PUSH0 REVERT JUMPDEST POP POP POP POP PUSH1 0x40 MLOAD RETURNDATASIZE PUSH1 0x1F NOT PUSH1 0x1F DUP3 ADD AND DUP3 ADD DUP1 PUSH1 0x40 MSTORE POP DUP2 ADD SWAP1 PUSH2 0x1031 SWAP2 SWAP1 PUSH2 0x1964 JUMP JUMPDEST POP PUSH32 0x2C76E7A47FD53E2854856AC3F0A5F3EE40D15CFAA82266357EA9779C486AB9C3 CALLER DUP8 PUSH0 DUP9 DUP8 DUP8 DUP8 DUP13 DUP13 PUSH2 0x1066 SWAP2 SWAP1 PUSH2 0x1829 JUMP JUMPDEST PUSH1 0x40 MLOAD PUSH2 0x107A SWAP9 SWAP8 SWAP7 SWAP6 SWAP5 SWAP4 SWAP3 SWAP2 SWAP1 PUSH2 0x199E JUMP JUMPDEST PUSH1 0x40 MLOAD DUP1 SWAP2 SUB SWAP1 LOG1 PUSH2 0x108C DUP3 DUP3 PUSH2 0x1295 JUMP JUMPDEST POP POP POP POP POP POP JUMP JUMPDEST PUSH1 0x2 SLOAD DUP2 JUMP JUMPDEST PUSH2 0x10A2 PUSH2 0x1156 JUMP JUMPDEST PUSH0 PUSH20 0xFFFFFFFFFFFFFFFFFFFFFFFFFFFFFFFFFFFFFFFF AND DUP2 PUSH20 0xFFFFFFFFFFFFFFFFFFFFFFFFFFFFFFFFFFFFFFFF AND SUB PUSH2 0x1110 JUMPI PUSH1 0x40 MLOAD PUSH32 0x8C379A000000000000000000000000000000000000000000000000000000000 DUP2 MSTORE PUSH1 0x4 ADD PUSH2 0x1107 SWAP1 PUSH2 0x1B81 JUMP JUMPDEST PUSH1 0x40 MLOAD DUP1 SWAP2 SUB SWAP1 REVERT JUMPDEST PUSH2 0x1119 DUP2 PUSH2 0x11D4 JUMP JUMPDEST POP JUMP JUMPDEST PUSH1 0xC PUSH1 0x20 MSTORE DUP1 PUSH0 MSTORE PUSH1 0x40 PUSH0 KECCAK256 PUSH0 SWAP2 POP SWAP1 POP SLOAD DUP2 JUMP JUMPDEST PUSH1 0x4 PUSH0 SWAP1 SLOAD SWAP1 PUSH2 0x100 EXP SWAP1 DIV PUSH20 0xFFFFFFFFFFFFFFFFFFFFFFFFFFFFFFFFFFFFFFFF AND DUP2 JUMP JUMPDEST PUSH2 0x115E PUSH2 0x14E3 JUMP JUMPDEST PUSH20 0xFFFFFFFFFFFFFFFFFFFFFFFFFFFFFFFFFFFFFFFF AND PUSH2 0x117C PUSH2 0xC6C JUMP JUMPDEST PUSH20 0xFFFFFFFFFFFFFFFFFFFFFFFFFFFFFFFFFFFFFFFF AND EQ PUSH2 0x11D2 JUMPI PUSH1 0x40 MLOAD PUSH32 0x8C379A000000000000000000000000000000000000000000000000000000000 DUP2 MSTORE PUSH1 0x4 ADD PUSH2 0x11C9 SWAP1 PUSH2 0x1BE9 JUMP JUMPDEST PUSH1 0x40 MLOAD DUP1 SWAP2 SUB SWAP1 REVERT JUMPDEST JUMP JUMPDEST PUSH0 DUP1 PUSH0 SWAP1 SLOAD SWAP1 PUSH2 0x100 EXP SWAP1 DIV PUSH20 0xFFFFFFFFFFFFFFFFFFFFFFFFFFFFFFFFFFFFFFFF AND SWAP1 POP DUP2 PUSH0 DUP1 PUSH2 0x100 EXP DUP2 SLOAD DUP2 PUSH20 0xFFFFFFFFFFFFFFFFFFFFFFFFFFFFFFFFFFFFFFFF MUL NOT AND SWAP1 DUP4 PUSH20 0xFFFFFFFFFFFFFFFFFFFFFFFFFFFFFFFFFFFFFFFF AND MUL OR SWAP1 SSTORE POP DUP2 PUSH20 0xFFFFFFFFFFFFFFFFFFFFFFFFFFFFFFFFFFFFFFFF AND DUP2 PUSH20 0xFFFFFFFFFFFFFFFFFFFFFFFFFFFFFFFFFFFFFFFF AND PUSH32 0x8BE0079C531659141344CD1FD0A4F28419497F9722A3DAAFE3B4186F6B6457E0 PUSH1 0x40 MLOAD PUSH1 0x40 MLOAD DUP1 SWAP2 SUB SWAP1 LOG3 POP POP JUMP JUMPDEST PUSH0 PUSH1 0x64 PUSH1 0x8 SLOAD DUP5 PUSH2 0x12A6 SWAP2 SWAP1 PUSH2 0x1758 JUMP JUMPDEST PUSH2 0x12B0 SWAP2 SWAP1 PUSH2 0x17C6 JUMP JUMPDEST SWAP1 POP PUSH0 PUSH1 0x64 PUSH1 0x9 SLOAD DUP6 PUSH2 0x12C3 SWAP2 SWAP1 PUSH2 0x1758 JUMP JUMPDEST PUSH2 0x12CD SWAP2 SWAP1 PUSH2 0x17C6 JUMP JUMPDEST SWAP1 POP PUSH0 PUSH1 0x64 PUSH1 0xA SLOAD DUP7 PUSH2 0x12E0 SWAP2 SWAP1 PUSH2 0x1758 JUMP JUMPDEST PUSH2 0x12EA SWAP2 SWAP1 PUSH2 0x17C6 JUMP JUMPDEST SWAP1 POP PUSH0 PUSH1 0x5 PUSH0 SWAP1 SLOAD SWAP1 PUSH2 0x100 EXP SWAP1 DIV PUSH20 0xFFFFFFFFFFFFFFFFFFFFFFFFFFFFFFFFFFFFFFFF AND PUSH20 0xFFFFFFFFFFFFFFFFFFFFFFFFFFFFFFFFFFFFFFFF AND DUP5 PUSH1 0x40 MLOAD PUSH2 0x1332 SWAP1 PUSH2 0x1C34 JUMP JUMPDEST PUSH0 PUSH1 0x40 MLOAD DUP1 DUP4 SUB DUP2 DUP6 DUP8 GAS CALL SWAP3 POP POP POP RETURNDATASIZE DUP1 PUSH0 DUP2 EQ PUSH2 0x136C JUMPI PUSH1 0x40 MLOAD SWAP2 POP PUSH1 0x1F NOT PUSH1 0x3F RETURNDATASIZE ADD AND DUP3 ADD PUSH1 0x40 MSTORE RETURNDATASIZE DUP3 MSTORE RETURNDATASIZE PUSH0 PUSH1 0x20 DUP5 ADD RETURNDATACOPY PUSH2 0x1371 JUMP JUMPDEST PUSH1 0x60 SWAP2 POP JUMPDEST POP POP SWAP1 POP PUSH0 PUSH1 0x6 PUSH0 SWAP1 SLOAD SWAP1 PUSH2 0x100 EXP SWAP1 DIV PUSH20 0xFFFFFFFFFFFFFFFFFFFFFFFFFFFFFFFFFFFFFFFF AND PUSH20 0xFFFFFFFFFFFFFFFFFFFFFFFFFFFFFFFFFFFFFFFF AND DUP5 PUSH1 0x40 MLOAD PUSH2 0x13BB SWAP1 PUSH2 0x1C34 JUMP JUMPDEST PUSH0 PUSH1 0x40 MLOAD DUP1 DUP4 SUB DUP2 DUP6 DUP8 GAS CALL SWAP3 POP POP POP RETURNDATASIZE DUP1 PUSH0 DUP2 EQ PUSH2 0x13F5 JUMPI PUSH1 0x40 MLOAD SWAP2 POP PUSH1 0x1F NOT PUSH1 0x3F RETURNDATASIZE ADD AND DUP3 ADD PUSH1 0x40 MSTORE RETURNDATASIZE DUP3 MSTORE RETURNDATASIZE PUSH0 PUSH1 0x20 DUP5 ADD RETURNDATACOPY PUSH2 0x13FA JUMP JUMPDEST PUSH1 0x60 SWAP2 POP JUMPDEST POP POP SWAP1 POP PUSH0 PUSH1 0x7 PUSH0 SWAP1 SLOAD SWAP1 PUSH2 0x100 EXP SWAP1 DIV PUSH20 0xFFFFFFFFFFFFFFFFFFFFFFFFFFFFFFFFFFFFFFFF AND PUSH20 0xFFFFFFFFFFFFFFFFFFFFFFFFFFFFFFFFFFFFFFFF AND DUP5 PUSH1 0x40 MLOAD PUSH2 0x1444 SWAP1 PUSH2 0x1C34 JUMP JUMPDEST PUSH0 PUSH1 0x40 MLOAD DUP1 DUP4 SUB DUP2 DUP6 DUP8 GAS CALL SWAP3 POP POP POP RETURNDATASIZE DUP1 PUSH0 DUP2 EQ PUSH2 0x147E JUMPI PUSH1 0x40 MLOAD SWAP2 POP PUSH1 0x1F NOT PUSH1 0x3F RETURNDATASIZE ADD AND DUP3 ADD PUSH1 0x40 MSTORE RETURNDATASIZE DUP3 MSTORE RETURNDATASIZE PUSH0 PUSH1 0x20 DUP5 ADD RETURNDATACOPY PUSH2 0x1483 JUMP JUMPDEST PUSH1 0x60 SWAP2 POP JUMPDEST POP POP SWAP1 POP DUP3 DUP1 ISZERO PUSH2 0x1491 JUMPI POP DUP2 JUMPDEST DUP1 ISZERO PUSH2 0x149A JUMPI POP DUP1 JUMPDEST PUSH2 0x14D9 JUMPI PUSH1 0x40 MLOAD PUSH32 0x8C379A000000000000000000000000000000000000000000000000000000000 DUP2 MSTORE PUSH1 0x4 ADD PUSH2 0x14D0 SWAP1 PUSH2 0x1C92 JUMP JUMPDEST PUSH1 0x40 MLOAD DUP1 SWAP2 SUB SWAP1 REVERT JUMPDEST POP POP POP POP POP POP POP POP JUMP JUMPDEST PUSH0 CALLER SWAP1 POP SWAP1 JUMP JUMPDEST PUSH0 DUP1 REVERT JUMPDEST PUSH0 PUSH20 0xFFFFFFFFFFFFFFFFFFFFFFFFFFFFFFFFFFFFFFFF DUP3 AND SWAP1 POP SWAP2 SWAP1 POP JUMP JUMPDEST PUSH0 PUSH2 0x1517 DUP3 PUSH2 0x14EE JUMP JUMPDEST SWAP1 POP SWAP2 SWAP1 POP JUMP JUMPDEST PUSH2 0x1527 DUP2 PUSH2 0x150D JUMP JUMPDEST DUP2 EQ PUSH2 0x1531 JUMPI PUSH0 DUP1 REVERT JUMPDEST POP JUMP JUMPDEST PUSH0 DUP2 CALLDATALOAD SWAP1 POP PUSH2 0x1542 DUP2 PUSH2 0x151E JUMP JUMPDEST SWAP3 SWAP2 POP POP JUMP JUMPDEST PUSH0 DUP1 PUSH1 0x40 DUP4 DUP6 SUB SLT ISZERO PUSH2 0x155E JUMPI PUSH2 0x155D PUSH2 0x14EA JUMP JUMPDEST JUMPDEST PUSH0 PUSH2 0x156B DUP6 DUP3 DUP7 ADD PUSH2 0x1534 JUMP JUMPDEST SWAP3 POP POP PUSH1 0x20 PUSH2 0x157C DUP6 DUP3 DUP7 ADD PUSH2 0x1534 JUMP JUMPDEST SWAP2 POP POP SWAP3 POP SWAP3 SWAP1 POP JUMP JUMPDEST PUSH0 DUP2 SWAP1 POP SWAP2 SWAP1 POP JUMP JUMPDEST PUSH2 0x1598 DUP2 PUSH2 0x1586 JUMP JUMPDEST DUP3 MSTORE POP POP JUMP JUMPDEST PUSH0 PUSH1 0x20 DUP3 ADD SWAP1 POP PUSH2 0x15B1 PUSH0 DUP4 ADD DUP5 PUSH2 0x158F JUMP JUMPDEST SWAP3 SWAP2 POP POP JUMP JUMPDEST PUSH2 0x15C0 DUP2 PUSH2 0x1586 JUMP JUMPDEST DUP2 EQ PUSH2 0x15CA JUMPI PUSH0 DUP1 REVERT JUMPDEST POP JUMP JUMPDEST PUSH0 DUP2 CALLDATALOAD SWAP1 POP PUSH2 0x15DB DUP2 PUSH2 0x15B7 JUMP JUMPDEST SWAP3 SWAP2 POP POP JUMP JUMPDEST PUSH0 DUP1 PUSH1 0x40 DUP4 DUP6 SUB SLT ISZERO PUSH2 0x15F7 JUMPI PUSH2 0x15F6 PUSH2 0x14EA JUMP JUMPDEST JUMPDEST PUSH0 PUSH2 0x1604 DUP6 DUP3 DUP7 ADD PUSH2 0x1534 JUMP JUMPDEST SWAP3 POP POP PUSH1 0x20 PUSH2 0x1615 DUP6 DUP3 DUP7 ADD PUSH2 0x15CD JUMP JUMPDEST SWAP2 POP POP SWAP3 POP SWAP3 SWAP1 POP JUMP JUMPDEST PUSH2 0x1628 DUP2 PUSH2 0x150D JUMP JUMPDEST DUP3 MSTORE POP POP JUMP JUMPDEST PUSH0 PUSH1 0x20 DUP3 ADD SWAP1 POP PUSH2 0x1641 PUSH0 DUP4 ADD DUP5 PUSH2 0x161F JUMP JUMPDEST SWAP3 SWAP2 POP POP JUMP JUMPDEST PUSH0 PUSH1 0x20 DUP3 DUP5 SUB SLT ISZERO PUSH2 0x165C JUMPI PUSH2 0x165B PUSH2 0x14EA JUMP JUMPDEST JUMPDEST PUSH0 PUSH2 0x1669 DUP5 DUP3 DUP6 ADD PUSH2 0x1534 JUMP JUMPDEST SWAP2 POP POP SWAP3 SWAP2 POP POP JUMP JUMPDEST PUSH0 DUP1 PUSH0 PUSH1 0x60 DUP5 DUP7 SUB SLT ISZERO PUSH2 0x1689 JUMPI PUSH2 0x1688 PUSH2 0x14EA JUMP JUMPDEST JUMPDEST PUSH0 PUSH2 0x1696 DUP7 DUP3 DUP8 ADD PUSH2 0x1534 JUMP JUMPDEST SWAP4 POP POP PUSH1 0x20 PUSH2 0x16A7 DUP7 DUP3 DUP8 ADD PUSH2 0x1534 JUMP JUMPDEST SWAP3 POP POP PUSH1 0x40 PUSH2 0x16B8 DUP7 DUP3 DUP8 ADD PUSH2 0x1534 JUMP JUMPDEST SWAP2 POP POP SWAP3 POP SWAP3 POP SWAP3 JUMP JUMPDEST PUSH0 PUSH1 0x20 DUP3 DUP5 SUB SLT ISZERO PUSH2 0x16D7 JUMPI PUSH2 0x16D6 PUSH2 0x14EA JUMP JUMPDEST JUMPDEST PUSH0 PUSH2 0x16E4 DUP5 DUP3 DUP6 ADD PUSH2 0x15CD JUMP JUMPDEST SWAP2 POP POP SWAP3 SWAP2 POP POP JUMP JUMPDEST PUSH0 DUP1 PUSH1 0x40 DUP4 DUP6 SUB SLT ISZERO PUSH2 0x1703 JUMPI PUSH2 0x1702 PUSH2 0x14EA JUMP JUMPDEST JUMPDEST PUSH0 PUSH2 0x1710 DUP6 DUP3 DUP7 ADD PUSH2 0x15CD JUMP JUMPDEST SWAP3 POP POP PUSH1 0x20 PUSH2 0x1721 DUP6 DUP3 DUP7 ADD PUSH2 0x15CD JUMP JUMPDEST SWAP2 POP POP SWAP3 POP SWAP3 SWAP1 POP JUMP JUMPDEST PUSH32 0x4E487B7100000000000000000000000000000000000000000000000000000000 PUSH0 MSTORE PUSH1 0x11 PUSH1 0x4 MSTORE PUSH1 0x24 PUSH0 REVERT JUMPDEST PUSH0 PUSH2 0x1762 DUP3 PUSH2 0x1586 JUMP JUMPDEST SWAP2 POP PUSH2 0x176D DUP4 PUSH2 0x1586 JUMP JUMPDEST SWAP3 POP DUP3 DUP3 MUL PUSH2 0x177B DUP2 PUSH2 0x1586 JUMP JUMPDEST SWAP2 POP DUP3 DUP3 DIV DUP5 EQ DUP4 ISZERO OR PUSH2 0x1792 JUMPI PUSH2 0x1791 PUSH2 0x172B JUMP JUMPDEST JUMPDEST POP SWAP3 SWAP2 POP POP JUMP JUMPDEST PUSH32 0x4E487B7100000000000000000000000000000000000000000000000000000000 PUSH0 MSTORE PUSH1 0x12 PUSH1 0x4 MSTORE PUSH1 0x24 PUSH0 REVERT JUMPDEST PUSH0 PUSH2 0x17D0 DUP3 PUSH2 0x1586 JUMP JUMPDEST SWAP2 POP PUSH2 0x17DB DUP4 PUSH2 0x1586 JUMP JUMPDEST SWAP3 POP DUP3 PUSH2 0x17EB JUMPI PUSH2 0x17EA PUSH2 0x1799 JUMP JUMPDEST JUMPDEST DUP3 DUP3 DIV SWAP1 POP SWAP3 SWAP2 POP POP JUMP JUMPDEST PUSH0 PUSH2 0x1800 DUP3 PUSH2 0x1586 JUMP JUMPDEST SWAP2 POP PUSH2 0x180B DUP4 PUSH2 0x1586 JUMP JUMPDEST SWAP3 POP DUP3 DUP3 ADD SWAP1 POP DUP1 DUP3 GT ISZERO PUSH2 0x1823 JUMPI PUSH2 0x1822 PUSH2 0x172B JUMP JUMPDEST JUMPDEST SWAP3 SWAP2 POP POP JUMP JUMPDEST PUSH0 PUSH2 0x1833 DUP3 PUSH2 0x1586 JUMP JUMPDEST SWAP2 POP PUSH2 0x183E DUP4 PUSH2 0x1586 JUMP JUMPDEST SWAP3 POP DUP3 DUP3 SUB SWAP1 POP DUP2 DUP2 GT ISZERO PUSH2 0x1856 JUMPI PUSH2 0x1855 PUSH2 0x172B JUMP JUMPDEST JUMPDEST SWAP3 SWAP2 POP POP JUMP JUMPDEST PUSH0 DUP3 DUP3 MSTORE PUSH1 0x20 DUP3 ADD SWAP1 POP SWAP3 SWAP2 POP POP JUMP JUMPDEST PUSH32 0x4F6E6C79207468652073686172657327207375626A6563742063616E20627579 PUSH0 DUP3 ADD MSTORE PUSH32 0x2074686520666972737420736861726500000000000000000000000000000000 PUSH1 0x20 DUP3 ADD MSTORE POP JUMP JUMPDEST PUSH0 PUSH2 0x18C6 PUSH1 0x30 DUP4 PUSH2 0x185C JUMP JUMPDEST SWAP2 POP PUSH2 0x18D1 DUP3 PUSH2 0x186C JUMP JUMPDEST PUSH1 0x40 DUP3 ADD SWAP1 POP SWAP2 SWAP1 POP JUMP JUMPDEST PUSH0 PUSH1 0x20 DUP3 ADD SWAP1 POP DUP2 DUP2 SUB PUSH0 DUP4 ADD MSTORE PUSH2 0x18F3 DUP2 PUSH2 0x18BA JUMP JUMPDEST SWAP1 POP SWAP2 SWAP1 POP JUMP JUMPDEST PUSH0 PUSH1 0x60 DUP3 ADD SWAP1 POP PUSH2 0x190D PUSH0 DUP4 ADD DUP7 PUSH2 0x161F JUMP JUMPDEST PUSH2 0x191A PUSH1 0x20 DUP4 ADD DUP6 PUSH2 0x161F JUMP JUMPDEST PUSH2 0x1927 PUSH1 0x40 DUP4 ADD DUP5 PUSH2 0x158F JUMP JUMPDEST SWAP5 SWAP4 POP POP POP POP JUMP JUMPDEST PUSH0 DUP2 ISZERO ISZERO SWAP1 POP SWAP2 SWAP1 POP JUMP JUMPDEST PUSH2 0x1943 DUP2 PUSH2 0x192F JUMP JUMPDEST DUP2 EQ PUSH2 0x194D JUMPI PUSH0 DUP1 REVERT JUMPDEST POP JUMP JUMPDEST PUSH0 DUP2 MLOAD SWAP1 POP PUSH2 0x195E DUP2 PUSH2 0x193A JUMP JUMPDEST SWAP3 SWAP2 POP POP JUMP JUMPDEST PUSH0 PUSH1 0x20 DUP3 DUP5 SUB SLT ISZERO PUSH2 0x1979 JUMPI PUSH2 0x1978 PUSH2 0x14EA JUMP JUMPDEST JUMPDEST PUSH0 PUSH2 0x1986 DUP5 DUP3 DUP6 ADD PUSH2 0x1950 JUMP JUMPDEST SWAP2 POP POP SWAP3 SWAP2 POP POP JUMP JUMPDEST PUSH2 0x1998 DUP2 PUSH2 0x192F JUMP JUMPDEST DUP3 MSTORE POP POP JUMP JUMPDEST PUSH0 PUSH2 0x100 DUP3 ADD SWAP1 POP PUSH2 0x19B2 PUSH0 DUP4 ADD DUP12 PUSH2 0x161F JUMP JUMPDEST PUSH2 0x19BF PUSH1 0x20 DUP4 ADD DUP11 PUSH2 0x161F JUMP JUMPDEST PUSH2 0x19CC PUSH1 0x40 DUP4 ADD DUP10 PUSH2 0x198F JUMP JUMPDEST PUSH2 0x19D9 PUSH1 0x60 DUP4 ADD DUP9 PUSH2 0x158F JUMP JUMPDEST PUSH2 0x19E6 PUSH1 0x80 DUP4 ADD DUP8 PUSH2 0x158F JUMP JUMPDEST PUSH2 0x19F3 PUSH1 0xA0 DUP4 ADD DUP7 PUSH2 0x158F JUMP JUMPDEST PUSH2 0x1A00 PUSH1 0xC0 DUP4 ADD DUP6 PUSH2 0x158F JUMP JUMPDEST PUSH2 0x1A0D PUSH1 0xE0 DUP4 ADD DUP5 PUSH2 0x158F JUMP JUMPDEST SWAP10 SWAP9 POP POP POP POP POP POP POP POP POP JUMP JUMPDEST PUSH32 0x43616E6E6F742073656C6C20746865206C617374207368617265000000000000 PUSH0 DUP3 ADD MSTORE POP JUMP JUMPDEST PUSH0 PUSH2 0x1A4E PUSH1 0x1A DUP4 PUSH2 0x185C JUMP JUMPDEST SWAP2 POP PUSH2 0x1A59 DUP3 PUSH2 0x1A1A JUMP JUMPDEST PUSH1 0x20 DUP3 ADD SWAP1 POP SWAP2 SWAP1 POP JUMP JUMPDEST PUSH0 PUSH1 0x20 DUP3 ADD SWAP1 POP DUP2 DUP2 SUB PUSH0 DUP4 ADD MSTORE PUSH2 0x1A7B DUP2 PUSH2 0x1A42 JUMP JUMPDEST SWAP1 POP SWAP2 SWAP1 POP JUMP JUMPDEST PUSH32 0x496E73756666696369656E742073686172657300000000000000000000000000 PUSH0 DUP3 ADD MSTORE POP JUMP JUMPDEST PUSH0 PUSH2 0x1AB6 PUSH1 0x13 DUP4 PUSH2 0x185C JUMP JUMPDEST SWAP2 POP PUSH2 0x1AC1 DUP3 PUSH2 0x1A82 JUMP JUMPDEST PUSH1 0x20 DUP3 ADD SWAP1 POP SWAP2 SWAP1 POP JUMP JUMPDEST PUSH0 PUSH1 0x20 DUP3 ADD SWAP1 POP DUP2 DUP2 SUB PUSH0 DUP4 ADD MSTORE PUSH2 0x1AE3 DUP2 PUSH2 0x1AAA JUMP JUMPDEST SWAP1 POP SWAP2 SWAP1 POP JUMP JUMPDEST PUSH0 PUSH1 0x40 DUP3 ADD SWAP1 POP PUSH2 0x1AFD PUSH0 DUP4 ADD DUP6 PUSH2 0x161F JUMP JUMPDEST PUSH2 0x1B0A PUSH1 0x20 DUP4 ADD DUP5 PUSH2 0x158F JUMP JUMPDEST SWAP4 SWAP3 POP POP POP JUMP JUMPDEST PUSH32 0x4F776E61626C653A206E6577206F776E657220697320746865207A65726F2061 PUSH0 DUP3 ADD MSTORE PUSH32 0x6464726573730000000000000000000000000000000000000000000000000000 PUSH1 0x20 DUP3 ADD MSTORE POP JUMP JUMPDEST PUSH0 PUSH2 0x1B6B PUSH1 0x26 DUP4 PUSH2 0x185C JUMP JUMPDEST SWAP2 POP PUSH2 0x1B76 DUP3 PUSH2 0x1B11 JUMP JUMPDEST PUSH1 0x40 DUP3 ADD SWAP1 POP SWAP2 SWAP1 POP JUMP JUMPDEST PUSH0 PUSH1 0x20 DUP3 ADD SWAP1 POP DUP2 DUP2 SUB PUSH0 DUP4 ADD MSTORE PUSH2 0x1B98 DUP2 PUSH2 0x1B5F JUMP JUMPDEST SWAP1 POP SWAP2 SWAP1 POP JUMP JUMPDEST PUSH32 0x4F776E61626C653A2063616C6C6572206973206E6F7420746865206F776E6572 PUSH0 DUP3 ADD MSTORE POP JUMP JUMPDEST PUSH0 PUSH2 0x1BD3 PUSH1 0x20 DUP4 PUSH2 0x185C JUMP JUMPDEST SWAP2 POP PUSH2 0x1BDE DUP3 PUSH2 0x1B9F JUMP JUMPDEST PUSH1 0x20 DUP3 ADD SWAP1 POP SWAP2 SWAP1 POP JUMP JUMPDEST PUSH0 PUSH1 0x20 DUP3 ADD SWAP1 POP DUP2 DUP2 SUB PUSH0 DUP4 ADD MSTORE PUSH2 0x1C00 DUP2 PUSH2 0x1BC7 JUMP JUMPDEST SWAP1 POP SWAP2 SWAP1 POP JUMP JUMPDEST PUSH0 DUP2 SWAP1 POP SWAP3 SWAP2 POP POP JUMP JUMPDEST POP JUMP JUMPDEST PUSH0 PUSH2 0x1C1F PUSH0 DUP4 PUSH2 0x1C07 JUMP JUMPDEST SWAP2 POP PUSH2 0x1C2A DUP3 PUSH2 0x1C11 JUMP JUMPDEST PUSH0 DUP3 ADD SWAP1 POP SWAP2 SWAP1 POP JUMP JUMPDEST PUSH0 PUSH2 0x1C3E DUP3 PUSH2 0x1C14 JUMP JUMPDEST SWAP2 POP DUP2 SWAP1 POP SWAP2 SWAP1 POP JUMP JUMPDEST PUSH32 0x556E61626C6520746F2073656E64206665657320746F20706172746965730000 PUSH0 DUP3 ADD MSTORE POP JUMP JUMPDEST PUSH0 PUSH2 0x1C7C PUSH1 0x1E DUP4 PUSH2 0x185C JUMP JUMPDEST SWAP2 POP PUSH2 0x1C87 DUP3 PUSH2 0x1C48 JUMP JUMPDEST PUSH1 0x20 DUP3 ADD SWAP1 POP SWAP2 SWAP1 POP JUMP JUMPDEST PUSH0 PUSH1 0x20 DUP3 ADD SWAP1 POP DUP2 DUP2 SUB PUSH0 DUP4 ADD MSTORE PUSH2 0x1CA9 DUP2 PUSH2 0x1C70 JUMP JUMPDEST SWAP1 POP SWAP2 SWAP1 POP JUMP INVALID LOG2 PUSH5 0x6970667358 0x22 SLT KECCAK256 PUSH9 0xACF548FF5FEA993944 0x28 0xEF PUSH6 0xED4C3EE40552 DUP6 CODESIZE 0xD7 PUSH23 0x98FA0137AA0E41989364736F6C63430008160033000000 "
				},
				"gasEstimates": {
					"creation": {
						"codeDepositCost": "1479600",
						"executionCost": "infinite",
						"totalCost": "infinite"
					},
					"external": {
						"buySharesWithToken(address,uint256)": "infinite",
						"getBuyPrice(address,uint256)": "infinite",
						"getBuyPriceAfterFee(address,uint256)": "infinite",
						"getPrice(uint256,uint256)": "infinite",
						"getSellPrice(address,uint256)": "infinite",
						"getSellPriceAfterFee(address,uint256)": "infinite",
						"owner()": "2626",
						"partyA()": "2576",
						"partyAFeePercent()": "2537",
						"partyB()": "2598",
						"partyBFeePercent()": "2558",
						"partyC()": "2575",
						"partyCFeePercent()": "2493",
						"protocolFeeDestination()": "2575",
						"protocolFeePercent()": "2469",
						"renounceOwnership()": "30435",
						"sellSharesForToken(address,uint256)": "infinite",
						"setFeeDestinations(address,address,address)": "infinite",
						"setProtocolFeePercent(uint256)": "24843",
						"setSubjectFeePercent(uint256)": "24887",
						"setToken(address)": "27066",
						"sharesBalance(address,address)": "infinite",
						"sharesSupply(address)": "2890",
						"subjectFeePercent()": "2471",
						"token()": "2618",
						"transferOwnership(address)": "30797"
					},
					"internal": {
						"distributeFees(uint256,uint256)": "infinite"
					}
				},
				"methodIdentifiers": {
					"buySharesWithToken(address,uint256)": "85efea6a",
					"getBuyPrice(address,uint256)": "4635256e",
					"getBuyPriceAfterFee(address,uint256)": "0f026f6d",
					"getPrice(uint256,uint256)": "5cf4ee91",
					"getSellPrice(address,uint256)": "9ae71781",
					"getSellPriceAfterFee(address,uint256)": "2267a89c",
					"owner()": "8da5cb5b",
					"partyA()": "10e1d8ca",
					"partyAFeePercent()": "17b36486",
					"partyB()": "29040113",
					"partyBFeePercent()": "95e06f6e",
					"partyC()": "83b7d8b2",
					"partyCFeePercent()": "28f3994a",
					"protocolFeeDestination()": "4ce7957c",
					"protocolFeePercent()": "d6e6eb9f",
					"renounceOwnership()": "715018a6",
					"sellSharesForToken(address,uint256)": "a7d5e724",
					"setFeeDestinations(address,address,address)": "550e5cb0",
					"setProtocolFeePercent(uint256)": "a4983421",
					"setSubjectFeePercent(uint256)": "5a8a764e",
					"setToken(address)": "144fa6d7",
					"sharesBalance(address,address)": "020235ff",
					"sharesSupply(address)": "f9931be0",
					"subjectFeePercent()": "24dc441d",
					"token()": "fc0c546a",
					"transferOwnership(address)": "f2fde38b"
				}
			},
			"storageLayout": {
				"storage": [
					{
						"astId": 27,
						"contract": "contracts/FriendTechV2.sol:FriendtechSharesV2",
						"label": "_owner",
						"offset": 0,
						"slot": "0",
						"type": "t_address"
					},
					{
						"astId": 158,
						"contract": "contracts/FriendTechV2.sol:FriendtechSharesV2",
						"label": "protocolFeeDestination",
						"offset": 0,
						"slot": "1",
						"type": "t_address"
					},
					{
						"astId": 160,
						"contract": "contracts/FriendTechV2.sol:FriendtechSharesV2",
						"label": "protocolFeePercent",
						"offset": 0,
						"slot": "2",
						"type": "t_uint256"
					},
					{
						"astId": 162,
						"contract": "contracts/FriendTechV2.sol:FriendtechSharesV2",
						"label": "subjectFeePercent",
						"offset": 0,
						"slot": "3",
						"type": "t_uint256"
					},
					{
						"astId": 164,
						"contract": "contracts/FriendTechV2.sol:FriendtechSharesV2",
						"label": "token",
						"offset": 0,
						"slot": "4",
						"type": "t_address"
					},
					{
						"astId": 166,
						"contract": "contracts/FriendTechV2.sol:FriendtechSharesV2",
						"label": "partyA",
						"offset": 0,
						"slot": "5",
						"type": "t_address"
					},
					{
						"astId": 168,
						"contract": "contracts/FriendTechV2.sol:FriendtechSharesV2",
						"label": "partyB",
						"offset": 0,
						"slot": "6",
						"type": "t_address"
					},
					{
						"astId": 170,
						"contract": "contracts/FriendTechV2.sol:FriendtechSharesV2",
						"label": "partyC",
						"offset": 0,
						"slot": "7",
						"type": "t_address"
					},
					{
						"astId": 173,
						"contract": "contracts/FriendTechV2.sol:FriendtechSharesV2",
						"label": "partyAFeePercent",
						"offset": 0,
						"slot": "8",
						"type": "t_uint256"
					},
					{
						"astId": 176,
						"contract": "contracts/FriendTechV2.sol:FriendtechSharesV2",
						"label": "partyBFeePercent",
						"offset": 0,
						"slot": "9",
						"type": "t_uint256"
					},
					{
						"astId": 179,
						"contract": "contracts/FriendTechV2.sol:FriendtechSharesV2",
						"label": "partyCFeePercent",
						"offset": 0,
						"slot": "10",
						"type": "t_uint256"
					},
					{
						"astId": 203,
						"contract": "contracts/FriendTechV2.sol:FriendtechSharesV2",
						"label": "sharesBalance",
						"offset": 0,
						"slot": "11",
						"type": "t_mapping(t_address,t_mapping(t_address,t_uint256))"
					},
					{
						"astId": 207,
						"contract": "contracts/FriendTechV2.sol:FriendtechSharesV2",
						"label": "sharesSupply",
						"offset": 0,
						"slot": "12",
						"type": "t_mapping(t_address,t_uint256)"
					}
				],
				"types": {
					"t_address": {
						"encoding": "inplace",
						"label": "address",
						"numberOfBytes": "20"
					},
					"t_mapping(t_address,t_mapping(t_address,t_uint256))": {
						"encoding": "mapping",
						"key": "t_address",
						"label": "mapping(address => mapping(address => uint256))",
						"numberOfBytes": "32",
						"value": "t_mapping(t_address,t_uint256)"
					},
					"t_mapping(t_address,t_uint256)": {
						"encoding": "mapping",
						"key": "t_address",
						"label": "mapping(address => uint256)",
						"numberOfBytes": "32",
						"value": "t_uint256"
					},
					"t_uint256": {
						"encoding": "inplace",
						"label": "uint256",
						"numberOfBytes": "32"
					}
				}
			},
			"userdoc": {
				"kind": "user",
				"methods": {},
				"version": 1
			}
		}
	}
}