{
	"data": {
		"bytecode": {
			"linkReferences": {},
			"object": "6080604052600460085560046009556002600a5534801561001e575f80fd5b5061003b61003061004060201b60201c565b61004760201b60201c565b610108565b5f33905090565b5f805f9054906101000a900473ffffffffffffffffffffffffffffffffffffffff169050815f806101000a81548173ffffffffffffffffffffffffffffffffffffffff021916908373ffffffffffffffffffffffffffffffffffffffff1602179055508173ffffffffffffffffffffffffffffffffffffffff168173ffffffffffffffffffffffffffffffffffffffff167f8be0079c531659141344cd1fd0a4f28419497f9722a3daafe3b4186f6b6457e060405160405180910390a35050565b611ce6806101155f395ff3fe608060405234801561000f575f80fd5b506004361061018c575f3560e01c80635cf4ee91116100dc5780639ae7178111610095578063d6e6eb9f1161006f578063d6e6eb9f14610470578063f2fde38b1461048e578063f9931be0146104aa578063fc0c546a146104da5761018c565b80639ae7178114610408578063a498342114610438578063a7d5e724146104545761018c565b80635cf4ee9114610358578063715018a61461038857806383b7d8b21461039257806385efea6a146103b05780638da5cb5b146103cc57806395e06f6e146103ea5761018c565b806324dc441d116101495780634635256e116101235780634635256e146102d25780634ce7957c14610302578063550e5cb0146103205780635a8a764e1461033c5761018c565b806324dc441d1461027857806328f3994a1461029657806329040113146102b45761018c565b8063020235ff146101905780630f026f6d146101c057806310e1d8ca146101f0578063144fa6d71461020e57806317b364861461022a5780632267a89c14610248575b5f80fd5b6101aa60048036038101906101a59190611548565b6104f8565b6040516101b7919061159e565b60405180910390f35b6101da60048036038101906101d591906115e1565b610518565b6040516101e7919061159e565b60405180910390f35b6101f8610590565b604051610205919061162e565b60405180910390f35b61022860048036038101906102239190611647565b6105b5565b005b610232610600565b60405161023f919061159e565b60405180910390f35b610262600480360381019061025d91906115e1565b610606565b60405161026f919061159e565b60405180910390f35b61028061067e565b60405161028d919061159e565b60405180910390f35b61029e610684565b6040516102ab919061159e565b60405180910390f35b6102bc61068a565b6040516102c9919061162e565b60405180910390f35b6102ec60048036038101906102e791906115e1565b6106af565b6040516102f9919061159e565b60405180910390f35b61030a6106ff565b604051610317919061162e565b60405180910390f35b61033a60048036038101906103359190611672565b610724565b005b610356600480360381019061035191906116c2565b6107f1565b005b610372600480360381019061036d91906116ed565b610803565b60405161037f919061159e565b60405180910390f35b610390610933565b005b61039a610946565b6040516103a7919061162e565b60405180910390f35b6103ca60048036038101906103c591906115e1565b61096b565b005b6103d4610c6c565b6040516103e1919061162e565b60405180910390f35b6103f2610c93565b6040516103ff919061159e565b60405180910390f35b610422600480360381019061041d91906115e1565b610c99565b60405161042f919061159e565b60405180910390f35b610452600480360381019061044d91906116c2565b610cf4565b005b61046e600480360381019061046991906115e1565b610d06565b005b610478611094565b604051610485919061159e565b60405180910390f35b6104a860048036038101906104a39190611647565b61109a565b005b6104c460048036038101906104bf9190611647565b61111c565b6040516104d1919061159e565b60405180910390f35b6104e2611131565b6040516104ef919061162e565b60405180910390f35b600b602052815f5260405f20602052805f5260405f205f91509150505481565b5f8061052484846106af565b90505f670de0b6b3a76400006002548361053e9190611758565b61054891906117c6565b90505f670de0b6b3a7640000600354846105629190611758565b61056c91906117c6565b905080828461057b91906117f6565b61058591906117f6565b935050505092915050565b60055f9054906101000a900473ffffffffffffffffffffffffffffffffffffffff1681565b6105bd611156565b8060045f6101000a81548173ffffffffffffffffffffffffffffffffffffffff021916908373ffffffffffffffffffffffffffffffffffffffff16021790555050565b60085481565b5f806106128484610c99565b90505f670de0b6b3a76400006002548361062c9190611758565b61063691906117c6565b90505f670de0b6b3a7640000600354846106509190611758565b61065a91906117c6565b90508082846106699190611829565b6106739190611829565b935050505092915050565b60035481565b600a5481565b60065f9054906101000a900473ffffffffffffffffffffffffffffffffffffffff1681565b5f6106f7600c5f8573ffffffffffffffffffffffffffffffffffffffff1673ffffffffffffffffffffffffffffffffffffffff1681526020019081526020015f205483610803565b905092915050565b60015f9054906101000a900473ffffffffffffffffffffffffffffffffffffffff1681565b61072c611156565b8260055f6101000a81548173ffffffffffffffffffffffffffffffffffffffff021916908373ffffffffffffffffffffffffffffffffffffffff1602179055508160065f6101000a81548173ffffffffffffffffffffffffffffffffffffffff021916908373ffffffffffffffffffffffffffffffffffffffff1602179055508060075f6101000a81548173ffffffffffffffffffffffffffffffffffffffff021916908373ffffffffffffffffffffffffffffffffffffffff160217905550505050565b6107f9611156565b8060038190555050565b5f805f84146108635760066001808661081c9190611829565b60026108289190611758565b61083291906117f6565b856001876108409190611829565b61084a9190611758565b6108549190611758565b61085e91906117c6565b610865565b5f5b90505f80851480156108775750600184145b6108f457600660018560018861088d9190611829565b61089791906117f6565b60026108a39190611758565b6108ad91906117f6565b85876108b991906117f6565b866001896108c79190611829565b6108d191906117f6565b6108db9190611758565b6108e59190611758565b6108ef91906117c6565b6108f6565b5f5b90505f82826109059190611829565b9050613e80670de0b6b3a76400008261091e9190611758565b61092891906117c6565b935050505092915050565b61093b611156565b6109445f6111d4565b565b60075f9054906101000a900473ffffffffffffffffffffffffffffffffffffffff1681565b5f600c5f8473ffffffffffffffffffffffffffffffffffffffff1673ffffffffffffffffffffffffffffffffffffffff1681526020019081526020015f205490505f8111806109e557503373ffffffffffffffffffffffffffffffffffffffff168373ffffffffffffffffffffffffffffffffffffffff16145b610a24576040517f08c379a0000000000000000000000000000000000000000000000000000000008152600401610a1b906118dc565b60405180910390fd5b5f610a2f8284610803565b90505f670de0b6b3a764000060025483610a499190611758565b610a5391906117c6565b90505f670de0b6b3a764000060035484610a6d9190611758565b610a7791906117c6565b905060045f9054906101000a900473ffffffffffffffffffffffffffffffffffffffff1673ffffffffffffffffffffffffffffffffffffffff166323b872dd3330848688610ac591906117f6565b610acf91906117f6565b6040518463ffffffff1660e01b8152600401610aed939291906118fa565b6020604051808303815f875af1158015610b09573d5f803e3d5ffd5b505050506040513d601f19601f82011682018060405250810190610b2d9190611964565b5084600b5f8873ffffffffffffffffffffffffffffffffffffffff1673ffffffffffffffffffffffffffffffffffffffff1681526020019081526020015f205f3373ffffffffffffffffffffffffffffffffffffffff1673ffffffffffffffffffffffffffffffffffffffff1681526020019081526020015f205f828254610bb591906117f6565b925050819055508484610bc891906117f6565b600c5f8873ffffffffffffffffffffffffffffffffffffffff1673ffffffffffffffffffffffffffffffffffffffff1681526020019081526020015f20819055507f2c76e7a47fd53e2854856ac3f0a5f3ee40d15cfaa82266357ea9779c486ab9c333876001888787878c8c610c3e91906117f6565b604051610c5298979695949392919061199e565b60405180910390a1610c648282611295565b505050505050565b5f805f9054906101000a900473ffffffffffffffffffffffffffffffffffffffff16905090565b60095481565b5f610cec82600c5f8673ffffffffffffffffffffffffffffffffffffffff1673ffffffffffffffffffffffffffffffffffffffff1681526020019081526020015f2054610ce69190611829565b83610803565b905092915050565b610cfc611156565b8060028190555050565b5f600c5f8473ffffffffffffffffffffffffffffffffffffffff1673ffffffffffffffffffffffffffffffffffffffff1681526020019081526020015f20549050818111610d89576040517f08c379a0000000000000000000000000000000000000000000000000000000008152600401610d8090611a64565b60405180910390fd5b5f610d9f8383610d999190611829565b84610803565b90505f670de0b6b3a764000060025483610db99190611758565b610dc391906117c6565b90505f670de0b6b3a764000060035484610ddd9190611758565b610de791906117c6565b905084600b5f8873ffffffffffffffffffffffffffffffffffffffff1673ffffffffffffffffffffffffffffffffffffffff1681526020019081526020015f205f3373ffffffffffffffffffffffffffffffffffffffff1673ffffffffffffffffffffffffffffffffffffffff1681526020019081526020015f20541015610ea4576040517f08c379a0000000000000000000000000000000000000000000000000000000008152600401610e9b90611acc565b60405180910390fd5b84600b5f8873ffffffffffffffffffffffffffffffffffffffff1673ffffffffffffffffffffffffffffffffffffffff1681526020019081526020015f205f3373ffffffffffffffffffffffffffffffffffffffff1673ffffffffffffffffffffffffffffffffffffffff1681526020019081526020015f205f828254610f2b9190611829565b925050819055508484610f3e9190611829565b600c5f8873ffffffffffffffffffffffffffffffffffffffff1673ffffffffffffffffffffffffffffffffffffffff1681526020019081526020015f208190555060045f9054906101000a900473ffffffffffffffffffffffffffffffffffffffff1673ffffffffffffffffffffffffffffffffffffffff1663a9059cbb33838587610fca9190611829565b610fd49190611829565b6040518363ffffffff1660e01b8152600401610ff1929190611aea565b6020604051808303815f875af115801561100d573d5f803e3d5ffd5b505050506040513d601f19601f820116820180604052508101906110319190611964565b507f2c76e7a47fd53e2854856ac3f0a5f3ee40d15cfaa82266357ea9779c486ab9c333875f888787878c8c6110669190611829565b60405161107a98979695949392919061199e565b60405180910390a161108c8282611295565b505050505050565b60025481565b6110a2611156565b5f73ffffffffffffffffffffffffffffffffffffffff168173ffffffffffffffffffffffffffffffffffffffff1603611110576040517f08c379a000000000000000000000000000000000000000000000000000000000815260040161110790611b81565b60405180910390fd5b611119816111d4565b50565b600c602052805f5260405f205f915090505481565b60045f9054906101000a900473ffffffffffffffffffffffffffffffffffffffff1681565b61115e6114e3565b73ffffffffffffffffffffffffffffffffffffffff1661117c610c6c565b73ffffffffffffffffffffffffffffffffffffffff16146111d2576040517f08c379a00000000000000000000000000000000000000000000000000000000081526004016111c990611be9565b60405180910390fd5b565b5f805f9054906101000a900473ffffffffffffffffffffffffffffffffffffffff169050815f806101000a81548173ffffffffffffffffffffffffffffffffffffffff021916908373ffffffffffffffffffffffffffffffffffffffff1602179055508173ffffffffffffffffffffffffffffffffffffffff168173ffffffffffffffffffffffffffffffffffffffff167f8be0079c531659141344cd1fd0a4f28419497f9722a3daafe3b4186f6b6457e060405160405180910390a35050565b5f6064600854846112a69190611758565b6112b091906117c6565b90505f6064600954856112c39190611758565b6112cd91906117c6565b90505f6064600a54866112e09190611758565b6112ea91906117c6565b90505f60055f9054906101000a900473ffffffffffffffffffffffffffffffffffffffff1673ffffffffffffffffffffffffffffffffffffffff168460405161133290611c34565b5f6040518083038185875af1925050503d805f811461136c576040519150601f19603f3d011682016040523d82523d5f602084013e611371565b606091505b505090505f60065f9054906101000a900473ffffffffffffffffffffffffffffffffffffffff1673ffffffffffffffffffffffffffffffffffffffff16846040516113bb90611c34565b5f6040518083038185875af1925050503d805f81146113f5576040519150601f19603f3d011682016040523d82523d5f602084013e6113fa565b606091505b505090505f60075f9054906101000a900473ffffffffffffffffffffffffffffffffffffffff1673ffffffffffffffffffffffffffffffffffffffff168460405161144490611c34565b5f6040518083038185875af1925050503d805f811461147e576040519150601f19603f3d011682016040523d82523d5f602084013e611483565b606091505b505090508280156114915750815b801561149a5750805b6114d9576040517f08c379a00000000000000000000000000000000000000000000000000000000081526004016114d090611c92565b60405180910390fd5b5050505050505050565b5f33905090565b5f80fd5b5f73ffffffffffffffffffffffffffffffffffffffff82169050919050565b5f611517826114ee565b9050919050565b6115278161150d565b8114611531575f80fd5b50565b5f813590506115428161151e565b92915050565b5f806040838503121561155e5761155d6114ea565b5b5f61156b85828601611534565b925050602061157c85828601611534565b9150509250929050565b5f819050919050565b61159881611586565b82525050565b5f6020820190506115b15f83018461158f565b92915050565b6115c081611586565b81146115ca575f80fd5b50565b5f813590506115db816115b7565b92915050565b5f80604083850312156115f7576115f66114ea565b5b5f61160485828601611534565b9250506020611615858286016115cd565b9150509250929050565b6116288161150d565b82525050565b5f6020820190506116415f83018461161f565b92915050565b5f6020828403121561165c5761165b6114ea565b5b5f61166984828501611534565b91505092915050565b5f805f60608486031215611689576116886114ea565b5b5f61169686828701611534565b93505060206116a786828701611534565b92505060406116b886828701611534565b9150509250925092565b5f602082840312156116d7576116d66114ea565b5b5f6116e4848285016115cd565b91505092915050565b5f8060408385031215611703576117026114ea565b5b5f611710858286016115cd565b9250506020611721858286016115cd565b9150509250929050565b7f4e487b71000000000000000000000000000000000000000000000000000000005f52601160045260245ffd5b5f61176282611586565b915061176d83611586565b925082820261177b81611586565b915082820484148315176117925761179161172b565b5b5092915050565b7f4e487b71000000000000000000000000000000000000000000000000000000005f52601260045260245ffd5b5f6117d082611586565b91506117db83611586565b9250826117eb576117ea611799565b5b828204905092915050565b5f61180082611586565b915061180b83611586565b92508282019050808211156118235761182261172b565b5b92915050565b5f61183382611586565b915061183e83611586565b92508282039050818111156118565761185561172b565b5b92915050565b5f82825260208201905092915050565b7f4f6e6c79207468652073686172657327207375626a6563742063616e206275795f8201527f2074686520666972737420736861726500000000000000000000000000000000602082015250565b5f6118c660308361185c565b91506118d18261186c565b604082019050919050565b5f6020820190508181035f8301526118f3816118ba565b9050919050565b5f60608201905061190d5f83018661161f565b61191a602083018561161f565b611927604083018461158f565b949350505050565b5f8115159050919050565b6119438161192f565b811461194d575f80fd5b50565b5f8151905061195e8161193a565b92915050565b5f60208284031215611979576119786114ea565b5b5f61198684828501611950565b91505092915050565b6119988161192f565b82525050565b5f610100820190506119b25f83018b61161f565b6119bf602083018a61161f565b6119cc604083018961198f565b6119d9606083018861158f565b6119e6608083018761158f565b6119f360a083018661158f565b611a0060c083018561158f565b611a0d60e083018461158f565b9998505050505050505050565b7f43616e6e6f742073656c6c20746865206c6173742073686172650000000000005f82015250565b5f611a4e601a8361185c565b9150611a5982611a1a565b602082019050919050565b5f6020820190508181035f830152611a7b81611a42565b9050919050565b7f496e73756666696369656e7420736861726573000000000000000000000000005f82015250565b5f611ab660138361185c565b9150611ac182611a82565b602082019050919050565b5f6020820190508181035f830152611ae381611aaa565b9050919050565b5f604082019050611afd5f83018561161f565b611b0a602083018461158f565b9392505050565b7f4f776e61626c653a206e6577206f776e657220697320746865207a65726f20615f8201527f6464726573730000000000000000000000000000000000000000000000000000602082015250565b5f611b6b60268361185c565b9150611b7682611b11565b604082019050919050565b5f6020820190508181035f830152611b9881611b5f565b9050919050565b7f4f776e61626c653a2063616c6c6572206973206e6f7420746865206f776e65725f82015250565b5f611bd360208361185c565b9150611bde82611b9f565b602082019050919050565b5f6020820190508181035f830152611c0081611bc7565b9050919050565b5f81905092915050565b50565b5f611c1f5f83611c07565b9150611c2a82611c11565b5f82019050919050565b5f611c3e82611c14565b9150819050919050565b7f556e61626c6520746f2073656e64206665657320746f207061727469657300005f82015250565b5f611c7c601e8361185c565b9150611c8782611c48565b602082019050919050565b5f6020820190508181035f830152611ca981611c70565b905091905056fea264697066735822122068acf548ff5fea99394428ef65ed4c3ee405528538d77698fa0137aa0e41989364736f6c63430008160033",
			"opcodes": "PUSH1 0x80 PUSH1 0x40 MSTORE PUSH1 0x4 PUSH1 0x8 SSTORE PUSH1 0x4 PUSH1 0x9 SSTORE PUSH1 0x2 PUSH1 0xA SSTORE CALLVALUE DUP1 ISZERO PUSH2 0x1E JUMPI PUSH0 DUP1 REVERT JUMPDEST POP PUSH2 0x3B PUSH2 0x30 PUSH2 0x40 PUSH1 0x20 SHL PUSH1 0x20 SHR JUMP JUMPDEST PUSH2 0x47 PUSH1 0x20 SHL PUSH1 0x20 SHR JUMP JUMPDEST PUSH2 0x108 JUMP JUMPDEST PUSH0 CALLER SWAP1 POP SWAP1 JUMP JUMPDEST PUSH0 DUP1 PUSH0 SWAP1 SLOAD SWAP1 PUSH2 0x100 EXP SWAP1 DIV PUSH20 0xFFFFFFFFFFFFFFFFFFFFFFFFFFFFFFFFFFFFFFFF AND SWAP1 POP DUP2 PUSH0 DUP1 PUSH2 0x100 EXP DUP2 SLOAD DUP2 PUSH20 0xFFFFFFFFFFFFFFFFFFFFFFFFFFFFFFFFFFFFFFFF MUL NOT AND SWAP1 DUP4 PUSH20 0xFFFFFFFFFFFFFFFFFFFFFFFFFFFFFFFFFFFFFFFF AND MUL OR SWAP1 SSTORE POP DUP2 PUSH20 0xFFFFFFFFFFFFFFFFFFFFFFFFFFFFFFFFFFFFFFFF AND DUP2 PUSH20 0xFFFFFFFFFFFFFFFFFFFFFFFFFFFFFFFFFFFFFFFF AND PUSH32 0x8BE0079C531659141344CD1FD0A4F28419497F9722A3DAAFE3B4186F6B6457E0 PUSH1 0x40 MLOAD PUSH1 0x40 MLOAD DUP1 SWAP2 SUB SWAP1 LOG3 POP POP JUMP JUMPDEST PUSH2 0x1CE6 DUP1 PUSH2 0x115 PUSH0 CODECOPY PUSH0 RETURN INVALID PUSH1 0x80 PUSH1 0x40 MSTORE CALLVALUE DUP1 ISZERO PUSH2 0xF JUMPI PUSH0 DUP1 REVERT JUMPDEST POP PUSH1 0x4 CALLDATASIZE LT PUSH2 0x18C JUMPI PUSH0 CALLDATALOAD PUSH1 0xE0 SHR DUP1 PUSH4 0x5CF4EE91 GT PUSH2 0xDC JUMPI DUP1 PUSH4 0x9AE71781 GT PUSH2 0x95 JUMPI DUP1 PUSH4 0xD6E6EB9F GT PUSH2 0x6F JUMPI DUP1 PUSH4 0xD6E6EB9F EQ PUSH2 0x470 JUMPI DUP1 PUSH4 0xF2FDE38B EQ PUSH2 0x48E JUMPI DUP1 PUSH4 0xF9931BE0 EQ PUSH2 0x4AA JUMPI DUP1 PUSH4 0xFC0C546A EQ PUSH2 0x4DA JUMPI PUSH2 0x18C JUMP JUMPDEST DUP1 PUSH4 0x9AE71781 EQ PUSH2 0x408 JUMPI DUP1 PUSH4 0xA4983421 EQ PUSH2 0x438 JUMPI DUP1 PUSH4 0xA7D5E724 EQ PUSH2 0x454 JUMPI PUSH2 0x18C JUMP JUMPDEST DUP1 PUSH4 0x5CF4EE91 EQ PUSH2 0x358 JUMPI DUP1 PUSH4 0x715018A6 EQ PUSH2 0x388 JUMPI DUP1 PUSH4 0x83B7D8B2 EQ PUSH2 0x392 JUMPI DUP1 PUSH4 0x85EFEA6A EQ PUSH2 0x3B0 JUMPI DUP1 PUSH4 0x8DA5CB5B EQ PUSH2 0x3CC JUMPI DUP1 PUSH4 0x95E06F6E EQ PUSH2 0x3EA JUMPI PUSH2 0x18C JUMP JUMPDEST DUP1 PUSH4 0x24DC441D GT PUSH2 0x149 JUMPI DUP1 PUSH4 0x4635256E GT PUSH2 0x123 JUMPI DUP1 PUSH4 0x4635256E EQ PUSH2 0x2D2 JUMPI DUP1 PUSH4 0x4CE7957C EQ PUSH2 0x302 JUMPI DUP1 PUSH4 0x550E5CB0 EQ PUSH2 0x320 JUMPI DUP1 PUSH4 0x5A8A764E EQ PUSH2 0x33C JUMPI PUSH2 0x18C JUMP JUMPDEST DUP1 PUSH4 0x24DC441D EQ PUSH2 0x278 JUMPI DUP1 PUSH4 0x28F3994A EQ PUSH2 0x296 JUMPI DUP1 PUSH4 0x29040113 EQ PUSH2 0x2B4 JUMPI PUSH2 0x18C JUMP JUMPDEST DUP1 PUSH4 0x20235FF EQ PUSH2 0x190 JUMPI DUP1 PUSH4 0xF026F6D EQ PUSH2 0x1C0 JUMPI DUP1 PUSH4 0x10E1D8CA EQ PUSH2 0x1F0 JUMPI DUP1 PUSH4 0x144FA6D7 EQ PUSH2 0x20E JUMPI DUP1 PUSH4 0x17B36486 EQ PUSH2 0x22A JUMPI DUP1 PUSH4 0x2267A89C EQ PUSH2 0x248 JUMPI JUMPDEST PUSH0 DUP1 REVERT JUMPDEST PUSH2 0x1AA PUSH1 0x4 DUP1 CALLDATASIZE SUB DUP2 ADD SWAP1 PUSH2 0x1A5 SWAP2 SWAP1 PUSH2 0x1548 JUMP JUMPDEST PUSH2 0x4F8 JUMP JUMPDEST PUSH1 0x40 MLOAD PUSH2 0x1B7 SWAP2 SWAP1 PUSH2 0x159E JUMP JUMPDEST PUSH1 0x40 MLOAD DUP1 SWAP2 SUB SWAP1 RETURN JUMPDEST PUSH2 0x1DA PUSH1 0x4 DUP1 CALLDATASIZE SUB DUP2 ADD SWAP1 PUSH2 0x1D5 SWAP2 SWAP1 PUSH2 0x15E1 JUMP JUMPDEST PUSH2 0x518 JUMP JUMPDEST PUSH1 0x40 MLOAD PUSH2 0x1E7 SWAP2 SWAP1 PUSH2 0x159E JUMP JUMPDEST PUSH1 0x40 MLOAD DUP1 SWAP2 SUB SWAP1 RETURN JUMPDEST PUSH2 0x1F8 PUSH2 0x590 JUMP JUMPDEST PUSH1 0x40 MLOAD PUSH2 0x205 SWAP2 SWAP1 PUSH2 0x162E JUMP JUMPDEST PUSH1 0x40 MLOAD DUP1 SWAP2 SUB SWAP1 RETURN JUMPDEST PUSH2 0x228 PUSH1 0x4 DUP1 CALLDATASIZE SUB DUP2 ADD SWAP1 PUSH2 0x223 SWAP2 SWAP1 PUSH2 0x1647 JUMP JUMPDEST PUSH2 0x5B5 JUMP JUMPDEST STOP JUMPDEST PUSH2 0x232 PUSH2 0x600 JUMP JUMPDEST PUSH1 0x40 MLOAD PUSH2 0x23F SWAP2 SWAP1 PUSH2 0x159E JUMP JUMPDEST PUSH1 0x40 MLOAD DUP1 SWAP2 SUB SWAP1 RETURN JUMPDEST PUSH2 0x262 PUSH1 0x4 DUP1 CALLDATASIZE SUB DUP2 ADD SWAP1 PUSH2 0x25D SWAP2 SWAP1 PUSH2 0x15E1 JUMP JUMPDEST PUSH2 0x606 JUMP JUMPDEST PUSH1 0x40 MLOAD PUSH2 0x26F SWAP2 SWAP1 PUSH2 0x159E JUMP JUMPDEST PUSH1 0x40 MLOAD DUP1 SWAP2 SUB SWAP1 RETURN JUMPDEST PUSH2 0x280 PUSH2 0x67E JUMP JUMPDEST PUSH1 0x40 MLOAD PUSH2 0x28D SWAP2 SWAP1 PUSH2 0x159E JUMP JUMPDEST PUSH1 0x40 MLOAD DUP1 SWAP2 SUB SWAP1 RETURN JUMPDEST PUSH2 0x29E PUSH2 0x684 JUMP JUMPDEST PUSH1 0x40 MLOAD PUSH2 0x2AB SWAP2 SWAP1 PUSH2 0x159E JUMP JUMPDEST PUSH1 0x40 MLOAD DUP1 SWAP2 SUB SWAP1 RETURN JUMPDEST PUSH2 0x2BC PUSH2 0x68A JUMP JUMPDEST PUSH1 0x40 MLOAD PUSH2 0x2C9 SWAP2 SWAP1 PUSH2 0x162E JUMP JUMPDEST PUSH1 0x40 MLOAD DUP1 SWAP2 SUB SWAP1 RETURN JUMPDEST PUSH2 0x2EC PUSH1 0x4 DUP1 CALLDATASIZE SUB DUP2 ADD SWAP1 PUSH2 0x2E7 SWAP2 SWAP1 PUSH2 0x15E1 JUMP JUMPDEST PUSH2 0x6AF JUMP JUMPDEST PUSH1 0x40 MLOAD PUSH2 0x2F9 SWAP2 SWAP1 PUSH2 0x159E JUMP JUMPDEST PUSH1 0x40 MLOAD DUP1 SWAP2 SUB SWAP1 RETURN JUMPDEST PUSH2 0x30A PUSH2 0x6FF JUMP JUMPDEST PUSH1 0x40 MLOAD PUSH2 0x317 SWAP2 SWAP1 PUSH2 0x162E JUMP JUMPDEST PUSH1 0x40 MLOAD DUP1 SWAP2 SUB SWAP1 RETURN JUMPDEST PUSH2 0x33A PUSH1 0x4 DUP1 CALLDATASIZE SUB DUP2 ADD SWAP1 PUSH2 0x335 SWAP2 SWAP1 PUSH2 0x1672 JUMP JUMPDEST PUSH2 0x724 JUMP JUMPDEST STOP JUMPDEST PUSH2 0x356 PUSH1 0x4 DUP1 CALLDATASIZE SUB DUP2 ADD SWAP1 PUSH2 0x351 SWAP2 SWAP1 PUSH2 0x16C2 JUMP JUMPDEST PUSH2 0x7F1 JUMP JUMPDEST STOP JUMPDEST PUSH2 0x372 PUSH1 0x4 DUP1 CALLDATASIZE SUB DUP2 ADD SWAP1 PUSH2 0x36D SWAP2 SWAP1 PUSH2 0x16ED JUMP JUMPDEST PUSH2 0x803 JUMP JUMPDEST PUSH1 0x40 MLOAD PUSH2 0x37F SWAP2 SWAP1 PUSH2 0x159E JUMP JUMPDEST PUSH1 0x40 MLOAD DUP1 SWAP2 SUB SWAP1 RETURN JUMPDEST PUSH2 0x390 PUSH2 0x933 JUMP JUMPDEST STOP JUMPDEST PUSH2 0x39A PUSH2 0x946 JUMP JUMPDEST PUSH1 0x40 MLOAD PUSH2 0x3A7 SWAP2 SWAP1 PUSH2 0x162E JUMP JUMPDEST PUSH1 0x40 MLOAD DUP1 SWAP2 SUB SWAP1 RETURN JUMPDEST PUSH2 0x3CA PUSH1 0x4 DUP1 CALLDATASIZE SUB DUP2 ADD SWAP1 PUSH2 0x3C5 SWAP2 SWAP1 PUSH2 0x15E1 JUMP JUMPDEST PUSH2 0x96B JUMP JUMPDEST STOP JUMPDEST PUSH2 0x3D4 PUSH2 0xC6C JUMP JUMPDEST PUSH1 0x40 MLOAD PUSH2 0x3E1 SWAP2 SWAP1 PUSH2 0x162E JUMP JUMPDEST PUSH1 0x40 MLOAD DUP1 SWAP2 SUB SWAP1 RETURN JUMPDEST PUSH2 0x3F2 PUSH2 0xC93 JUMP JUMPDEST PUSH1 0x40 MLOAD PUSH2 0x3FF SWAP2 SWAP1 PUSH2 0x159E JUMP JUMPDEST PUSH1 0x40 MLOAD DUP1 SWAP2 SUB SWAP1 RETURN JUMPDEST PUSH2 0x422 PUSH1 0x4 DUP1 CALLDATASIZE SUB DUP2 ADD SWAP1 PUSH2 0x41D SWAP2 SWAP1 PUSH2 0x15E1 JUMP JUMPDEST PUSH2 0xC99 JUMP JUMPDEST PUSH1 0x40 MLOAD PUSH2 0x42F SWAP2 SWAP1 PUSH2 0x159E JUMP JUMPDEST PUSH1 0x40 MLOAD DUP1 SWAP2 SUB SWAP1 RETURN JUMPDEST PUSH2 0x452 PUSH1 0x4 DUP1 CALLDATASIZE SUB DUP2 ADD SWAP1 PUSH2 0x44D SWAP2 SWAP1 PUSH2 0x16C2 JUMP JUMPDEST PUSH2 0xCF4 JUMP JUMPDEST STOP JUMPDEST PUSH2 0x46E PUSH1 0x4 DUP1 CALLDATASIZE SUB DUP2 ADD SWAP1 PUSH2 0x469 SWAP2 SWAP1 PUSH2 0x15E1 JUMP JUMPDEST PUSH2 0xD06 JUMP JUMPDEST STOP JUMPDEST PUSH2 0x478 PUSH2 0x1094 JUMP JUMPDEST PUSH1 0x40 MLOAD PUSH2 0x485 SWAP2 SWAP1 PUSH2 0x159E JUMP JUMPDEST PUSH1 0x40 MLOAD DUP1 SWAP2 SUB SWAP1 RETURN JUMPDEST PUSH2 0x4A8 PUSH1 0x4 DUP1 CALLDATASIZE SUB DUP2 ADD SWAP1 PUSH2 0x4A3 SWAP2 SWAP1 PUSH2 0x1647 JUMP JUMPDEST PUSH2 0x109A JUMP JUMPDEST STOP JUMPDEST PUSH2 0x4C4 PUSH1 0x4 DUP1 CALLDATASIZE SUB DUP2 ADD SWAP1 PUSH2 0x4BF SWAP2 SWAP1 PUSH2 0x1647 JUMP JUMPDEST PUSH2 0x111C JUMP JUMPDEST PUSH1 0x40 MLOAD PUSH2 0x4D1 SWAP2 SWAP1 PUSH2 0x159E JUMP JUMPDEST PUSH1 0x40 MLOAD DUP1 SWAP2 SUB SWAP1 RETURN JUMPDEST PUSH2 0x4E2 PUSH2 0x1131 JUMP JUMPDEST PUSH1 0x40 MLOAD PUSH2 0x4EF SWAP2 SWAP1 PUSH2 0x162E JUMP JUMPDEST PUSH1 0x40 MLOAD DUP1 SWAP2 SUB SWAP1 RETURN JUMPDEST PUSH1 0xB PUSH1 0x20 MSTORE DUP2 PUSH0 MSTORE PUSH1 0x40 PUSH0 KECCAK256 PUSH1 0x20 MSTORE DUP1 PUSH0 MSTORE PUSH1 0x40 PUSH0 KECCAK256 PUSH0 SWAP2 POP SWAP2 POP POP SLOAD DUP2 JUMP JUMPDEST PUSH0 DUP1 PUSH2 0x524 DUP5 DUP5 PUSH2 0x6AF JUMP JUMPDEST SWAP1 POP PUSH0 PUSH8 0xDE0B6B3A7640000 PUSH1 0x2 SLOAD DUP4 PUSH2 0x53E SWAP2 SWAP1 PUSH2 0x1758 JUMP JUMPDEST PUSH2 0x548 SWAP2 SWAP1 PUSH2 0x17C6 JUMP JUMPDEST SWAP1 POP PUSH0 PUSH8 0xDE0B6B3A7640000 PUSH1 0x3 SLOAD DUP5 PUSH2 0x562 SWAP2 SWAP1 PUSH2 0x1758 JUMP JUMPDEST PUSH2 0x56C SWAP2 SWAP1 PUSH2 0x17C6 JUMP JUMPDEST SWAP1 POP DUP1 DUP3 DUP5 PUSH2 0x57B SWAP2 SWAP1 PUSH2 0x17F6 JUMP JUMPDEST PUSH2 0x585 SWAP2 SWAP1 PUSH2 0x17F6 JUMP JUMPDEST SWAP4 POP POP POP POP SWAP3 SWAP2 POP POP JUMP JUMPDEST PUSH1 0x5 PUSH0 SWAP1 SLOAD SWAP1 PUSH2 0x100 EXP SWAP1 DIV PUSH20 0xFFFFFFFFFFFFFFFFFFFFFFFFFFFFFFFFFFFFFFFF AND DUP2 JUMP JUMPDEST PUSH2 0x5BD PUSH2 0x1156 JUMP JUMPDEST DUP1 PUSH1 0x4 PUSH0 PUSH2 0x100 EXP DUP2 SLOAD DUP2 PUSH20 0xFFFFFFFFFFFFFFFFFFFFFFFFFFFFFFFFFFFFFFFF MUL NOT AND SWAP1 DUP4 PUSH20 0xFFFFFFFFFFFFFFFFFFFFFFFFFFFFFFFFFFFFFFFF AND MUL OR SWAP1 SSTORE POP POP JUMP JUMPDEST PUSH1 0x8 SLOAD DUP2 JUMP JUMPDEST PUSH0 DUP1 PUSH2 0x612 DUP5 DUP5 PUSH2 0xC99 JUMP JUMPDEST SWAP1 POP PUSH0 PUSH8 0xDE0B6B3A7640000 PUSH1 0x2 SLOAD DUP4 PUSH2 0x62C SWAP2 SWAP1 PUSH2 0x1758 JUMP JUMPDEST PUSH2 0x636 SWAP2 SWAP1 PUSH2 0x17C6 JUMP JUMPDEST SWAP1 POP PUSH0 PUSH8 0xDE0B6B3A7640000 PUSH1 0x3 SLOAD DUP5 PUSH2 0x650 SWAP2 SWAP1 PUSH2 0x1758 JUMP JUMPDEST PUSH2 0x65A SWAP2 SWAP1 PUSH2 0x17C6 JUMP JUMPDEST SWAP1 POP DUP1 DUP3 DUP5 PUSH2 0x669 SWAP2 SWAP1 PUSH2 0x1829 JUMP JUMPDEST PUSH2 0x673 SWAP2 SWAP1 PUSH2 0x1829 JUMP JUMPDEST SWAP4 POP POP POP POP SWAP3 SWAP2 POP POP JUMP JUMPDEST PUSH1 0x3 SLOAD DUP2 JUMP JUMPDEST PUSH1 0xA SLOAD DUP2 JUMP JUMPDEST PUSH1 0x6 PUSH0 SWAP1 SLOAD SWAP1 PUSH2 0x100 EXP SWAP1 DIV PUSH20 0xFFFFFFFFFFFFFFFFFFFFFFFFFFFFFFFFFFFFFFFF AND DUP2 JUMP JUMPDEST PUSH0 PUSH2 0x6F7 PUSH1 0xC PUSH0 DUP6 PUSH20 0xFFFFFFFFFFFFFFFFFFFFFFFFFFFFFFFFFFFFFFFF AND PUSH20 0xFFFFFFFFFFFFFFFFFFFFFFFFFFFFFFFFFFFFFFFF AND DUP2 MSTORE PUSH1 0x20 ADD SWAP1 DUP2 MSTORE PUSH1 0x20 ADD PUSH0 KECCAK256 SLOAD DUP4 PUSH2 0x803 JUMP JUMPDEST SWAP1 POP SWAP3 SWAP2 POP POP JUMP JUMPDEST PUSH1 0x1 PUSH0 SWAP1 SLOAD SWAP1 PUSH2 0x100 EXP SWAP1 DIV PUSH20 0xFFFFFFFFFFFFFFFFFFFFFFFFFFFFFFFFFFFFFFFF AND DUP2 JUMP JUMPDEST PUSH2 0x72C PUSH2 0x1156 JUMP JUMPDEST DUP3 PUSH1 0x5 PUSH0 PUSH2 0x100 EXP DUP2 SLOAD DUP2 PUSH20 0xFFFFFFFFFFFFFFFFFFFFFFFFFFFFFFFFFFFFFFFF MUL NOT AND SWAP1 DUP4 PUSH20 0xFFFFFFFFFFFFFFFFFFFFFFFFFFFFFFFFFFFFFFFF AND MUL OR SWAP1 SSTORE POP DUP2 PUSH1 0x6 PUSH0 PUSH2 0x100 EXP DUP2 SLOAD DUP2 PUSH20 0xFFFFFFFFFFFFFFFFFFFFFFFFFFFFFFFFFFFFFFFF MUL NOT AND SWAP1 DUP4 PUSH20 0xFFFFFFFFFFFFFFFFFFFFFFFFFFFFFFFFFFFFFFFF AND MUL OR SWAP1 SSTORE POP DUP1 PUSH1 0x7 PUSH0 PUSH2 0x100 EXP DUP2 SLOAD DUP2 PUSH20 0xFFFFFFFFFFFFFFFFFFFFFFFFFFFFFFFFFFFFFFFF MUL NOT AND SWAP1 DUP4 PUSH20 0xFFFFFFFFFFFFFFFFFFFFFFFFFFFFFFFFFFFFFFFF AND MUL OR SWAP1 SSTORE POP POP POP POP JUMP JUMPDEST PUSH2 0x7F9 PUSH2 0x1156 JUMP JUMPDEST DUP1 PUSH1 0x3 DUP2 SWAP1 SSTORE POP POP JUMP JUMPDEST PUSH0 DUP1 PUSH0 DUP5 EQ PUSH2 0x863 JUMPI PUSH1 0x6 PUSH1 0x1 DUP1 DUP7 PUSH2 0x81C SWAP2 SWAP1 PUSH2 0x1829 JUMP JUMPDEST PUSH1 0x2 PUSH2 0x828 SWAP2 SWAP1 PUSH2 0x1758 JUMP JUMPDEST PUSH2 0x832 SWAP2 SWAP1 PUSH2 0x17F6 JUMP JUMPDEST DUP6 PUSH1 0x1 DUP8 PUSH2 0x840 SWAP2 SWAP1 PUSH2 0x1829 JUMP JUMPDEST PUSH2 0x84A SWAP2 SWAP1 PUSH2 0x1758 JUMP JUMPDEST PUSH2 0x854 SWAP2 SWAP1 PUSH2 0x1758 JUMP JUMPDEST PUSH2 0x85E SWAP2 SWAP1 PUSH2 0x17C6 JUMP JUMPDEST PUSH2 0x865 JUMP JUMPDEST PUSH0 JUMPDEST SWAP1 POP PUSH0 DUP1 DUP6 EQ DUP1 ISZERO PUSH2 0x877 JUMPI POP PUSH1 0x1 DUP5 EQ JUMPDEST PUSH2 0x8F4 JUMPI PUSH1 0x6 PUSH1 0x1 DUP6 PUSH1 0x1 DUP9 PUSH2 0x88D SWAP2 SWAP1 PUSH2 0x1829 JUMP JUMPDEST PUSH2 0x897 SWAP2 SWAP1 PUSH2 0x17F6 JUMP JUMPDEST PUSH1 0x2 PUSH2 0x8A3 SWAP2 SWAP1 PUSH2 0x1758 JUMP JUMPDEST PUSH2 0x8AD SWAP2 SWAP1 PUSH2 0x17F6 JUMP JUMPDEST DUP6 DUP8 PUSH2 0x8B9 SWAP2 SWAP1 PUSH2 0x17F6 JUMP JUMPDEST DUP7 PUSH1 0x1 DUP10 PUSH2 0x8C7 SWAP2 SWAP1 PUSH2 0x1829 JUMP JUMPDEST PUSH2 0x8D1 SWAP2 SWAP1 PUSH2 0x17F6 JUMP JUMPDEST PUSH2 0x8DB SWAP2 SWAP1 PUSH2 0x1758 JUMP JUMPDEST PUSH2 0x8E5 SWAP2 SWAP1 PUSH2 0x1758 JUMP JUMPDEST PUSH2 0x8EF SWAP2 SWAP1 PUSH2 0x17C6 JUMP JUMPDEST PUSH2 0x8F6 JUMP JUMPDEST PUSH0 JUMPDEST SWAP1 POP PUSH0 DUP3 DUP3 PUSH2 0x905 SWAP2 SWAP1 PUSH2 0x1829 JUMP JUMPDEST SWAP1 POP PUSH2 0x3E80 PUSH8 0xDE0B6B3A7640000 DUP3 PUSH2 0x91E SWAP2 SWAP1 PUSH2 0x1758 JUMP JUMPDEST PUSH2 0x928 SWAP2 SWAP1 PUSH2 0x17C6 JUMP JUMPDEST SWAP4 POP POP POP POP SWAP3 SWAP2 POP POP JUMP JUMPDEST PUSH2 0x93B PUSH2 0x1156 JUMP JUMPDEST PUSH2 0x944 PUSH0 PUSH2 0x11D4 JUMP JUMPDEST JUMP JUMPDEST PUSH1 0x7 PUSH0 SWAP1 SLOAD SWAP1 PUSH2 0x100 EXP SWAP1 DIV PUSH20 0xFFFFFFFFFFFFFFFFFFFFFFFFFFFFFFFFFFFFFFFF AND DUP2 JUMP JUMPDEST PUSH0 PUSH1 0xC PUSH0 DUP5 PUSH20 0xFFFFFFFFFFFFFFFFFFFFFFFFFFFFFFFFFFFFFFFF AND PUSH20 0xFFFFFFFFFFFFFFFFFFFFFFFFFFFFFFFFFFFFFFFF AND DUP2 MSTORE PUSH1 0x20 ADD SWAP1 DUP2 MSTORE PUSH1 0x20 ADD PUSH0 KECCAK256 SLOAD SWAP1 POP PUSH0 DUP2 GT DUP1 PUSH2 0x9E5 JUMPI POP CALLER PUSH20 0xFFFFFFFFFFFFFFFFFFFFFFFFFFFFFFFFFFFFFFFF AND DUP4 PUSH20 0xFFFFFFFFFFFFFFFFFFFFFFFFFFFFFFFFFFFFFFFF AND EQ JUMPDEST PUSH2 0xA24 JUMPI PUSH1 0x40 MLOAD PUSH32 0x8C379A000000000000000000000000000000000000000000000000000000000 DUP2 MSTORE PUSH1 0x4 ADD PUSH2 0xA1B SWAP1 PUSH2 0x18DC JUMP JUMPDEST PUSH1 0x40 MLOAD DUP1 SWAP2 SUB SWAP1 REVERT JUMPDEST PUSH0 PUSH2 0xA2F DUP3 DUP5 PUSH2 0x803 JUMP JUMPDEST SWAP1 POP PUSH0 PUSH8 0xDE0B6B3A7640000 PUSH1 0x2 SLOAD DUP4 PUSH2 0xA49 SWAP2 SWAP1 PUSH2 0x1758 JUMP JUMPDEST PUSH2 0xA53 SWAP2 SWAP1 PUSH2 0x17C6 JUMP JUMPDEST SWAP1 POP PUSH0 PUSH8 0xDE0B6B3A7640000 PUSH1 0x3 SLOAD DUP5 PUSH2 0xA6D SWAP2 SWAP1 PUSH2 0x1758 JUMP JUMPDEST PUSH2 0xA77 SWAP2 SWAP1 PUSH2 0x17C6 JUMP JUMPDEST SWAP1 POP PUSH1 0x4 PUSH0 SWAP1 SLOAD SWAP1 PUSH2 0x100 EXP SWAP1 DIV PUSH20 0xFFFFFFFFFFFFFFFFFFFFFFFFFFFFFFFFFFFFFFFF AND PUSH20 0xFFFFFFFFFFFFFFFFFFFFFFFFFFFFFFFFFFFFFFFF AND PUSH4 0x23B872DD CALLER ADDRESS DUP5 DUP7 DUP9 PUSH2 0xAC5 SWAP2 SWAP1 PUSH2 0x17F6 JUMP JUMPDEST PUSH2 0xACF SWAP2 SWAP1 PUSH2 0x17F6 JUMP JUMPDEST PUSH1 0x40 MLOAD DUP5 PUSH4 0xFFFFFFFF AND PUSH1 0xE0 SHL DUP2 MSTORE PUSH1 0x4 ADD PUSH2 0xAED SWAP4 SWAP3 SWAP2 SWAP1 PUSH2 0x18FA JUMP JUMPDEST PUSH1 0x20 PUSH1 0x40 MLOAD DUP1 DUP4 SUB DUP2 PUSH0 DUP8 GAS CALL ISZERO DUP1 ISZERO PUSH2 0xB09 JUMPI RETURNDATASIZE PUSH0 DUP1 RETURNDATACOPY RETURNDATASIZE PUSH0 REVERT JUMPDEST POP POP POP POP PUSH1 0x40 MLOAD RETURNDATASIZE PUSH1 0x1F NOT PUSH1 0x1F DUP3 ADD AND DUP3 ADD DUP1 PUSH1 0x40 MSTORE POP DUP2 ADD SWAP1 PUSH2 0xB2D SWAP2 SWAP1 PUSH2 0x1964 JUMP JUMPDEST POP DUP5 PUSH1 0xB PUSH0 DUP9 PUSH20 0xFFFFFFFFFFFFFFFFFFFFFFFFFFFFFFFFFFFFFFFF AND PUSH20 0xFFFFFFFFFFFFFFFFFFFFFFFFFFFFFFFFFFFFFFFF AND DUP2 MSTORE PUSH1 0x20 ADD SWAP1 DUP2 MSTORE PUSH1 0x20 ADD PUSH0 KECCAK256 PUSH0 CALLER PUSH20 0xFFFFFFFFFFFFFFFFFFFFFFFFFFFFFFFFFFFFFFFF AND PUSH20 0xFFFFFFFFFFFFFFFFFFFFFFFFFFFFFFFFFFFFFFFF AND DUP2 MSTORE PUSH1 0x20 ADD SWAP1 DUP2 MSTORE PUSH1 0x20 ADD PUSH0 KECCAK256 PUSH0 DUP3 DUP3 SLOAD PUSH2 0xBB5 SWAP2 SWAP1 PUSH2 0x17F6 JUMP JUMPDEST SWAP3 POP POP DUP2 SWAP1 SSTORE POP DUP5 DUP5 PUSH2 0xBC8 SWAP2 SWAP1 PUSH2 0x17F6 JUMP JUMPDEST PUSH1 0xC PUSH0 DUP9 PUSH20 0xFFFFFFFFFFFFFFFFFFFFFFFFFFFFFFFFFFFFFFFF AND PUSH20 0xFFFFFFFFFFFFFFFFFFFFFFFFFFFFFFFFFFFFFFFF AND DUP2 MSTORE PUSH1 0x20 ADD SWAP1 DUP2 MSTORE PUSH1 0x20 ADD PUSH0 KECCAK256 DUP2 SWAP1 SSTORE POP PUSH32 0x2C76E7A47FD53E2854856AC3F0A5F3EE40D15CFAA82266357EA9779C486AB9C3 CALLER DUP8 PUSH1 0x1 DUP9 DUP8 DUP8 DUP8 DUP13 DUP13 PUSH2 0xC3E SWAP2 SWAP1 PUSH2 0x17F6 JUMP JUMPDEST PUSH1 0x40 MLOAD PUSH2 0xC52 SWAP9 SWAP8 SWAP7 SWAP6 SWAP5 SWAP4 SWAP3 SWAP2 SWAP1 PUSH2 0x199E JUMP JUMPDEST PUSH1 0x40 MLOAD DUP1 SWAP2 SUB SWAP1 LOG1 PUSH2 0xC64 DUP3 DUP3 PUSH2 0x1295 JUMP JUMPDEST POP POP POP POP POP POP JUMP JUMPDEST PUSH0 DUP1 PUSH0 SWAP1 SLOAD SWAP1 PUSH2 0x100 EXP SWAP1 DIV PUSH20 0xFFFFFFFFFFFFFFFFFFFFFFFFFFFFFFFFFFFFFFFF AND SWAP1 POP SWAP1 JUMP JUMPDEST PUSH1 0x9 SLOAD DUP2 JUMP JUMPDEST PUSH0 PUSH2 0xCEC DUP3 PUSH1 0xC PUSH0 DUP7 PUSH20 0xFFFFFFFFFFFFFFFFFFFFFFFFFFFFFFFFFFFFFFFF AND PUSH20 0xFFFFFFFFFFFFFFFFFFFFFFFFFFFFFFFFFFFFFFFF AND DUP2 MSTORE PUSH1 0x20 ADD SWAP1 DUP2 MSTORE PUSH1 0x20 ADD PUSH0 KECCAK256 SLOAD PUSH2 0xCE6 SWAP2 SWAP1 PUSH2 0x1829 JUMP JUMPDEST DUP4 PUSH2 0x803 JUMP JUMPDEST SWAP1 POP SWAP3 SWAP2 POP POP JUMP JUMPDEST PUSH2 0xCFC PUSH2 0x1156 JUMP JUMPDEST DUP1 PUSH1 0x2 DUP2 SWAP1 SSTORE POP POP JUMP JUMPDEST PUSH0 PUSH1 0xC PUSH0 DUP5 PUSH20 0xFFFFFFFFFFFFFFFFFFFFFFFFFFFFFFFFFFFFFFFF AND PUSH20 0xFFFFFFFFFFFFFFFFFFFFFFFFFFFFFFFFFFFFFFFF AND DUP2 MSTORE PUSH1 0x20 ADD SWAP1 DUP2 MSTORE PUSH1 0x20 ADD PUSH0 KECCAK256 SLOAD SWAP1 POP DUP2 DUP2 GT PUSH2 0xD89 JUMPI PUSH1 0x40 MLOAD PUSH32 0x8C379A000000000000000000000000000000000000000000000000000000000 DUP2 MSTORE PUSH1 0x4 ADD PUSH2 0xD80 SWAP1 PUSH2 0x1A64 JUMP JUMPDEST PUSH1 0x40 MLOAD DUP1 SWAP2 SUB SWAP1 REVERT JUMPDEST PUSH0 PUSH2 0xD9F DUP4 DUP4 PUSH2 0xD99 SWAP2 SWAP1 PUSH2 0x1829 JUMP JUMPDEST DUP5 PUSH2 0x803 JUMP JUMPDEST SWAP1 POP PUSH0 PUSH8 0xDE0B6B3A7640000 PUSH1 0x2 SLOAD DUP4 PUSH2 0xDB9 SWAP2 SWAP1 PUSH2 0x1758 JUMP JUMPDEST PUSH2 0xDC3 SWAP2 SWAP1 PUSH2 0x17C6 JUMP JUMPDEST SWAP1 POP PUSH0 PUSH8 0xDE0B6B3A7640000 PUSH1 0x3 SLOAD DUP5 PUSH2 0xDDD SWAP2 SWAP1 PUSH2 0x1758 JUMP JUMPDEST PUSH2 0xDE7 SWAP2 SWAP1 PUSH2 0x17C6 JUMP JUMPDEST SWAP1 POP DUP5 PUSH1 0xB PUSH0 DUP9 PUSH20 0xFFFFFFFFFFFFFFFFFFFFFFFFFFFFFFFFFFFFFFFF AND PUSH20 0xFFFFFFFFFFFFFFFFFFFFFFFFFFFFFFFFFFFFFFFF AND DUP2 MSTORE PUSH1 0x20 ADD SWAP1 DUP2 MSTORE PUSH1 0x20 ADD PUSH0 KECCAK256 PUSH0 CALLER PUSH20 0xFFFFFFFFFFFFFFFFFFFFFFFFFFFFFFFFFFFFFFFF AND PUSH20 0xFFFFFFFFFFFFFFFFFFFFFFFFFFFFFFFFFFFFFFFF AND DUP2 MSTORE PUSH1 0x20 ADD SWAP1 DUP2 MSTORE PUSH1 0x20 ADD PUSH0 KECCAK256 SLOAD LT ISZERO PUSH2 0xEA4 JUMPI PUSH1 0x40 MLOAD PUSH32 0x8C379A000000000000000000000000000000000000000000000000000000000 DUP2 MSTORE PUSH1 0x4 ADD PUSH2 0xE9B SWAP1 PUSH2 0x1ACC JUMP JUMPDEST PUSH1 0x40 MLOAD DUP1 SWAP2 SUB SWAP1 REVERT JUMPDEST DUP5 PUSH1 0xB PUSH0 DUP9 PUSH20 0xFFFFFFFFFFFFFFFFFFFFFFFFFFFFFFFFFFFFFFFF AND PUSH20 0xFFFFFFFFFFFFFFFFFFFFFFFFFFFFFFFFFFFFFFFF AND DUP2 MSTORE PUSH1 0x20 ADD SWAP1 DUP2 MSTORE PUSH1 0x20 ADD PUSH0 KECCAK256 PUSH0 CALLER PUSH20 0xFFFFFFFFFFFFFFFFFFFFFFFFFFFFFFFFFFFFFFFF AND PUSH20 0xFFFFFFFFFFFFFFFFFFFFFFFFFFFFFFFFFFFFFFFF AND DUP2 MSTORE PUSH1 0x20 ADD SWAP1 DUP2 MSTORE PUSH1 0x20 ADD PUSH0 KECCAK256 PUSH0 DUP3 DUP3 SLOAD PUSH2 0xF2B SWAP2 SWAP1 PUSH2 0x1829 JUMP JUMPDEST SWAP3 POP POP DUP2 SWAP1 SSTORE POP DUP5 DUP5 PUSH2 0xF3E SWAP2 SWAP1 PUSH2 0x1829 JUMP JUMPDEST PUSH1 0xC PUSH0 DUP9 PUSH20 0xFFFFFFFFFFFFFFFFFFFFFFFFFFFFFFFFFFFFFFFF AND PUSH20 0xFFFFFFFFFFFFFFFFFFFFFFFFFFFFFFFFFFFFFFFF AND DUP2 MSTORE PUSH1 0x20 ADD SWAP1 DUP2 MSTORE PUSH1 0x20 ADD PUSH0 KECCAK256 DUP2 SWAP1 SSTORE POP PUSH1 0x4 PUSH0 SWAP1 SLOAD SWAP1 PUSH2 0x100 EXP SWAP1 DIV PUSH20 0xFFFFFFFFFFFFFFFFFFFFFFFFFFFFFFFFFFFFFFFF AND PUSH20 0xFFFFFFFFFFFFFFFFFFFFFFFFFFFFFFFFFFFFFFFF AND PUSH4 0xA9059CBB CALLER DUP4 DUP6 DUP8 PUSH2 0xFCA SWAP2 SWAP1 PUSH2 0x1829 JUMP JUMPDEST PUSH2 0xFD4 SWAP2 SWAP1 PUSH2 0x1829 JUMP JUMPDEST PUSH1 0x40 MLOAD DUP4 PUSH4 0xFFFFFFFF AND PUSH1 0xE0 SHL DUP2 MSTORE PUSH1 0x4 ADD PUSH2 0xFF1 SWAP3 SWAP2 SWAP1 PUSH2 0x1AEA JUMP JUMPDEST PUSH1 0x20 PUSH1 0x40 MLOAD DUP1 DUP4 SUB DUP2 PUSH0 DUP8 GAS CALL ISZERO DUP1 ISZERO PUSH2 0x100D JUMPI RETURNDATASIZE PUSH0 DUP1 RETURNDATACOPY RETURNDATASIZE PUSH0 REVERT JUMPDEST POP POP POP POP PUSH1 0x40 MLOAD RETURNDATASIZE PUSH1 0x1F NOT PUSH1 0x1F DUP3 ADD AND DUP3 ADD DUP1 PUSH1 0x40 MSTORE POP DUP2 ADD SWAP1 PUSH2 0x1031 SWAP2 SWAP1 PUSH2 0x1964 JUMP JUMPDEST POP PUSH32 0x2C76E7A47FD53E2854856AC3F0A5F3EE40D15CFAA82266357EA9779C486AB9C3 CALLER DUP8 PUSH0 DUP9 DUP8 DUP8 DUP8 DUP13 DUP13 PUSH2 0x1066 SWAP2 SWAP1 PUSH2 0x1829 JUMP JUMPDEST PUSH1 0x40 MLOAD PUSH2 0x107A SWAP9 SWAP8 SWAP7 SWAP6 SWAP5 SWAP4 SWAP3 SWAP2 SWAP1 PUSH2 0x199E JUMP JUMPDEST PUSH1 0x40 MLOAD DUP1 SWAP2 SUB SWAP1 LOG1 PUSH2 0x108C DUP3 DUP3 PUSH2 0x1295 JUMP JUMPDEST POP POP POP POP POP POP JUMP JUMPDEST PUSH1 0x2 SLOAD DUP2 JUMP JUMPDEST PUSH2 0x10A2 PUSH2 0x1156 JUMP JUMPDEST PUSH0 PUSH20 0xFFFFFFFFFFFFFFFFFFFFFFFFFFFFFFFFFFFFFFFF AND DUP2 PUSH20 0xFFFFFFFFFFFFFFFFFFFFFFFFFFFFFFFFFFFFFFFF AND SUB PUSH2 0x1110 JUMPI PUSH1 0x40 MLOAD PUSH32 0x8C379A000000000000000000000000000000000000000000000000000000000 DUP2 MSTORE PUSH1 0x4 ADD PUSH2 0x1107 SWAP1 PUSH2 0x1B81 JUMP JUMPDEST PUSH1 0x40 MLOAD DUP1 SWAP2 SUB SWAP1 REVERT JUMPDEST PUSH2 0x1119 DUP2 PUSH2 0x11D4 JUMP JUMPDEST POP JUMP JUMPDEST PUSH1 0xC PUSH1 0x20 MSTORE DUP1 PUSH0 MSTORE PUSH1 0x40 PUSH0 KECCAK256 PUSH0 SWAP2 POP SWAP1 POP SLOAD DUP2 JUMP JUMPDEST PUSH1 0x4 PUSH0 SWAP1 SLOAD SWAP1 PUSH2 0x100 EXP SWAP1 DIV PUSH20 0xFFFFFFFFFFFFFFFFFFFFFFFFFFFFFFFFFFFFFFFF AND DUP2 JUMP JUMPDEST PUSH2 0x115E PUSH2 0x14E3 JUMP JUMPDEST PUSH20 0xFFFFFFFFFFFFFFFFFFFFFFFFFFFFFFFFFFFFFFFF AND PUSH2 0x117C PUSH2 0xC6C JUMP JUMPDEST PUSH20 0xFFFFFFFFFFFFFFFFFFFFFFFFFFFFFFFFFFFFFFFF AND EQ PUSH2 0x11D2 JUMPI PUSH1 0x40 MLOAD PUSH32 0x8C379A000000000000000000000000000000000000000000000000000000000 DUP2 MSTORE PUSH1 0x4 ADD PUSH2 0x11C9 SWAP1 PUSH2 0x1BE9 JUMP JUMPDEST PUSH1 0x40 MLOAD DUP1 SWAP2 SUB SWAP1 REVERT JUMPDEST JUMP JUMPDEST PUSH0 DUP1 PUSH0 SWAP1 SLOAD SWAP1 PUSH2 0x100 EXP SWAP1 DIV PUSH20 0xFFFFFFFFFFFFFFFFFFFFFFFFFFFFFFFFFFFFFFFF AND SWAP1 POP DUP2 PUSH0 DUP1 PUSH2 0x100 EXP DUP2 SLOAD DUP2 PUSH20 0xFFFFFFFFFFFFFFFFFFFFFFFFFFFFFFFFFFFFFFFF MUL NOT AND SWAP1 DUP4 PUSH20 0xFFFFFFFFFFFFFFFFFFFFFFFFFFFFFFFFFFFFFFFF AND MUL OR SWAP1 SSTORE POP DUP2 PUSH20 0xFFFFFFFFFFFFFFFFFFFFFFFFFFFFFFFFFFFFFFFF AND DUP2 PUSH20 0xFFFFFFFFFFFFFFFFFFFFFFFFFFFFFFFFFFFFFFFF AND PUSH32 0x8BE0079C531659141344CD1FD0A4F28419497F9722A3DAAFE3B4186F6B6457E0 PUSH1 0x40 MLOAD PUSH1 0x40 MLOAD DUP1 SWAP2 SUB SWAP1 LOG3 POP POP JUMP JUMPDEST PUSH0 PUSH1 0x64 PUSH1 0x8 SLOAD DUP5 PUSH2 0x12A6 SWAP2 SWAP1 PUSH2 0x1758 JUMP JUMPDEST PUSH2 0x12B0 SWAP2 SWAP1 PUSH2 0x17C6 JUMP JUMPDEST SWAP1 POP PUSH0 PUSH1 0x64 PUSH1 0x9 SLOAD DUP6 PUSH2 0x12C3 SWAP2 SWAP1 PUSH2 0x1758 JUMP JUMPDEST PUSH2 0x12CD SWAP2 SWAP1 PUSH2 0x17C6 JUMP JUMPDEST SWAP1 POP PUSH0 PUSH1 0x64 PUSH1 0xA SLOAD DUP7 PUSH2 0x12E0 SWAP2 SWAP1 PUSH2 0x1758 JUMP JUMPDEST PUSH2 0x12EA SWAP2 SWAP1 PUSH2 0x17C6 JUMP JUMPDEST SWAP1 POP PUSH0 PUSH1 0x5 PUSH0 SWAP1 SLOAD SWAP1 PUSH2 0x100 EXP SWAP1 DIV PUSH20 0xFFFFFFFFFFFFFFFFFFFFFFFFFFFFFFFFFFFFFFFF AND PUSH20 0xFFFFFFFFFFFFFFFFFFFFFFFFFFFFFFFFFFFFFFFF AND DUP5 PUSH1 0x40 MLOAD PUSH2 0x1332 SWAP1 PUSH2 0x1C34 JUMP JUMPDEST PUSH0 PUSH1 0x40 MLOAD DUP1 DUP4 SUB DUP2 DUP6 DUP8 GAS CALL SWAP3 POP POP POP RETURNDATASIZE DUP1 PUSH0 DUP2 EQ PUSH2 0x136C JUMPI PUSH1 0x40 MLOAD SWAP2 POP PUSH1 0x1F NOT PUSH1 0x3F RETURNDATASIZE ADD AND DUP3 ADD PUSH1 0x40 MSTORE RETURNDATASIZE DUP3 MSTORE RETURNDATASIZE PUSH0 PUSH1 0x20 DUP5 ADD RETURNDATACOPY PUSH2 0x1371 JUMP JUMPDEST PUSH1 0x60 SWAP2 POP JUMPDEST POP POP SWAP1 POP PUSH0 PUSH1 0x6 PUSH0 SWAP1 SLOAD SWAP1 PUSH2 0x100 EXP SWAP1 DIV PUSH20 0xFFFFFFFFFFFFFFFFFFFFFFFFFFFFFFFFFFFFFFFF AND PUSH20 0xFFFFFFFFFFFFFFFFFFFFFFFFFFFFFFFFFFFFFFFF AND DUP5 PUSH1 0x40 MLOAD PUSH2 0x13BB SWAP1 PUSH2 0x1C34 JUMP JUMPDEST PUSH0 PUSH1 0x40 MLOAD DUP1 DUP4 SUB DUP2 DUP6 DUP8 GAS CALL SWAP3 POP POP POP RETURNDATASIZE DUP1 PUSH0 DUP2 EQ PUSH2 0x13F5 JUMPI PUSH1 0x40 MLOAD SWAP2 POP PUSH1 0x1F NOT PUSH1 0x3F RETURNDATASIZE ADD AND DUP3 ADD PUSH1 0x40 MSTORE RETURNDATASIZE DUP3 MSTORE RETURNDATASIZE PUSH0 PUSH1 0x20 DUP5 ADD RETURNDATACOPY PUSH2 0x13FA JUMP JUMPDEST PUSH1 0x60 SWAP2 POP JUMPDEST POP POP SWAP1 POP PUSH0 PUSH1 0x7 PUSH0 SWAP1 SLOAD SWAP1 PUSH2 0x100 EXP SWAP1 DIV PUSH20 0xFFFFFFFFFFFFFFFFFFFFFFFFFFFFFFFFFFFFFFFF AND PUSH20 0xFFFFFFFFFFFFFFFFFFFFFFFFFFFFFFFFFFFFFFFF AND DUP5 PUSH1 0x40 MLOAD PUSH2 0x1444 SWAP1 PUSH2 0x1C34 JUMP JUMPDEST PUSH0 PUSH1 0x40 MLOAD DUP1 DUP4 SUB DUP2 DUP6 DUP8 GAS CALL SWAP3 POP POP POP RETURNDATASIZE DUP1 PUSH0 DUP2 EQ PUSH2 0x147E JUMPI PUSH1 0x40 MLOAD SWAP2 POP PUSH1 0x1F NOT PUSH1 0x3F RETURNDATASIZE ADD AND DUP3 ADD PUSH1 0x40 MSTORE RETURNDATASIZE DUP3 MSTORE RETURNDATASIZE PUSH0 PUSH1 0x20 DUP5 ADD RETURNDATACOPY PUSH2 0x1483 JUMP JUMPDEST PUSH1 0x60 SWAP2 POP JUMPDEST POP POP SWAP1 POP DUP3 DUP1 ISZERO PUSH2 0x1491 JUMPI POP DUP2 JUMPDEST DUP1 ISZERO PUSH2 0x149A JUMPI POP DUP1 JUMPDEST PUSH2 0x14D9 JUMPI PUSH1 0x40 MLOAD PUSH32 0x8C379A000000000000000000000000000000000000000000000000000000000 DUP2 MSTORE PUSH1 0x4 ADD PUSH2 0x14D0 SWAP1 PUSH2 0x1C92 JUMP JUMPDEST PUSH1 0x40 MLOAD DUP1 SWAP2 SUB SWAP1 REVERT JUMPDEST POP POP POP POP POP POP POP POP JUMP JUMPDEST PUSH0 CALLER SWAP1 POP SWAP1 JUMP JUMPDEST PUSH0 DUP1 REVERT JUMPDEST PUSH0 PUSH20 0xFFFFFFFFFFFFFFFFFFFFFFFFFFFFFFFFFFFFFFFF DUP3 AND SWAP1 POP SWAP2 SWAP1 POP JUMP JUMPDEST PUSH0 PUSH2 0x1517 DUP3 PUSH2 0x14EE JUMP JUMPDEST SWAP1 POP SWAP2 SWAP1 POP JUMP JUMPDEST PUSH2 0x1527 DUP2 PUSH2 0x150D JUMP JUMPDEST DUP2 EQ PUSH2 0x1531 JUMPI PUSH0 DUP1 REVERT JUMPDEST POP JUMP JUMPDEST PUSH0 DUP2 CALLDATALOAD SWAP1 POP PUSH2 0x1542 DUP2 PUSH2 0x151E JUMP JUMPDEST SWAP3 SWAP2 POP POP JUMP JUMPDEST PUSH0 DUP1 PUSH1 0x40 DUP4 DUP6 SUB SLT ISZERO PUSH2 0x155E JUMPI PUSH2 0x155D PUSH2 0x14EA JUMP JUMPDEST JUMPDEST PUSH0 PUSH2 0x156B DUP6 DUP3 DUP7 ADD PUSH2 0x1534 JUMP JUMPDEST SWAP3 POP POP PUSH1 0x20 PUSH2 0x157C DUP6 DUP3 DUP7 ADD PUSH2 0x1534 JUMP JUMPDEST SWAP2 POP POP SWAP3 POP SWAP3 SWAP1 POP JUMP JUMPDEST PUSH0 DUP2 SWAP1 POP SWAP2 SWAP1 POP JUMP JUMPDEST PUSH2 0x1598 DUP2 PUSH2 0x1586 JUMP JUMPDEST DUP3 MSTORE POP POP JUMP JUMPDEST PUSH0 PUSH1 0x20 DUP3 ADD SWAP1 POP PUSH2 0x15B1 PUSH0 DUP4 ADD DUP5 PUSH2 0x158F JUMP JUMPDEST SWAP3 SWAP2 POP POP JUMP JUMPDEST PUSH2 0x15C0 DUP2 PUSH2 0x1586 JUMP JUMPDEST DUP2 EQ PUSH2 0x15CA JUMPI PUSH0 DUP1 REVERT JUMPDEST POP JUMP JUMPDEST PUSH0 DUP2 CALLDATALOAD SWAP1 POP PUSH2 0x15DB DUP2 PUSH2 0x15B7 JUMP JUMPDEST SWAP3 SWAP2 POP POP JUMP JUMPDEST PUSH0 DUP1 PUSH1 0x40 DUP4 DUP6 SUB SLT ISZERO PUSH2 0x15F7 JUMPI PUSH2 0x15F6 PUSH2 0x14EA JUMP JUMPDEST JUMPDEST PUSH0 PUSH2 0x1604 DUP6 DUP3 DUP7 ADD PUSH2 0x1534 JUMP JUMPDEST SWAP3 POP POP PUSH1 0x20 PUSH2 0x1615 DUP6 DUP3 DUP7 ADD PUSH2 0x15CD JUMP JUMPDEST SWAP2 POP POP SWAP3 POP SWAP3 SWAP1 POP JUMP JUMPDEST PUSH2 0x1628 DUP2 PUSH2 0x150D JUMP JUMPDEST DUP3 MSTORE POP POP JUMP JUMPDEST PUSH0 PUSH1 0x20 DUP3 ADD SWAP1 POP PUSH2 0x1641 PUSH0 DUP4 ADD DUP5 PUSH2 0x161F JUMP JUMPDEST SWAP3 SWAP2 POP POP JUMP JUMPDEST PUSH0 PUSH1 0x20 DUP3 DUP5 SUB SLT ISZERO PUSH2 0x165C JUMPI PUSH2 0x165B PUSH2 0x14EA JUMP JUMPDEST JUMPDEST PUSH0 PUSH2 0x1669 DUP5 DUP3 DUP6 ADD PUSH2 0x1534 JUMP JUMPDEST SWAP2 POP POP SWAP3 SWAP2 POP POP JUMP JUMPDEST PUSH0 DUP1 PUSH0 PUSH1 0x60 DUP5 DUP7 SUB SLT ISZERO PUSH2 0x1689 JUMPI PUSH2 0x1688 PUSH2 0x14EA JUMP JUMPDEST JUMPDEST PUSH0 PUSH2 0x1696 DUP7 DUP3 DUP8 ADD PUSH2 0x1534 JUMP JUMPDEST SWAP4 POP POP PUSH1 0x20 PUSH2 0x16A7 DUP7 DUP3 DUP8 ADD PUSH2 0x1534 JUMP JUMPDEST SWAP3 POP POP PUSH1 0x40 PUSH2 0x16B8 DUP7 DUP3 DUP8 ADD PUSH2 0x1534 JUMP JUMPDEST SWAP2 POP POP SWAP3 POP SWAP3 POP SWAP3 JUMP JUMPDEST PUSH0 PUSH1 0x20 DUP3 DUP5 SUB SLT ISZERO PUSH2 0x16D7 JUMPI PUSH2 0x16D6 PUSH2 0x14EA JUMP JUMPDEST JUMPDEST PUSH0 PUSH2 0x16E4 DUP5 DUP3 DUP6 ADD PUSH2 0x15CD JUMP JUMPDEST SWAP2 POP POP SWAP3 SWAP2 POP POP JUMP JUMPDEST PUSH0 DUP1 PUSH1 0x40 DUP4 DUP6 SUB SLT ISZERO PUSH2 0x1703 JUMPI PUSH2 0x1702 PUSH2 0x14EA JUMP JUMPDEST JUMPDEST PUSH0 PUSH2 0x1710 DUP6 DUP3 DUP7 ADD PUSH2 0x15CD JUMP JUMPDEST SWAP3 POP POP PUSH1 0x20 PUSH2 0x1721 DUP6 DUP3 DUP7 ADD PUSH2 0x15CD JUMP JUMPDEST SWAP2 POP POP SWAP3 POP SWAP3 SWAP1 POP JUMP JUMPDEST PUSH32 0x4E487B7100000000000000000000000000000000000000000000000000000000 PUSH0 MSTORE PUSH1 0x11 PUSH1 0x4 MSTORE PUSH1 0x24 PUSH0 REVERT JUMPDEST PUSH0 PUSH2 0x1762 DUP3 PUSH2 0x1586 JUMP JUMPDEST SWAP2 POP PUSH2 0x176D DUP4 PUSH2 0x1586 JUMP JUMPDEST SWAP3 POP DUP3 DUP3 MUL PUSH2 0x177B DUP2 PUSH2 0x1586 JUMP JUMPDEST SWAP2 POP DUP3 DUP3 DIV DUP5 EQ DUP4 ISZERO OR PUSH2 0x1792 JUMPI PUSH2 0x1791 PUSH2 0x172B JUMP JUMPDEST JUMPDEST POP SWAP3 SWAP2 POP POP JUMP JUMPDEST PUSH32 0x4E487B7100000000000000000000000000000000000000000000000000000000 PUSH0 MSTORE PUSH1 0x12 PUSH1 0x4 MSTORE PUSH1 0x24 PUSH0 REVERT JUMPDEST PUSH0 PUSH2 0x17D0 DUP3 PUSH2 0x1586 JUMP JUMPDEST SWAP2 POP PUSH2 0x17DB DUP4 PUSH2 0x1586 JUMP JUMPDEST SWAP3 POP DUP3 PUSH2 0x17EB JUMPI PUSH2 0x17EA PUSH2 0x1799 JUMP JUMPDEST JUMPDEST DUP3 DUP3 DIV SWAP1 POP SWAP3 SWAP2 POP POP JUMP JUMPDEST PUSH0 PUSH2 0x1800 DUP3 PUSH2 0x1586 JUMP JUMPDEST SWAP2 POP PUSH2 0x180B DUP4 PUSH2 0x1586 JUMP JUMPDEST SWAP3 POP DUP3 DUP3 ADD SWAP1 POP DUP1 DUP3 GT ISZERO PUSH2 0x1823 JUMPI PUSH2 0x1822 PUSH2 0x172B JUMP JUMPDEST JUMPDEST SWAP3 SWAP2 POP POP JUMP JUMPDEST PUSH0 PUSH2 0x1833 DUP3 PUSH2 0x1586 JUMP JUMPDEST SWAP2 POP PUSH2 0x183E DUP4 PUSH2 0x1586 JUMP JUMPDEST SWAP3 POP DUP3 DUP3 SUB SWAP1 POP DUP2 DUP2 GT ISZERO PUSH2 0x1856 JUMPI PUSH2 0x1855 PUSH2 0x172B JUMP JUMPDEST JUMPDEST SWAP3 SWAP2 POP POP JUMP JUMPDEST PUSH0 DUP3 DUP3 MSTORE PUSH1 0x20 DUP3 ADD SWAP1 POP SWAP3 SWAP2 POP POP JUMP JUMPDEST PUSH32 0x4F6E6C79207468652073686172657327207375626A6563742063616E20627579 PUSH0 DUP3 ADD MSTORE PUSH32 0x2074686520666972737420736861726500000000000000000000000000000000 PUSH1 0x20 DUP3 ADD MSTORE POP JUMP JUMPDEST PUSH0 PUSH2 0x18C6 PUSH1 0x30 DUP4 PUSH2 0x185C JUMP JUMPDEST SWAP2 POP PUSH2 0x18D1 DUP3 PUSH2 0x186C JUMP JUMPDEST PUSH1 0x40 DUP3 ADD SWAP1 POP SWAP2 SWAP1 POP JUMP JUMPDEST PUSH0 PUSH1 0x20 DUP3 ADD SWAP1 POP DUP2 DUP2 SUB PUSH0 DUP4 ADD MSTORE PUSH2 0x18F3 DUP2 PUSH2 0x18BA JUMP JUMPDEST SWAP1 POP SWAP2 SWAP1 POP JUMP JUMPDEST PUSH0 PUSH1 0x60 DUP3 ADD SWAP1 POP PUSH2 0x190D PUSH0 DUP4 ADD DUP7 PUSH2 0x161F JUMP JUMPDEST PUSH2 0x191A PUSH1 0x20 DUP4 ADD DUP6 PUSH2 0x161F JUMP JUMPDEST PUSH2 0x1927 PUSH1 0x40 DUP4 ADD DUP5 PUSH2 0x158F JUMP JUMPDEST SWAP5 SWAP4 POP POP POP POP JUMP JUMPDEST PUSH0 DUP2 ISZERO ISZERO SWAP1 POP SWAP2 SWAP1 POP JUMP JUMPDEST PUSH2 0x1943 DUP2 PUSH2 0x192F JUMP JUMPDEST DUP2 EQ PUSH2 0x194D JUMPI PUSH0 DUP1 REVERT JUMPDEST POP JUMP JUMPDEST PUSH0 DUP2 MLOAD SWAP1 POP PUSH2 0x195E DUP2 PUSH2 0x193A JUMP JUMPDEST SWAP3 SWAP2 POP POP JUMP JUMPDEST PUSH0 PUSH1 0x20 DUP3 DUP5 SUB SLT ISZERO PUSH2 0x1979 JUMPI PUSH2 0x1978 PUSH2 0x14EA JUMP JUMPDEST JUMPDEST PUSH0 PUSH2 0x1986 DUP5 DUP3 DUP6 ADD PUSH2 0x1950 JUMP JUMPDEST SWAP2 POP POP SWAP3 SWAP2 POP POP JUMP JUMPDEST PUSH2 0x1998 DUP2 PUSH2 0x192F JUMP JUMPDEST DUP3 MSTORE POP POP JUMP JUMPDEST PUSH0 PUSH2 0x100 DUP3 ADD SWAP1 POP PUSH2 0x19B2 PUSH0 DUP4 ADD DUP12 PUSH2 0x161F JUMP JUMPDEST PUSH2 0x19BF PUSH1 0x20 DUP4 ADD DUP11 PUSH2 0x161F JUMP JUMPDEST PUSH2 0x19CC PUSH1 0x40 DUP4 ADD DUP10 PUSH2 0x198F JUMP JUMPDEST PUSH2 0x19D9 PUSH1 0x60 DUP4 ADD DUP9 PUSH2 0x158F JUMP JUMPDEST PUSH2 0x19E6 PUSH1 0x80 DUP4 ADD DUP8 PUSH2 0x158F JUMP JUMPDEST PUSH2 0x19F3 PUSH1 0xA0 DUP4 ADD DUP7 PUSH2 0x158F JUMP JUMPDEST PUSH2 0x1A00 PUSH1 0xC0 DUP4 ADD DUP6 PUSH2 0x158F JUMP JUMPDEST PUSH2 0x1A0D PUSH1 0xE0 DUP4 ADD DUP5 PUSH2 0x158F JUMP JUMPDEST SWAP10 SWAP9 POP POP POP POP POP POP POP POP POP JUMP JUMPDEST PUSH32 0x43616E6E6F742073656C6C20746865206C617374207368617265000000000000 PUSH0 DUP3 ADD MSTORE POP JUMP JUMPDEST PUSH0 PUSH2 0x1A4E PUSH1 0x1A DUP4 PUSH2 0x185C JUMP JUMPDEST SWAP2 POP PUSH2 0x1A59 DUP3 PUSH2 0x1A1A JUMP JUMPDEST PUSH1 0x20 DUP3 ADD SWAP1 POP SWAP2 SWAP1 POP JUMP JUMPDEST PUSH0 PUSH1 0x20 DUP3 ADD SWAP1 POP DUP2 DUP2 SUB PUSH0 DUP4 ADD MSTORE PUSH2 0x1A7B DUP2 PUSH2 0x1A42 JUMP JUMPDEST SWAP1 POP SWAP2 SWAP1 POP JUMP JUMPDEST PUSH32 0x496E73756666696369656E742073686172657300000000000000000000000000 PUSH0 DUP3 ADD MSTORE POP JUMP JUMPDEST PUSH0 PUSH2 0x1AB6 PUSH1 0x13 DUP4 PUSH2 0x185C JUMP JUMPDEST SWAP2 POP PUSH2 0x1AC1 DUP3 PUSH2 0x1A82 JUMP JUMPDEST PUSH1 0x20 DUP3 ADD SWAP1 POP SWAP2 SWAP1 POP JUMP JUMPDEST PUSH0 PUSH1 0x20 DUP3 ADD SWAP1 POP DUP2 DUP2 SUB PUSH0 DUP4 ADD MSTORE PUSH2 0x1AE3 DUP2 PUSH2 0x1AAA JUMP JUMPDEST SWAP1 POP SWAP2 SWAP1 POP JUMP JUMPDEST PUSH0 PUSH1 0x40 DUP3 ADD SWAP1 POP PUSH2 0x1AFD PUSH0 DUP4 ADD DUP6 PUSH2 0x161F JUMP JUMPDEST PUSH2 0x1B0A PUSH1 0x20 DUP4 ADD DUP5 PUSH2 0x158F JUMP JUMPDEST SWAP4 SWAP3 POP POP POP JUMP JUMPDEST PUSH32 0x4F776E61626C653A206E6577206F776E657220697320746865207A65726F2061 PUSH0 DUP3 ADD MSTORE PUSH32 0x6464726573730000000000000000000000000000000000000000000000000000 PUSH1 0x20 DUP3 ADD MSTORE POP JUMP JUMPDEST PUSH0 PUSH2 0x1B6B PUSH1 0x26 DUP4 PUSH2 0x185C JUMP JUMPDEST SWAP2 POP PUSH2 0x1B76 DUP3 PUSH2 0x1B11 JUMP JUMPDEST PUSH1 0x40 DUP3 ADD SWAP1 POP SWAP2 SWAP1 POP JUMP JUMPDEST PUSH0 PUSH1 0x20 DUP3 ADD SWAP1 POP DUP2 DUP2 SUB PUSH0 DUP4 ADD MSTORE PUSH2 0x1B98 DUP2 PUSH2 0x1B5F JUMP JUMPDEST SWAP1 POP SWAP2 SWAP1 POP JUMP JUMPDEST PUSH32 0x4F776E61626C653A2063616C6C6572206973206E6F7420746865206F776E6572 PUSH0 DUP3 ADD MSTORE POP JUMP JUMPDEST PUSH0 PUSH2 0x1BD3 PUSH1 0x20 DUP4 PUSH2 0x185C JUMP JUMPDEST SWAP2 POP PUSH2 0x1BDE DUP3 PUSH2 0x1B9F JUMP JUMPDEST PUSH1 0x20 DUP3 ADD SWAP1 POP SWAP2 SWAP1 POP JUMP JUMPDEST PUSH0 PUSH1 0x20 DUP3 ADD SWAP1 POP DUP2 DUP2 SUB PUSH0 DUP4 ADD MSTORE PUSH2 0x1C00 DUP2 PUSH2 0x1BC7 JUMP JUMPDEST SWAP1 POP SWAP2 SWAP1 POP JUMP JUMPDEST PUSH0 DUP2 SWAP1 POP SWAP3 SWAP2 POP POP JUMP JUMPDEST POP JUMP JUMPDEST PUSH0 PUSH2 0x1C1F PUSH0 DUP4 PUSH2 0x1C07 JUMP JUMPDEST SWAP2 POP PUSH2 0x1C2A DUP3 PUSH2 0x1C11 JUMP JUMPDEST PUSH0 DUP3 ADD SWAP1 POP SWAP2 SWAP1 POP JUMP JUMPDEST PUSH0 PUSH2 0x1C3E DUP3 PUSH2 0x1C14 JUMP JUMPDEST SWAP2 POP DUP2 SWAP1 POP SWAP2 SWAP1 POP JUMP JUMPDEST PUSH32 0x556E61626C6520746F2073656E64206665657320746F20706172746965730000 PUSH0 DUP3 ADD MSTORE POP JUMP JUMPDEST PUSH0 PUSH2 0x1C7C PUSH1 0x1E DUP4 PUSH2 0x185C JUMP JUMPDEST SWAP2 POP PUSH2 0x1C87 DUP3 PUSH2 0x1C48 JUMP JUMPDEST PUSH1 0x20 DUP3 ADD SWAP1 POP SWAP2 SWAP1 POP JUMP JUMPDEST PUSH0 PUSH1 0x20 DUP3 ADD SWAP1 POP DUP2 DUP2 SUB PUSH0 DUP4 ADD MSTORE PUSH2 0x1CA9 DUP2 PUSH2 0x1C70 JUMP JUMPDEST SWAP1 POP SWAP2 SWAP1 POP JUMP INVALID LOG2 PUSH5 0x6970667358 0x22 SLT KECCAK256 PUSH9 0xACF548FF5FEA993944 0x28 0xEF PUSH6 0xED4C3EE40552 DUP6 CODESIZE 0xD7 PUSH23 0x98FA0137AA0E41989364736F6C63430008160033000000 "
		},
		"gasEstimates": {
			"creation": {
				"codeDepositCost": "1479600",
				"executionCost": "infinite",
				"totalCost": "infinite"
			},
			"external": {
				"buySharesWithToken(address,uint256)": "infinite",
				"getBuyPrice(address,uint256)": "infinite",
				"getBuyPriceAfterFee(address,uint256)": "infinite",
				"getPrice(uint256,uint256)": "infinite",
				"getSellPrice(address,uint256)": "infinite",
				"getSellPriceAfterFee(address,uint256)": "infinite",
				"owner()": "2626",
				"partyA()": "2576",
				"partyAFeePercent()": "2537",
				"partyB()": "2598",
				"partyBFeePercent()": "2558",
				"partyC()": "2575",
				"partyCFeePercent()": "2493",
				"protocolFeeDestination()": "2575",
				"protocolFeePercent()": "2469",
				"renounceOwnership()": "30435",
				"sellSharesForToken(address,uint256)": "infinite",
				"setFeeDestinations(address,address,address)": "infinite",
				"setProtocolFeePercent(uint256)": "24843",
				"setSubjectFeePercent(uint256)": "24887",
				"setToken(address)": "27066",
				"sharesBalance(address,address)": "infinite",
				"sharesSupply(address)": "2890",
				"subjectFeePercent()": "2471",
				"token()": "2618",
				"transferOwnership(address)": "30797"
			},
			"internal": {
				"distributeFees(uint256,uint256)": "infinite"
			}
		},
		"methodIdentifiers": {
			"buySharesWithToken(address,uint256)": "85efea6a",
			"getBuyPrice(address,uint256)": "4635256e",
			"getBuyPriceAfterFee(address,uint256)": "0f026f6d",
			"getPrice(uint256,uint256)": "5cf4ee91",
			"getSellPrice(address,uint256)": "9ae71781",
			"getSellPriceAfterFee(address,uint256)": "2267a89c",
			"owner()": "8da5cb5b",
			"partyA()": "10e1d8ca",
			"partyAFeePercent()": "17b36486",
			"partyB()": "29040113",
			"partyBFeePercent()": "95e06f6e",
			"partyC()": "83b7d8b2",
			"partyCFeePercent()": "28f3994a",
			"protocolFeeDestination()": "4ce7957c",
			"protocolFeePercent()": "d6e6eb9f",
			"renounceOwnership()": "715018a6",
			"sellSharesForToken(address,uint256)": "a7d5e724",
			"setFeeDestinations(address,address,address)": "550e5cb0",
			"setProtocolFeePercent(uint256)": "a4983421",
			"setSubjectFeePercent(uint256)": "5a8a764e",
			"setToken(address)": "144fa6d7",
			"sharesBalance(address,address)": "020235ff",
			"sharesSupply(address)": "f9931be0",
			"subjectFeePercent()": "24dc441d",
			"token()": "fc0c546a",
			"transferOwnership(address)": "f2fde38b"
		}
	},
	"abi": [
		{
			"anonymous": false,
			"inputs": [
				{
					"indexed": true,
					"internalType": "address",
					"name": "previousOwner",
					"type": "address"
				},
				{
					"indexed": true,
					"internalType": "address",
					"name": "newOwner",
					"type": "address"
				}
			],
			"name": "OwnershipTransferred",
			"type": "event"
		},
		{
			"anonymous": false,
			"inputs": [
				{
					"indexed": false,
					"internalType": "address",
					"name": "trader",
					"type": "address"
				},
				{
					"indexed": false,
					"internalType": "address",
					"name": "subject",
					"type": "address"
				},
				{
					"indexed": false,
					"internalType": "bool",
					"name": "isBuy",
					"type": "bool"
				},
				{
					"indexed": false,
					"internalType": "uint256",
					"name": "shareAmount",
					"type": "uint256"
				},
				{
					"indexed": false,
					"internalType": "uint256",
					"name": "ethAmount",
					"type": "uint256"
				},
				{
					"indexed": false,
					"internalType": "uint256",
					"name": "protocolEthAmount",
					"type": "uint256"
				},
				{
					"indexed": false,
					"internalType": "uint256",
					"name": "subjectEthAmount",
					"type": "uint256"
				},
				{
					"indexed": false,
					"internalType": "uint256",
					"name": "supply",
					"type": "uint256"
				}
			],
			"name": "Trade",
			"type": "event"
		},
		{
			"inputs": [
				{
					"internalType": "address",
					"name": "sharesSubject",
					"type": "address"
				},
				{
					"internalType": "uint256",
					"name": "amount",
					"type": "uint256"
				}
			],
			"name": "buySharesWithToken",
			"outputs": [],
			"stateMutability": "nonpayable",
			"type": "function"
		},
		{
			"inputs": [
				{
					"internalType": "address",
					"name": "sharesSubject",
					"type": "address"
				},
				{
					"internalType": "uint256",
					"name": "amount",
					"type": "uint256"
				}
			],
			"name": "getBuyPrice",
			"outputs": [
				{
					"internalType": "uint256",
					"name": "",
					"type": "uint256"
				}
			],
			"stateMutability": "view",
			"type": "function"
		},
		{
			"inputs": [
				{
					"internalType": "address",
					"name": "sharesSubject",
					"type": "address"
				},
				{
					"internalType": "uint256",
					"name": "amount",
					"type": "uint256"
				}
			],
			"name": "getBuyPriceAfterFee",
			"outputs": [
				{
					"internalType": "uint256",
					"name": "",
					"type": "uint256"
				}
			],
			"stateMutability": "view",
			"type": "function"
		},
		{
			"inputs": [
				{
					"internalType": "uint256",
					"name": "supply",
					"type": "uint256"
				},
				{
					"internalType": "uint256",
					"name": "amount",
					"type": "uint256"
				}
			],
			"name": "getPrice",
			"outputs": [
				{
					"internalType": "uint256",
					"name": "",
					"type": "uint256"
				}
			],
			"stateMutability": "pure",
			"type": "function"
		},
		{
			"inputs": [
				{
					"internalType": "address",
					"name": "sharesSubject",
					"type": "address"
				},
				{
					"internalType": "uint256",
					"name": "amount",
					"type": "uint256"
				}
			],
			"name": "getSellPrice",
			"outputs": [
				{
					"internalType": "uint256",
					"name": "",
					"type": "uint256"
				}
			],
			"stateMutability": "view",
			"type": "function"
		},
		{
			"inputs": [
				{
					"internalType": "address",
					"name": "sharesSubject",
					"type": "address"
				},
				{
					"internalType": "uint256",
					"name": "amount",
					"type": "uint256"
				}
			],
			"name": "getSellPriceAfterFee",
			"outputs": [
				{
					"internalType": "uint256",
					"name": "",
					"type": "uint256"
				}
			],
			"stateMutability": "view",
			"type": "function"
		},
		{
			"inputs": [],
			"name": "owner",
			"outputs": [
				{
					"internalType": "address",
					"name": "",
					"type": "address"
				}
			],
			"stateMutability": "view",
			"type": "function"
		},
		{
			"inputs": [],
			"name": "partyA",
			"outputs": [
				{
					"internalType": "address",
					"name": "",
					"type": "address"
				}
			],
			"stateMutability": "view",
			"type": "function"
		},
		{
			"inputs": [],
			"name": "partyAFeePercent",
			"outputs": [
				{
					"internalType": "uint256",
					"name": "",
					"type": "uint256"
				}
			],
			"stateMutability": "view",
			"type": "function"
		},
		{
			"inputs": [],
			"name": "partyB",
			"outputs": [
				{
					"internalType": "address",
					"name": "",
					"type": "address"
				}
			],
			"stateMutability": "view",
			"type": "function"
		},
		{
			"inputs": [],
			"name": "partyBFeePercent",
			"outputs": [
				{
					"internalType": "uint256",
					"name": "",
					"type": "uint256"
				}
			],
			"stateMutability": "view",
			"type": "function"
		},
		{
			"inputs": [],
			"name": "partyC",
			"outputs": [
				{
					"internalType": "address",
					"name": "",
					"type": "address"
				}
			],
			"stateMutability": "view",
			"type": "function"
		},
		{
			"inputs": [],
			"name": "partyCFeePercent",
			"outputs": [
				{
					"internalType": "uint256",
					"name": "",
					"type": "uint256"
				}
			],
			"stateMutability": "view",
			"type": "function"
		},
		{
			"inputs": [],
			"name": "protocolFeeDestination",
			"outputs": [
				{
					"internalType": "address",
					"name": "",
					"type": "address"
				}
			],
			"stateMutability": "view",
			"type": "function"
		},
		{
			"inputs": [],
			"name": "protocolFeePercent",
			"outputs": [
				{
					"internalType": "uint256",
					"name": "",
					"type": "uint256"
				}
			],
			"stateMutability": "view",
			"type": "function"
		},
		{
			"inputs": [],
			"name": "renounceOwnership",
			"outputs": [],
			"stateMutability": "nonpayable",
			"type": "function"
		},
		{
			"inputs": [
				{
					"internalType": "address",
					"name": "sharesSubject",
					"type": "address"
				},
				{
					"internalType": "uint256",
					"name": "amount",
					"type": "uint256"
				}
			],
			"name": "sellSharesForToken",
			"outputs": [],
			"stateMutability": "nonpayable",
			"type": "function"
		},
		{
			"inputs": [
				{
					"internalType": "address",
					"name": "_partyA",
					"type": "address"
				},
				{
					"internalType": "address",
					"name": "_partyB",
					"type": "address"
				},
				{
					"internalType": "address",
					"name": "_partyC",
					"type": "address"
				}
			],
			"name": "setFeeDestinations",
			"outputs": [],
			"stateMutability": "nonpayable",
			"type": "function"
		},
		{
			"inputs": [
				{
					"internalType": "uint256",
					"name": "_feePercent",
					"type": "uint256"
				}
			],
			"name": "setProtocolFeePercent",
			"outputs": [],
			"stateMutability": "nonpayable",
			"type": "function"
		},
		{
			"inputs": [
				{
					"internalType": "uint256",
					"name": "_feePercent",
					"type": "uint256"
				}
			],
			"name": "setSubjectFeePercent",
			"outputs": [],
			"stateMutability": "nonpayable",
			"type": "function"
		},
		{
			"inputs": [
				{
					"internalType": "address",
					"name": "_token",
					"type": "address"
				}
			],
			"name": "setToken",
			"outputs": [],
			"stateMutability": "nonpayable",
			"type": "function"
		},
		{
			"inputs": [
				{
					"internalType": "address",
					"name": "",
					"type": "address"
				},
				{
					"internalType": "address",
					"name": "",
					"type": "address"
				}
			],
			"name": "sharesBalance",
			"outputs": [
				{
					"internalType": "uint256",
					"name": "",
					"type": "uint256"
				}
			],
			"stateMutability": "view",
			"type": "function"
		},
		{
			"inputs": [
				{
					"internalType": "address",
					"name": "",
					"type": "address"
				}
			],
			"name": "sharesSupply",
			"outputs": [
				{
					"internalType": "uint256",
					"name": "",
					"type": "uint256"
				}
			],
			"stateMutability": "view",
			"type": "function"
		},
		{
			"inputs": [],
			"name": "subjectFeePercent",
			"outputs": [
				{
					"internalType": "uint256",
					"name": "",
					"type": "uint256"
				}
			],
			"stateMutability": "view",
			"type": "function"
		},
		{
			"inputs": [],
			"name": "token",
			"outputs": [
				{
					"internalType": "address",
					"name": "",
					"type": "address"
				}
			],
			"stateMutability": "view",
			"type": "function"
		},
		{
			"inputs": [
				{
					"internalType": "address",
					"name": "newOwner",
					"type": "address"
				}
			],
			"name": "transferOwnership",
			"outputs": [],
			"stateMutability": "nonpayable",
			"type": "function"
		}
	]
}